:020000040000fa
:080000000002040000000000f2
:020000040000fa
:1000080004220000082200000c2200001022000038
:1000180014220000182200001c2200000022000008
:100028002022000024220000282200002c220000a8
:100038003022000034220000382200003c22000058
:100048004022000044220000482200004c22000008
:100058005022000054220000582200005c220000b8
:100068006022000064220000682200006c22000068
:100078007022000000220000002200000022000080
:1000880074220000782200007c22000080220000f8
:1000980084220000882200008c22000090220000a8
:1000a80094220000982200009c220000a022000058
:1000b800a4220000a8220000ac22000000220000b8
:1000c80000220000002200000022000000220000a0
:1000d8000022000000220000002200000022000090
:1000e8000022000000220000002200000022000080
:1000f8000022000000220000002200000022000070
:1001080000220000b02200000022000000220000af
:10011800002200000022000000220000002200004f
:1001280000220000b4220000b822000000220000d3
:100138000022000000220000bc2200000022000073
:10014800002200000022000000220000002200001f
:1001580000220000c022000000220000002200004f
:1001680000220000002200000022000000220000ff
:1001780000220000002200000022000000220000ef
:1001880000220000002200000022000000220000df
:100198000022000000220000c4220000c822000043
:1001a800cc220000002200000022000000220000f3
:1001b80000220000002200000022000000220000af
:1001c800002200000022000000220000002200009f
:1001d800002200000022000000220000002200008f
:1001e800002200000022000000220000002200007f
:1001f800002200000022000000220000002200006f
:10020800002200000022000000220000002200005e
:10021800002200000022000000220000002200004e
:10022800002200000022000000220000002200003e
:10023800002200000022000000220000002200002e
:10024800002200000022000000220000002200001e
:100258000022000000220000d0220000002200003e
:1002680000220000002200000022000000220000fe
:1002780000220000002200000022000000220000ee
:1002880000220000002200000022000000220000de
:1002980000220000002200000022000000220000ce
:1002a80000220000002200000022000000220000be
:1002b80000220000002200000022000000220000ae
:1002c800002200000022000000220000002200009e
:1002d80000220000d42200000022000000220000ba
:1002e800002200000022000000220000002200007e
:1002f8000022000000220000d8220000dc220000ba
:10030800e0220000e4220000e822000000220000b1
:10031800002200000022000000220000002200004d
:10032800002200000022000000220000002200003d
:10033800002200000022000000220000002200002d
:10034800002200000022000000220000002200001d
:10035800002200000022000000220000002200000d
:1003680000220000002200000022000000220000fd
:1003780000220000002200000022000000220000ed
:1003880000220000002200000022000000220000dd
:1003980000220000002200000022000000220000cd
:1003a80000220000002200000022000000220000bd
:1003b80000220000002200000022000000220000ad
:1003c800002200000022000000220000002200009d
:1003d800002200000022000000220000002200008d
:1003e800002200000022000000220000002200007d
:0803f8000022000000220000b9
:020000040000fa
:100400000f8021000eff22000e0188000000000076
:10041000000020000000e000020032000001200087
:100420002002880014000700fb0007000000e00025
:1004300003003a00a008210001002000020037005c
:100440000000200001002000810f70000100320038
:100450000f000700000020000000e0000200320052
:1004600000000200000000008e0c020000000000ee
:100470000040da000000fe00400220000000e00022
:1004800002003200002020009001880000000600d9
:10049000a1028800800478000000eb001f003700f4
:1004a000e284440054a0b4009905ba00e2844400f8
:1004b00054a0b4009906ba00e284440054a0b400e9
:1004c0000006eb00476fde00fd07b200ae018800ba
:1004d000636ce10003003a000ad801000000eb0061
:1004e0000e003700606ce10008003a00004deb00a0
:1004f0000a05e800020039003420ec000af0a000f0
:100500008b05e900f9ff3e00040037006168e10057
:10051000010032000086eb000b00070019c7ba008b
:100520000e04e0001905ba0003003a000a00e000da
:10053000dbff3a0000000600fe07b200ae028800b2
:100540008a047800f5ff37000cd0a300e20f4d00bd
:100550001c003b0089027800354dba000a05e8000e
:10056000020039003420ec000af0a0008b05e900fd
:100570000f003200254dba000a05e80002003900dc
:100580003420ec000af0a0008b05e90008003200de
:100590000c00e0000600320015cdba000a05e800a4
:1005a000020039003420ec000af0a0008b05e900bd
:1005b0008984e80054a0b4000b00e000e2ff3a0098
:1005c000000006009902ba00055d78008b05e9007d
:1005d000f7ff3200c82ade00055d78008b05e900d0
:1005e000f3ff32000c00e000f1ff320019ddba0029
:1005f000eeff37003600f800809fbe00829fbe00ed
:10060000849fbe00869fbe000000fa00c028a9009b
:100610000000eb00b10807000080fa004f03be00a5
:100620004f02be004f01be004f00be003600f90071
:10063000004006003600f800809fbe00829fbe008a
:10064000849fbe00869fbe000000fa009608070047
:10065000c048a90010002000a00807000080fa0090
:100660004f03be004f02be004f01be004f00be0050
:100670003600f900004006003600f800809fbe00fa
:10068000829fbe00849fbe00869fbe000000fa00cd
:10069000c068a90020002000900807000080fa0030
:1006a0004f03be004f02be004f01be004f00be0010
:1006b0003600f900004006003600f800809fbe00ba
:1006c000829fbe00849fbe00869fbe000000fa008d
:1006d000c088a90030002000800807000080fa00d0
:1006e0004f03be004f02be004f01be004f00be00d0
:1006f0003600f900004006003600f800809fbe007a
:10070000829fbe00849fbe00869fbe000000fa004c
:10071000c0a8a90040002000700807000080fa006f
:100720004f03be004f02be004f01be004f00be008f
:100730003600f900004006003600f800809fbe0039
:10074000829fbe00849fbe00869fbe000000fa000c
:10075000c608a90070002000600807000080fa00a9
:100760004f03be004f02be004f01be004f00be004f
:100770003600f900004006003600f800809fbe00f9
:10078000829fbe00849fbe00869fbe000000fa00cc
:100790002146800000102000008060000000e00082
:1007a00003003200c508a900c00020004b08070064
:1007b0002146800000002800008060000000e0006a
:1007c00003003200c5e8a9008000200043080700ac
:1007d0002146800000022000008060000000e00050
:1007e00003003200c4a8a900900020003b080700c5
:1007f00020468000700060000000e000030032002e
:10080000c488a900a000200034080700ffff3700bb
:100810000040da000000fe000000050080017800c2
:1008200002003700b15978000201e9000200e0003f
:10083000fcff3a0000000600800178008102780089
:10084000810f50004100320002824000840f5000ae
:100850000300310002024000848f50000100390083
:10086000eeff370000826800810f50001b0031004e
:100870000408a30005003200150037000200e00064
:10088000320032000201e900b15978000308a300e8
:10089000faff3a0003037800820278000102780030
:1008a00002003700b41978000281e900e10f51001d
:1008b000fcff3e00618162000500a100850143004c
:1008c0008582400002003700b55978000201e90036
:1008d0000200e000fcff3a00000006000408a3004c
:1008e00018003a00060037000200e000170032004e
:1008f0000201e90082014000028240009449780030
:10090000820140000308a300f7ff3a00820178004b
:10091000040037000281e9000202400082824000a8
:10092000150a7800e10f5100faff3e006181610075
:10093000040037000201e900820140000282400009
:10094000944978000200e000faff3a000000060037
:10095000889fbe008a9fbe00800478000200e000ed
:100960005a00320001407800814c780082814400b6
:10097000f1f99f00e20f51005400360091449800b5
:10098000a1449800e1f99f00d1f99f00e60f5100c2
:100990004e003600b1449800c1f99f00e80f5100a5
:1009a0004a0036000905ea00630565000a84440030
:1009b0000a055100c1ff2f00010565000080fb0002
:1009c0008000eb00121020001310200043000700ed
:1009d000008cbe000a01440060b99f0071b99f00fd
:1009e000e80f5500390036002004980031049800c3
:1009f000400498005104980020b99f0031b99f002d
:100a000040b99f0051b99f00f80f55002f003600e4
:100a10006004980071049800000c9800110c980074
:100a2000200c9800310c9800400c9800510c980054
:100a300020b19f0031b19f0040b19f0051b19f0094
:100a400060b19f0071b19f0000b99f0011b99f0074
:100a5000640164007801410002044400020555006d
:100a60006011b8000203be000002be000403be0015
:100a70006022b800000072008180720002017300e1
:100a8000838173000f00370008027800009abe00cf
:100a9000029abe00009abe000292be00000c9800ae
:100aa000110c9800220c9800330c9800400c980010
:100ab000510c9800620c9800730c98000a02b10067
:100ac0000802b000ff0f5500efff3e00090078005c
:100ad0004f05be004f04be0000000600020ab90028
:100ae000001bb9000200b8008100420081004300f1
:040af00000000600fc
:020000040000fa
:100af4000b080000000000000000000000000000df
:100b040000000000000100000020000000000000c0
:100b1400fea7000000000000090000000000000023
:100b240000000000000000000000000000010000c0
:080b3400002000000000000099
:020000040000fa
:100b3c001400fa00889fbe0080112100000f78007d
:100b4c0020002000e40607000080fb00c800dd0048
:100b5c000e80e8000108780010002000de06070077
:100b6c000080fb008e80e80091007800810070000e
:100b7c000e80e80001087800f60507008e80e8007a
:100b8c0091007800eb804000810f50000200310092
:100b9c00200020009d0037000e80e8001000780037
:100bac006b00400080007800801121000a060700cd
:100bbc0068004700b20020008111210014ff0700db
:100bcc0011c0b30073004700014878001e01780083
:100bdc00e7014100934178008381fb0068024100ea
:100bec00144278000482fb004822dd0084817100ed
:100bfc0003007800e9014100934178008381fb00f8
:100c0c006a014100124178000281fb004811dd00ad
:100c1c000281710082007800640147000089be00e7
:100c2c000e80e80090007800500f2000808f50005c
:100c3c0035003e001e007800e30040009140780033
:100c4c008180fb0064024000144278000482fb00a7
:100c5c004822dd008480700001017800e50040002e
:100c6c00914078008180fb006600400010407800c5
:100c7c000080fb004800dd000080700080017800df
:100c8c009e007800eb8240000e80e8001000780097
:100c9c006104b8001e027800670342001643780016
:100cac000683fb00e8034200974378008783fb0030
:100cbc00c83bdd000703730006007800690342009f
:100ccc00164378000683fb006a0242001442780047
:100cdc000482fb004822dd000402730084007800cb
:100cec000203be00050278000801be009402070052
:100cfc000000e00007003200e1cfb30073004700b2
:100d0c000148780003003700e1cfb30073004700bf
:100d1c000148780068004700c10020006f040700fc
:100d2c001e017800e3014100934178008381fb00b0
:100d3c0064024100144278000482fb004822dd006a
:100d4c008481710003007800e50141009341780033
:100d5c008381fb0066014100124178000281fb0097
:100d6c004811dd0002817100820078000081ea00e8
:100d7c008181ea001e007800f10f200081006100e3
:100d8c00630240001442780060426200014272002b
:100d9c00e300400084487800c810de006402400084
:100dac00144278006042620001427200e40040008c
:100dbc0084487800f10f20008180610065024000ba
:100dcc00144278006042620001427200e50040006b
:100ddc0084487800c818de00660140001241780093
:100dec00604161008140710066004000014878005c
:100dfc007300470010407800e14f500002003a00a9
:100e0c000000eb0001003700300020004f04be0052
:080e1c000080fa00000006004e
:020000040000fa
:100e24000000fe00822321000019780001097800e7
:100e3400000006000000fe000000eb008000eb0054
:100e4400f8ff07002e27ef00000006000000fe0058
:100e54000000fe00801f7800811f7800821f780048
:100e64008123210012468000c3e8a90031007800e4
:100e740070398800110078007039880029e7a800cb
:100e8400000000000000000029e7af00feff37006b
:100e940002f0a700c3e8a8004f017800cf00780053
:100ea4004f007800000006000000fe00a20280004f
:100eb400a10288009080ba001000ba00a202880043
:100ec400000006000000fe00a2028000a1028800cb
:100ed4001000ba00a2028800000006000000fe0014
:100ee400f23f20000001610008003a0032002400b3
:100ef4004239880050398800613988002c07020083
:100f0400000000001000200029a7af00000020000e
:100f1400000006000000fe0029e7af00feff3700d6
:100f24000000a700130037000010a70011003700cd
:100f34006139880050398800100024004039880045
:100f4400a0028000a10f2000a1028800010020005f
:100f54008208bb008398bb008408bb008598bb0053
:100f64002c07020000000000a002880010002000ee
:100f740029a7af0000002000000006000000fe00ca
:100f840029e7af00feff37000000a7001400370078
:100f94000010a7001200370061398800503988001a
:100fa400a10280001000240040398800a00f200016
:100fb400a0028800000020000208bb00f20f2000fd
:100fc4000298bb000308bb000298bb002c07020078
:100fd40000000000a10288001000200029a7af0033
:100fe40000002000000006000000fe0029e7af001a
:100ff400feff3700f30720008081610009003a00fa
:101004005039880061398800200024004039880064
:10101400823988002c070200000000001000200024
:1010240029a7af0000002000000006000000fe0019
:1010340029e7af00feff3700f3072000808161003d
:1010440015003a00503988006139880010002400e6
:1010540040398800a00f2000a00288000000200072
:1010640001042000f40f20003208bb000498bb00e8
:101074003208bb000490bb002c07020000000000f3
:101084002aa7ec002aa7ec002100b100f6ff3a00e1
:101094001000200029a7af00000020000000060077
:1010a400f23f2000000061000000060002c02f0093
:1010b40000006100f2ff2f008100610000000600c3
:020000040000fa
:1010c4001200fa00881f780080112100000f7800b8
:1010d400b100200080112100c10407006600470010
:1010e400b200200081112100cbfd07001e01780011
:1010f400e7014100934178008381fb0068024100cd
:10110400144278000482fb004822dd0084817100cf
:1011140003007800e9014100934178008381fb00da
:101124006a014100124178000281fb004811dd0090
:1011340002817100820078000e81e8000089be00ff
:10114400e1cfb30071004700014878001e00780029
:10115400e3004000914078008180fb00640240007d
:10116400144278000482fb004822dd008480700071
:1011740001017800e5004000914078008180fb0087
:1011840066004000104078000080fb004800dd004d
:1011940000807000800178001e0078008000e80064
:1011a400914078008180fb000080e80010407800c6
:1011b4000080fb004800dd00008070006103b8007f
:1011c4001e027800e7024200954278008582fb0007
:1011d40068044200184478000884fb004844dd0099
:1011e4008882720005007800e90242009542780086
:1011f4008582fb006a024200144278000482fb00ec
:101204004822dd0004827200840078000202be00dd
:101214000601be00460007000000e00003003a009b
:1012240011c0b30071004700014878006600470010
:10123400c10020002b0307001e017800e3014100d8
:10124400934178008381fb006402410014427800da
:101254000482fb004822dd008481710003007800d1
:10126400e5014100934178008381fb006601410060
:10127400124178000281fb004811dd0002817100f7
:10128400820078000081ea008181ea001e00780073
:10129400f10f2000810061006302400014427800d5
:1012a4006042620001427200e3004000844878001a
:1012b400c810de00640240001442780060426200fc
:1012c40001427200e400400084487800f10f2000dd
:1012d400818061006502400014427800604262002f
:1012e40001427200e500400084487800c818de001e
:1012f4006601400012417800604161008140710044
:1013040066004000014878007100470010407800f2
:10131400e14f500002003a000000eb0001003700ea
:10132400300020004f0478000080fa00000006001e
:020000040000fa
:101334001800fa00881f78006c044700008cbe0077
:10134400700047000288be00740047000488be0095
:101354000000eb00000f78000e80e800ec0047006e
:10136400311878002110780011c0b30066004700de
:10137400014878000e80e800100178009001900088
:1013840000c02f00f1ff2f00020278000301780053
:101394008001780081007800030062008100610010
:1013a40081037800000378000601be000e80e80087
:1013b4009000900010007800800f5100818f590038
:1013c400030032008040eb006600470001487800cb
:1013d40074004700900090001000780091fe070010
:1013e4002d0037000e80e800100178009001900075
:1013f40000402000010020000200400083804800db
:101404000001be000e80e8009000900010007800fb
:10141400430407000004e0001c0032000e80e800d2
:1014240010017800900190000000eb000c0407000c
:10143400680147000089be006800470090009000e2
:1014440010007800a6fe07000080fb0000f0a70053
:101454000000ea000000ea00cf00de00660047005a
:10146400014878000e80e800100178009001900097
:10147400004020000100200002004000838048005a
:101484000e81e8000089be00030037008040eb00b5
:101494006600470001487800660047001040780065
:1014a4000004e00012003200700047009000900039
:1014b400100078004a09dd00c601de0083017100d6
:1014c4004a01dd006c004700900090001000780095
:1014d40002014000838148000e80e80090009000e3
:1014e40010007800800f5100818f5900bdff3e002d
:1014f40051fe070066004700104078000004a20077
:101504000004e00012003a007000470090009000d0
:10151400100078004a09dd00c601de008301710075
:101524004a01dd006c004700900090001000780034
:1015340002014000838148000e80e8009000900082
:1015440010007800800f5100818f59000200320092
:1015540020002000000f78001e0078004f0478005f
:081564000080fa0000000600ff
:020000040000fa
:10156c000401fa0080112100000f7800b100200066
:10157c00801121009803070064004700b20020008e
:10158c0081112100a2fc07001e0078008000e800f9
:10159c00914078008180fb000080e80010407800ca
:1015ac000080fb004800dd000080700080007800a7
:1015bc00400f2000808f50003d003e001e0178003f
:1015cc00e7014100934178008381fb0068024100f0
:1015dc00144278000482fb004822dd0084817100f3
:1015ec0003007800e9014100934178008381fb00fe
:1015fc006a014100124178000281fb004811dd00b4
:10160c0002817100820078001e0178008201e800de
:10161c00934178008381fb000281e800124178003d
:10162c000281fb004811dd00028171008001eb009a
:10163c00640247006c0342000002be000600780002
:10164c0078010700800078000e80e800010878001f
:10165c000e80e800100078000000e00004003a0062
:10166c0011c0b3006f004700014878001f0037001d
:10167c00e1cfb3006f0047000148780064004700d9
:10168c0090007800f00f200080806000640047001c
:10169c0001087800660047009000780000f02f00e9
:1016ac008080600066004700010878000f0037005a
:1016bc00e1cfb3006f004700014878006400470099
:1016cc0090007800f00f20008080600064004700dc
:1016dc0001087800660047009000780000f02f00a9
:1016ec0080806000660047000108780064004700b5
:1016fc00100078004800de00e60047001101780079
:10170c00f10f200081006100c808dd0001007000ad
:10171c00ec00400064004700f00107006f00470038
:10172c0010407800e14f500002003a000000eb003e
:10173c0001003700300020000080fa000000060095
:020000040000fa
:10174c002000fa00889fbe00f2024700808abe008b
:10175c00760047000288be007a0047000408780033
:10176c007c0047000688be006000b800008fbe00f9
:10177c008000eb0064004700010878007600470009
:10178c009000900010007800000078006700600066
:10179c008004eb00000478000800be00e00f50004d
:1017ac00e08f580052003a007600470090009000fd
:1017bc00100078008101d1000081d3007200470035
:1017cc0090009000100078000200400083804800d8
:1017dc000001be00720047009000900010007800dd
:1017ec004d0307000004e0003d0032007c00470080
:1017fc00900090001000780088fd07006000b80091
:10180c00008fbe002c0037001e0078009e00900058
:10181c008101d1000081d30072004700900090003c
:10182c001000780002004000838048000001be00d8
:10183c000000eb0008030700660147000089be00aa
:10184c009e0078007a00470010007800810040006c
:10185c006a00470082002000edfb07006e00470085
:10186c0010017800900190006a00470090009000f1
:10187c00100078000202be000001be0066004700a6
:10188c009000900010007800a1fd07000004a20059
:10189c000004e00004003200310020006400470026
:1018ac00010878000c0037008200200003002000a3
:1018bc001e0f41005e974900760047009000900093
:1018cc00100078001e0178009e019000800f5100de
:1018dc00818f5900ccff390055fd070007003700f8
:1018ec002100200064004700010878000300370045
:1018fc0011002000640047000108780064004700d4
:10190c00100078004f04be000080fa0000000600b2
:020000040000fa
:10191c000400fa002342a90021e2a9008000eb0098
:10192c000e80e80001087800060037000000000077
:10193c000e80e800100078008000e8000e80e800bf
:10194c00010878000e80e80090007800703e2000be
:10195c00808f5000f5ff34000300370030118000f9
:10196c00000f78001e0078001011800061006000ec
:10197c000000e000f9ff3a001011800062006000e6
:10198c000000e000010032002222a9000168a90039
:10199c000188a9000828a90001eba9000088a9006a
:1019ac0059030700af030700f1bf8000505a2a000b
:1019bc000080680000f0a7000000ea000000e900c9
:1019cc004f00de000040780006f0b700fe37ef0055
:1019dc0010c0b30008f0b700010037000000000091
:1019ec000060fe00008080000000e800008088009d
:1019fc0000708000640060000000e0000b0032000a
:101a0c000180800050808000808f50000d003600d7
:101a1c00024ea900004ea9000030ef00108080009b
:101a2c000000e8001080880006003700018080006c
:101a3c0060808000808f500002003600004ea800ad
:101a4c000030ef0010808000ea0f5000e3ff3600fa
:101a5c0008d0bf000004e000110032000870ef0055
:101a6c00b1708000000220000080600000f0a70030
:101a7c000000ea000000e9004f00de00b1708000b9
:101a8c00c608de00e1c060008180fb000100600040
:101a9c000000e0000200320010c0b30006f0b700f6
:081aac00e7010700ceff37003f
:020000040000fa
:101ab4002600fa0011000900001feb00005feb0094
:101ac4005e02b1006a00470090007800f00f200029
:101ad40000806000800078000190a0006a00470048
:101ae400010878006c0047009000780000f02f0097
:101af40000806000800078000100a0006c004700b6
:101b0400010878006c00470090007800f00f200076
:101b1400808060006c004700010878006e00470078
:101b24009000780000f02f000080600080007800b2
:101b34000100a0006e004700010878007000470013
:101b440090007800f00f2000808060000060250085
:101b5400810070007000470001087800720047009f
:101b64009000780000f02f00808060004003200087
:101b74008100700072004700010878007600470079
:101b840090007800f00f2000008060008000780052
:101b940001b0a000760047000108780078004700f3
:101ba4009000780000f02f008080600078004700eb
:101bb400010878004d030700f10f20008100600048
:101bc400c808dd007401470092017800f20f20007c
:101bd4000281610002817000f400470082087800ed
:101be400c800de00f00f200000806000f60047000f
:101bf4001101780001f02f00810061008100700064
:101c04007600470001087800b1002000801121000f
:101c1400f3010700510220000e007800b100070014
:0c1c24000000eb000080fa000000060049
:020000040000fa
:101c30001800fa00ee0047008008780070004700a6
:101c40000288be00740047000488be008000eb00dc
:101c50006400470001087800700047009000900081
:101c60001000780000007800630060008003eb0043
:101c7000000378000600be00e00f5000e08f58001f
:101c800040003a007000470090009000100078007b
:101c90008101d1000081d3007400470090009000c2
:101ca0001000780002004000838048000001be0060
:101cb000740047009000900010007800190207009f
:101cc0000004e0002b0032006000b800008fbe006e
:101cd0001f0037001e0078009e0090008101d10097
:101ce0000081d3007400470090009000100078003d
:101cf00002004000838048000001be000000eb00ad
:101d0000d8010700660147000089be006600470051
:101d1000900090001000780065fc07006a01470001
:101d20000089be009e0078006e0047001000780019
:101d300001004000ea00470042002000b7fa070017
:101d400042002000030020001e0f41005e97490062
:101d50007000470090009000100078001e0178008d
:101d60009e019000800f5100818f5900d9ff3900ea
:101d700007003700210020006400470001087800b8
:101d800003003700110020006400470001087800bc
:101d900064004700100078000080fa000000060090
:020000040000fa
:101da0000600fa00881f78006d010700000f780018
:101db0001e0078000000e00002003a001000200041
:101dc000460037001e007800ea0f500002003e0077
:101dd00020002000410037000000eb004102070016
:101de0008e80e80080487800100020003d02070047
:101df0000084fb00200020003a0207000080fb0066
:101e00004800dd0000004400eb0040006400470093
:101e1000010878006400470090007800001020005e
:101e2000808f5000070036000e80e80010407800d8
:101e3000e34f500003003200d00f2000e6010700fe
:101e4000260037000e80e800104078000080fb007c
:101e5000e30f500016003200e30f500007003c0073
:101e6000e10f50000e003200e10f50000a003c006c
:101e70000000e0000c00320016003700ea0f5000ae
:101e800010003200eb0f500010003200e90f50003c
:101e9000090032000f00370028fb07000f00370051
:101ea000b2fd07000d00370002ff07000b003700ee
:101eb00084fc070009003700820107000000eb00e6
:101ec00006003700bb00070004003700f7010700d9
:101ed00002003700f00f2000bf0107004f04780018
:081ee0000080fa00000006007a
:020000040000fa
:101ee8000400fa00000f78000e80e800010878006e
:101ef8000e80e800100078000000e00020003200aa
:101f08000388a90021e1a80000000000114080001a
:101f180000002100008060000000e000fbff3200ac
:101f280021e1a90010118000610060000000e000bc
:101f380001003200cc010700101180006100600030
:101f48000000e000eeff3a000d003700020ea80086
:101f5800b40107000004e000090032001e00780008
:101f6800104078001e0fe800f40107000e80e8001a
:101f7800100078008000e9000e80e8000108780071
:101f88000e80e800100078000000e000efff3a0043
:101f980000000000010207000004a2000004e000a5
:101fa800fcff3a00020ea9000080fa0000000600bb
:020000040000fa
:101fb8000000fa00042eef0000012000c070880025
:101fc800e001200000708800f0fe2f00a07088005b
:101fd8000c2eef00202eef00e0002000507088004b
:101fe8001e2eef00062eef001a2eef000001200033
:101ff80070708800f038200010718800113a800055
:10200800f00b2000008160006004200071052000b2
:10201800237420008049780081497800824978003b
:102028009133800000fc2f00008060000000a000b9
:102038009033880030c1b300c4e6b700103a80007e
:10204800000178000260a0006004200071052000f3
:1020580023742000804978008149780082497800fb
:082068000080fa0000000600f0
:020000040000fa
:102070000000fa0000002300203a88004827ef0003
:102080004e27ef0000042000303a88006027ef0060
:102090006227ef006427ef006627ef006a27ef0052
:1020a0006c27ef006e27ef00120020008007200051
:1020b000a10920003374200080497800814978000c
:1020c0008249780012002000600420007105200081
:1020d0002374200080497800814978008249780083
:1020e00000000000103a8000610060000000e00085
:1020f000fcff3a0000000000113a800000022000be
:10210000008060000000e000fbff32000080fa0069
:0421100000000600c5
:020000040000fa
:102114001610000002010000800000000e100000f4
:102124000200000080000000101000000200000007
:102134008000000012100000020000008200000075
:1021440001000000181100000001000080000000e0
:10215400381200000400000082000000ffffff00ae
:10216400ff000000181200002000000080000000a2
:10217400141000000200000082000000ffff0000b5
:10218400001000000a000000800000000a10000097
:102194000400000082000000204e40009c0000006b
:1021a4003c1200000200000080000000000000005b
:020000040000fa
:1021b4000e00fa00b10020000e007800880007002d
:1021c4000000eb00430007000004a2000004e0004c
:1021d40004003200c1cfb3006b004700014878000f
:1021e4000300370011c0b3006b00470001487800ba
:1021f4009e007800f00f200000806000000f78003f
:102204000e80e8009000780000f02f0080806000cd
:102214000e80e80001087800c10020000e0078005c
:1022240030ff07006b00470010407800e14f50007a
:1022340002003a000000eb000100370030002000eb
:082244000080fa000000060012
:020000040000fa
:10224c000000fa0010d0bf000004a2000004e0005f
:10225c001b0032005c0107000004e00003003200a8
:10226c0010c0b30010f0b7001500370012d0bf003b
:10227c000004e000030032000000eb001300070034
:10228c0011f0b70011d0bf000004a2000004e00060
:10229c000600320010c0b30010f0b70000a62e00ec
:1022ac0050808800803e20006080880010d0bf00e5
:1022bc000004a2000004e0000100320070010700dd
:0c22cc00b4fe07000080fa0000000600cd
:020000040000fa
:1022d8000600fa00e4004700800878006400470020
:1022e800100078000000e000020032000040eb001f
:1022f8001700370002002200030020006400470096
:1023080010007800550007000e0378000002be0098
:1023180042002000030020000600780042fe07006b
:102328001e0178009e019000f0ff2f00f10f2000a1
:1023380000006900818069000080700000f0a7003b
:102348000000ea000000ea004f00de0000407800cc
:082358000080fa0000000600fd
:020000040000fa
:102360000000fa00881f78000ed0bf000004a20011
:102370000004e0000f003200221020008000eb007b
:102380006001210072f9070010c0b3000ef0b70021
:1023900009003700b8888000b500070061012100fe
:1023a00081004400804878000800e800b088880078
:1023b0000100370000000000ee0007000004e0000c
:1023c00004003200b1888000f00f2000808f5000a0
:1023d000f0ff3600b08880004f0478000080fa00db
:0423e00000000600f3
:020000040000fa
:1023e4000600fa000e81e800000978006400470046
:1023f40001087800d9ff0700000f78006400470047
:10240400100078009e0f5000020031006400470065
:10241400100f78001e017800610121000e80e80091
:1024240010007800fcf80700001020009e00500007
:10243400600121001e004000010178008000780046
:1024440060012100fbf80700b08880001e005000e6
:10245400b08888001e0078000080fa0000000600a2
:020000040000fa
:102464000a00fa00e400470080087800660047008c
:102474000288be00d02c8400e12c84006601470051
:102484009201900012017800001f51000197590039
:102494006400470010007800c200dd00a059280045
:1024a4000080400090009000100078003e01400041
:1024b400ae8148000200be000080fa000000060061
:020000040000fa
:1024c4000c00fa00e05828008e007800b01878005c
:1024d400a0107800e480400064004000b018780048
:1024e400a0107800e480400064004000b018780038
:1024f400a0107800e480400064004000b100200097
:1025040080112100b6ff0700c10020000e007800f2
:1025140074fe0700f90007000080fa0000000600be
:020000040000fa
:102524000800fa00008fbe00640047000288be0065
:102534001e0078009e009000100007000004e000d8
:102544000a003200640047009000900010007800f8
:1025540062005000e0805800080007000004e0001a
:102564000200320010002000010037000000eb00e0
:0c257400004078000080fa000000060023
:020000040000fa
:102580000400fa00008fbe00f0ff210001002000cf
:102590001e0178009e019000800f5100818f59002c
:1025a00009003600e07f2a00010020001e017800ab
:1025b0009e019000800f5100818f590002003e0063
:1025c00010002000010037000000eb000040780000
:0825d0000080fa000000060083
:020000040000fa
:1025d8000e00fa00ec00470080087800b1002000e7
:1025e800801121007dff0700b20020008111210029
:1025f8000e00780087f807006c004700100078008c
:10260800804078006b00470001487800c100200036
:102618000e00780032fe0700300020000080fa002b
:0426280000000600a8
:020000040000fa
:10262c000000fa00111180000010200000806000f2
:10263c000000e00007003200111180000040200073
:10264c00008060000000e00002003200100020005a
:10265c00010037000000eb00004078000080fa0019
:04266c000000060064
:020000040000fa
:102670000000fa00000000001011800061006000fe
:102680000000e000fcff32001011800062006000da
:102690000000e000010032002222a9003011800079
:0c26a000004078000080fa0000000600f6
:020000040000fa
:1026ac001400fa00a157280009000900311f780016
:1026bc004e01b100b10020008011210046ff07003f
:1026cc00410120000e00780004fe07000000eb0022
:0826dc000080fa000000060076
:020000040000fa
:1026e4000200fa00000f7800b08880009e0f5000ae
:1026f40002003e0020c4b300030037006001210043
:102704001e004000104078000080fa00000006001f
:020000040000fa
:102714000000fa007d00070026fe070053fe0700b4
:102724007d000700340007003d0007006400070037
:1027340000022000440007000080fa0000000600a8
:020000040000fa
:102744000200fa00004f7800000000001111800020
:1027540000202000008060000000e000fbff3a0041
:102764001e80fb00201188000080fa000000060093
:020000040000fa
:102774000000fa0010118000004078006140600001
:102784000080fb0000f0a7000000ea000000ea005f
:102794004f00de00004078000080fa0000000600d0
:020000040000fa
:1027a4000000fa00101180004800de006140600063
:1027b4000080fb0000f0a7000000ea000000ea002f
:1027c4004f00de00004078000080fa0000000600a0
:020000040000fa
:1027d4000000fa0006d0bf000004e000030032004d
:1027e4000670ef0010c0b300010037000040eb009a
:0827f4000080fa00000006005d
:020000040000fa
:1027fc000000fa0080002000001188002222ef0067
:10280c00300820004011880021e2a8002342a800d3
:08281c000080fa000000060034
:020000040000fa
:102824000000fa001821ef00f07b2100e008880086
:102834002021ef00c02321008040eb0001487800f4
:082844000080fa00000006000c
:020000040000fa
:10284c000200fa00000f780021028000200f200007
:10285c00008060001e007000200288000080fa00da
:04286c000000060062
:020000040000fa
:102870000000fa0014aea8001eaea80014cea800f6
:0c2880001ecea8000080fa000000060038
:020000040000fa
:10288c000200fa0000002200000f78001e00780001
:0c289c00000001000080fa0000000600af
:020000040000fa
:1028a8000000fa0080212100800778000023210021
:0c28b800000188000080fa00000006000b
:020000040000fa
:1028c4000000fa00c3e8a8000000000000000000b7
:0828d4000080fa00000006007c
:020000040000fa
:1028dc000200fa00000f78009e007800a1808800aa
:0428ec00ffff3700b3
:020000040000fa
:1028f0000000fa00004020000080fa0000000600fe
:020000040000fa
:102900000000fa000000fe000080fa00000006004f
:020000040000fa
:0c2910000000fa000080fa000000060041
:020000040000fa
:0c291c000000fa000080fa000000060035
:020000040000fa
:020000040001f9
:04570000ffffff00a8
:020000040000fa
:020000040001f9
:04572000ffff000087
:020000040000fa
:020000040001f9
:0457300078ff0000fe
:020000040000fa
:020000040001f9
:045738005bff000013
:020000040000fa
:020000040001f9
:04574000eaff00007c
:020000040000fa
:020000040001f9
:04574800ffff00005f
:020000040000fa
:020000040001f9
:04575000feff000058
:020000040000fa
:020000040001f9
:04575800000000004d
:020000040000fa
:020000040001f9
:045760000000000045
:020000040000fa
:020000040001f9
:04576800000000003d
:020000040000fa
:020000040001f9
:045770000000000035
:020000040000fa
:020000040001f9
:04577800feff000030
:020000040000fa
:020000040001f9
:04578000feff000028
:020000040000fa
:020000040001f9
:04578800ffff00001f
:00000001FF
