:0400000080312D28F6
:100008007E1480310B1F09280A282B284E010D1F4A
:100018000E280F2813288F31C22780312B28171E4E
:10002800162817281F280D1E1A281B281F288F314D
:100038007F2780312B28971D222823282B288D1DC8
:10004800262827282B288F31DB2780312B287E1064
:10005800090080312F288F3134278031E6008F3115
:1000680035278031E7008F3136278031E8008F311E
:1000780037278031E900FD012030840000308500F9
:100088003B308F313E278031A0308400003085001E
:1000980033308F313E278031203084000130850095
:1000A80040308F313E278031A030840001308500F8
:1000B80041308F313E278031203084000230850066
:1000C80041308F313E2780317E10400182316C2AC9
:1000D80000340034C134C0348134C1344034013474
:1000E8000134C334C0340334803402344134C2345C
:1000F8000134C634C0340634803407344134C7343C
:1001080000340534C134C5348134C4344034043433
:100118000134CC34C0340C3480340D344134CD3403
:1001280000340F34C134CF348134CE3440340E34EB
:1001380000340A34C134CA348134CB3440340B34EB
:100148000134C934C0340934803408344134C834E3
:100158000134D834C0341834803419344134D93493
:1001680000341B34C134DB348134DA3440341A347B
:1001780000341E34C134DE348134DF3440341F345B
:100188000134DD34C0341D3480341C344134DC3453
:1001980000341434C134D4348134D5344034153463
:1001A8000134D734C0341734803416344134D6344B
:1001B8000134D234C0341234803413344134D3344B
:1001C80000341134C134D1348134D0344034103443
:1001D8000134F034C0343034803431344134F134B3
:1001E80000343334C134F3348134F234403432349B
:1001F80000343634C134F6348134F734403437347B
:100208000134F534C0343534803434344134F43472
:1002180000343C34C134FC348134FD3440343D3442
:100228000134FF34C0343F3480343E344134FE342A
:100238000134FA34C0343A3480343B344134FB342A
:1002480000343934C134F9348134F8344034383422
:1002580000342834C134E8348134E9344034293452
:100268000134EB34C0342B3480342A344134EA343A
:100278000134EE34C0342E3480342F344134EF341A
:1002880000342D34C134ED348134EC3440342C3412
:100298000134E434C0342434803425344134E53422
:1002A80000342734C134E7348134E634403426340A
:1002B80000342234C134E2348134E334403423340A
:1002C8000134E134C0342134803420344134E03402
:1002D8000134A034C0346034803461344134A134F2
:1002E80000346334C134A3348134A23440346234DA
:1002F80000346634C134A6348134A73440346734BA
:100308000134A534C0346534803464344134A434B1
:1003180000346C34C134AC348134AD3440346D3481
:100328000134AF34C0346F3480346E344134AE3469
:100338000134AA34C0346A3480346B344134AB3469
:1003480000346934C134A9348134A8344034683461
:1003580000347834C134B8348134B9344034793411
:100368000134BB34C0347B3480347A344134BA34F9
:100378000134BE34C0347E3480347F344134BF34D9
:1003880000347D34C134BD348134BC3440347C34D1
:100398000134B434C0347434803475344134B534E1
:1003A80000347734C134B7348134B63440347634C9
:1003B80000347234C134B2348134B33440347334C9
:1003C8000134B134C0347134803470344134B034C1
:1003D80000345034C1349034813491344034513431
:1003E80001349334C0345334803452344134923419
:1003F80001349634C03456348034573441349734F9
:1004080000345534C13495348134943440345434F0
:1004180001349C34C0345C3480345D3441349D34C0
:1004280000345F34C1349F3481349E3440345E34A8
:1004380000345A34C1349A3481349B3440345B34A8
:1004480001349934C03459348034583441349834A0
:1004580001348834C03448348034493441348934D0
:1004680000344B34C1348B3481348A3440344A34B8
:1004780000344E34C1348E3481348F3440344F3498
:1004880001348D34C0344D3480344C3441348C3490
:1004980000344434C13484348134853440344534A0
:1004A80001348734C0344734803446344134863488
:1004B80001348234C0344234803443344134833488
:1004C80000344134C1348134813480344034403480
:1004D8008F316C27823113307D01CB0005307E01CE
:1004E800A5008F31AA2782318B170B174E011713DE
:1004F80045018E1344010E1440011A1564004E0183
:100508008D1E872A882AD42A8D1203104001D30D04
:100518004F080319902A912A922A531453083A3EF5
:10052800840085300318013E85000008E30003308D
:100538006302031CA02AA12AA22A0E15CF01CF0A02
:10054800CA01CE014D08031DAA2AAB2AB12A0E1DE5
:10055800AE2AAF2AB12A0A30C90049080319B52AB8
:10056800B62ABB2A0130C902CC01CC0ABC2ACC016C
:1005780000300E190130CD00C8010C1CC42AC52A50
:10058800C72AC701D42A15304702031CCC2ACD2A12
:10059800D02AC801C80AC52A0130E3006308C70782
:1005A80040014F080319D92ADA2A182B03304A02C6
:1005B8000318DF2AE02A182BDA1BE32AE42A182B6F
:1005C8004E08031DE82AE92A182B4808031DED2ABE
:1005D800EE2AFD2A0430DB004130DC007530DD00F6
:1005E8000130DE000030DF0001308331EF2382313B
:1005F800112BA5304101CA00A530C90010304001B7
:10060800DB004B30DC009C30DD000130DE000030C8
:10061800DF0001308331EF23823101304001E300F4
:100628006308CA07CE01CE0AD91C1B2B1C2B822AB1
:10063800DA1B1F2B202B822AD910CE0186313A26AD
:10064800823141012B08031D2A2B2B2B822A4001C2
:10065800C801420142084001D2004201430840015A
:10066800D100E401E40A510E0F39023A03193D2B77
:100678003E2B4D2B510E0F39053A0319442B452BB0
:100688004D2B510E0F39033A03194B2B4C2B4D2B85
:10069800E401640C031C8E1003188E14E501E50AAE
:1006A800510E0F39033A03195A2B5B2B632B510E4A
:1006B8000F39043A0319612B622B632BE501650C92
:1006C800031C0E1003180E14510E0F39013A0319AA
:1006D8006E2B712B40010C15732B40010C114C082B
:1006E800CB000310D60DD21F7A2B7B2B7C2B5614F4
:1006F80056083A3E840085300318013E85000008FC
:10070800E30003306302031C8A2B8B2B8D2BCB0158
:10071800CB0A0310D40D511D922B932B942B5414F8
:1007280054083A3E840085300318013E85000008CD
:10073800E30003306302031CA22BA32BA52BCB01E0
:10074800CB0A0310D80D521CAA2BAB2BAC2B581478
:1007580058083A3E840085300318013E8500000899
:10076800E30003306302031CBA2BBB2BBD2BCB0168
:10077800CB0A0310D70D521DC22BC32BC42B571401
:1007880057083A3E840085300318013E850000086A
:10079800E30003306302031CD22BD32BD52BCB01F0
:1007A800CB0A4B0C031C0E1103180E15CF01500E6B
:1007B8000F39023A031DE12BE22BEA2B510E0F39B8
:1007C800043A031DE82BE92BEA2B0E155108D0003B
:1007D800822A80312D284001E0006A08C500B7014F
:1007E800B8014101AB01400160084101A00040018E
:1007F8005B084101A10040014508860002308700DE
:100808004101200881000130FC007C084001C50737
:100818000130B7070030B83D450886000230870030
:100828004101210881000130FC007C084001C50716
:100838000130B7070030B83DFD2C40015D0841018B
:10084800A30040015C084101A20040015F0841018A
:10085800A50040015E084101A4004001450886004A
:10086800023087004101230881000130FC007C0828
:100878004001C5070130B7070030B83D450886007C
:10088800023087004101220881000130FC007C0809
:100898004001C5070130B7070030B83D450886005C
:1008A800023087004101250881000130FC007C08E6
:1008B8004001C5070130B7070030B83D450886003C
:1008C800023087004101240881000130FC007C08C7
:1008D8004001C5070130B7070030B83D092D400178
:1008E8005D084101A30040015C084101A2004001EC
:1008F8005F084101A50040015E084101A4004001D4
:100908004508860002308700410123088100013034
:10091800FC007C084001C5070130B7070030B83D2E
:100928004508860002308700410122088100013015
:10093800FC007C084001C5070130B7070030B83D0E
:1009480045088600023087004101250881000130F2
:10095800FC007C084001C5070130B7070030B83DEE
:1009680045088600023087004101240881000130D3
:10097800FC007C084001C5070130B7070030B83DCE
:100988005E354101A6004001450886000230870017
:100998004101260881000130FC007C084001C507A0
:1009A8000130B7070030B83D41012208C03E400180
:1009B800B10063304101233D4001B20041012508E7
:1009C8004001E200410124084001E1003135B33E15
:1009D800F000F1014508F2006208F4006108F30034
:1009E80087317F2783314001C500092DAB01AB0A50
:1009F800092D41012108033A0319212C073A03194B
:100A0800212C143A0319732CFA2C40016A08F000BF
:100A1800FF39031D0230F1003808F3003708F200EF
:100A280087310427833171084001B4007008B3008E
:100A38004508860002308700330881000130FC0039
:100A48007C08C5070130B7070030B83D4508860067
:100A580002308700340881003708013EF00000307A
:100A6800383DF1008F315A278331080000340134B2
:100A780001340234013402340234033401340234C0
:100A880002340334023403340334043401340234AA
:100A98000234033402340334033404340234033498
:100AA8000334043403340434043405340134023484
:100AB8000234033402340334033404340234033478
:100AC8000334043403340434043405340234033462
:100AD8000334043403340434043405340334043450
:100AE800043405340434053405340634013402343E
:100AF8000234033402340334033404340234033438
:100B08000334043403340434043405340234033421
:100B1800033404340334043404340534033404340F
:100B280004340534043405340534063402340334FB
:100B380003340434033404340434053403340434EF
:100B480004340534043405340534063403340434D9
:100B580004340534043405340534063404340534C7
:100B680005340634053406340634073401340234B7
:100B780002340334023403340334043402340334B7
:100B880003340434033404340434053402340334A1
:100B9800033404340334043404340534033404348F
:100BA800043405340434053405340634023403347B
:100BB800033404340334043404340534033404346F
:100BC8000434053404340534053406340334043459
:100BD8000434053404340534053406340434053447
:100BE8000534063405340634063407340234033435
:100BF800033404340334043404340534033404342F
:100C08000434053404340534053406340334043418
:100C18000434053404340534053406340434053406
:100C280005340634053406340634073403340434F2
:100C380004340534043405340534063404340534E6
:100C480005340634053406340634073404340534D0
:100C580005340634053406340634073405340634BE
:100C68000634073406340734073408344101AB012D
:100C780040014608F000FF39031D0130F100360835
:100C8800F3003508F20087310427863171084101E5
:100C9800AA007008A90029082A04031D542E552EFD
:100CA8005A2E4001591D592E5A2E5D2E03304101EE
:100CB800AB00400146088600013087000108410169
:100CC800A0000130FC007C084001C60746088600E9
:100CD8000130870001084101A1000130FC007C08B7
:100CE8004001C607F72E40014608860001308700FC
:100CF80001084101A6000130FC007C084001C6073C
:100D080041012208C03E4001B10063304101233D4A
:100D18004001B2003135B33EF000F1014101250830
:100D2800F3002408F2004001460887314327863142
:100D38004001C600032F40014608860001308700A5
:100D480001084101A6000130FC007C084001C607EB
:100D580041012208D03E4001B1008A304101233DC3
:100D68004001B2003135203EF0000130F100410170
:100D78002508F3002408F20040014608873143277C
:100D880086314001C600032F400146088600013025
:100D9800870001084101A3000130FC007C084001E4
:100DA800C607460886000130870001084101A200F5
:100DB8000130FC007C084001C60746088600013067
:100DC800870001084101A5000130FC007C084001B2
:100DD800C607460886000130870001084101A400C3
:100DE800AB01AB0A032F41012108033A0319772EFF
:100DF800073A03199F2E143A0319C82EF42E080037
:100E0800FF30FA00FF30FB00322F700886007108AF
:100E180087007A080106F8007B08F9000130F0071E
:100E28000030F13D0830FB36FA0C890B172FFF30E4
:100E38007805F40000307905F500F435F50D6C30CF
:100E4800740784000030753D80388500003FF60047
:100E5800013FF7007608FA067708FB060130F20230
:100E68000030F33B720A031D3D2F730A031D3D2F0B
:100E78003E2F092F7B08F1007A08F0000800F900DE
:100E88007308F8007208F700772F79088600013098
:100E980087000108F4007008013EF5000030713D3C
:100EA800F60075088600760887007408810001300E
:100EB800F4007408F90779088600013087000108F2
:100EC800F4007008860071088700740881000130FA
:100ED800F4007408F9070230F0070030F13D0130E2
:100EE800F7020030F83B77087804031D7C2F7D2F2C
:100EF800492F790808007408F7007308F600A92F2D
:100F08007208860002308700700884007108850026
:100F18000131000881000130F5007508F2077208F8
:100F28008600023087007008840071088500000878
:100F380081000130F5007508F2070230F007003033
:100F4800F13D0130F6020030F73B76087704031DC7
:100F5800AE2FAF2F842F73084001B7077408B83D30
:100F68007308B7077408B83D7208080045018C017A
:100F78008E1BBF2FC02FDE2F8E17DE2F00304001B3
:100F88003A024130031939020318CB2FCC2FDA2F3C
:100F98003908A03E86000130870042011908810007
:100FA80001304001B9070030BA3DDE2F420119086F
:100FB8004001C3004E010D1AE22FE32FC22F080093
:100FC800400198019A0109309200283094007E016E
:100FD800CE01B8011330B9002830CF00BA01D001D2
:100FE8003730BB003F30D1003F30BC003F30D2002B
:040FF80008000800E5
:101E580042011D121D1608000A3050018C000800AE
:101E680040349C343034753451019101043093006E
:101E780092010800640080010131890B3F2F003472
:101E880041019E019F019B019C0101309D000800BA
:101E98000230450190008F0191014A308D008C017C
:101EA8004E010D13E03045018E0008004001DA1B99
:101EB8005E2F5F2F6B2FDA170E16AD01AE0171087A
:101EC800B0007008AF004E018D1542019E16080043
:101ED8008731E4278F318F3138278F318F31302781
:101EE8008F318F314C278F318F3193278F318F313D
:101EF80044278F31080042011D1D832F842F872F0F
:101F08008731FD278F318731BA278F3142019D1CD8
:101F18008E2F8F2F922F8F312C278F31080044015D
:101F28008F019001063091003C308D00B0308C005C
:101F38004E018D1244010D084001C00044010C08F7
:101F48004001BF00013044018E0008004E01171205
:101F5800083042019F0090309D0024309E009E1260
:101F680022309B009C014001B901BA014E011716AD
:101F7800971520304001EA005A1708004E010D134A
:101F8800003040013A02043003193902031CCD2FF6
:101F9800CE2FD82F45018E134001D914A030C6008A
:101FA8003A08B6003908B500B901BA01080040017D
:101FB80030082E02031DE22F2F082D020318E52FEB
:101FC800E62FF42F2D08203E8600023087000108F6
:101FD80042019A0001304001AD070030AE3DFF2FAD
:101FE80042019E1CF82FF92FF42F4001DA13420109
:081FF8009E1240010E120800C8
:020000040001F9
:08000000FF3FFF3FFF3FFF3F00
:0A000E00CD3FFB3DFF3F7F3CFF3F6D
:00000001FF
