:020000040000fa
:080000000002040000000000f2
:020000040000fa
:040008004e030000a3
:020000040000fa
:04000c008803000065
:020000040000fa
:04001000dc0300000d
:020000040000fa
:040014006a0300007b
:020000040000fa
:04001800a40300003d
:020000040000fa
:04001c00c00300001d
:020000040000fa
:04002000f8030000e1
:020000040000fa
:0400240024050000af
:020000040000fa
:0400280024050000ab
:020000040000fa
:04002c006404000068
:020000040000fa
:0400300024050000a3
:020000040000fa
:04003400b60400000e
:020000040000fa
:040038002c04000094
:020000040000fa
:04003c0006030000b7
:020000040000fa
:040040002405000093
:020000040000fa
:04004400240500008f
:020000040000fa
:04004800240500008b
:020000040000fa
:04004c002405000087
:020000040000fa
:040050002405000083
:020000040000fa
:04005400e0040000c4
:020000040000fa
:04005800240500007b
:020000040000fa
:04005c00820400001a
:020000040000fa
:040060002405000073
:020000040000fa
:04006400240500006f
:020000040000fa
:04006800240500006b
:020000040000fa
:04006c002405000067
:020000040000fa
:040070002405000063
:020000040000fa
:04007400240500005f
:020000040000fa
:04007800240500005b
:020000040000fa
:04007c002405000057
:020000040000fa
:040080002405000053
:020000040000fa
:04008400240500004f
:020000040000fa
:04008800240500004b
:020000040000fa
:04008c002405000047
:020000040000fa
:040090002405000043
:020000040000fa
:040094002403000041
:020000040000fa
:04009800240500003b
:020000040000fa
:04009c002405000037
:020000040000fa
:0400a0002405000033
:020000040000fa
:0400a400240500002f
:020000040000fa
:0400a800240500002b
:020000040000fa
:0400ac002405000027
:020000040000fa
:0400b0002405000023
:020000040000fa
:0400b400240500001f
:020000040000fa
:0400b800240500001b
:020000040000fa
:0400bc0046040000f6
:020000040000fa
:0400c0002405000013
:020000040000fa
:0400c400240500000f
:020000040000fa
:0400c800240500000b
:020000040000fa
:0400cc002405000007
:020000040000fa
:0400d0002405000003
:020000040000fa
:0400d40024050000ff
:020000040000fa
:0400d80024050000fb
:020000040000fa
:0400dc0024050000f7
:020000040000fa
:0400e00024050000f3
:020000040000fa
:0400e40024050000ef
:020000040000fa
:0400e80024050000eb
:020000040000fa
:0400ec0024050000e7
:020000040000fa
:0400f00024050000e3
:020000040000fa
:0400f40024050000df
:020000040000fa
:0400f80024050000db
:020000040000fa
:0400fc0024050000d7
:020000040000fa
:0401000024050000d2
:020000040000fa
:0401040024050000ce
:020000040000fa
:0401080024050000ca
:020000040000fa
:04010c0024050000c6
:020000040000fa
:0401100024050000c2
:020000040000fa
:0401140024050000be
:020000040000fa
:0401180024050000ba
:020000040000fa
:04011c0024050000b6
:020000040000fa
:0401200024050000b2
:020000040000fa
:0401240024050000ae
:020000040000fa
:0401280024050000aa
:020000040000fa
:04012c0024050000a6
:020000040000fa
:0401300024050000a2
:020000040000fa
:04013400240500009e
:020000040000fa
:04013800240500009a
:020000040000fa
:04013c002405000096
:020000040000fa
:040140002405000092
:020000040000fa
:04014400240500008e
:020000040000fa
:04014800240500008a
:020000040000fa
:04014c002405000086
:020000040000fa
:040150002405000082
:020000040000fa
:04015400240500007e
:020000040000fa
:04015800240500007a
:020000040000fa
:04015c002405000076
:020000040000fa
:040160002405000072
:020000040000fa
:04016400240500006e
:020000040000fa
:04016800240500006a
:020000040000fa
:04016c002405000066
:020000040000fa
:040170002405000062
:020000040000fa
:04017400240500005e
:020000040000fa
:04017800240500005a
:020000040000fa
:04017c002405000056
:020000040000fa
:040180002405000052
:020000040000fa
:04018400240500004e
:020000040000fa
:04018800240500004a
:020000040000fa
:04018c002405000046
:020000040000fa
:040190002405000042
:020000040000fa
:04019400240500003e
:020000040000fa
:04019800240500003a
:020000040000fa
:04019c002405000036
:020000040000fa
:0401a0002405000032
:020000040000fa
:0401a400240500002e
:020000040000fa
:0401a800240500002a
:020000040000fa
:0401ac002405000026
:020000040000fa
:0401b0002405000022
:020000040000fa
:0401b400240500001e
:020000040000fa
:0401b800240500001a
:020000040000fa
:0401bc002405000016
:020000040000fa
:0401c0002405000012
:020000040000fa
:0401c400240500000e
:020000040000fa
:0401c800240500000a
:020000040000fa
:0401cc002405000006
:020000040000fa
:0401d0002405000002
:020000040000fa
:0401d40024050000fe
:020000040000fa
:0401d80024050000fa
:020000040000fa
:0401dc0024050000f6
:020000040000fa
:0401e00024050000f2
:020000040000fa
:0401e40024050000ee
:020000040000fa
:0401e80024050000ea
:020000040000fa
:0401ec0024050000e6
:020000040000fa
:0401f00024050000e2
:020000040000fa
:0401f40024050000de
:020000040000fa
:0401f80024050000da
:020000040000fa
:0401fc0024050000d6
:020000040000fa
:0402000024050000d1
:020000040000fa
:0402040024050000cd
:020000040000fa
:0402080024050000c9
:020000040000fa
:04020c0024050000c5
:020000040000fa
:0402100024050000c1
:020000040000fa
:0402140024050000bd
:020000040000fa
:0402180024050000b9
:020000040000fa
:04021c0024050000b5
:020000040000fa
:0402200024050000b1
:020000040000fa
:0402240024050000ad
:020000040000fa
:0402280024050000a9
:020000040000fa
:04022c0024050000a5
:020000040000fa
:0402300024050000a1
:020000040000fa
:04023400240500009d
:020000040000fa
:040238002405000099
:020000040000fa
:04023c002405000095
:020000040000fa
:040240002405000091
:020000040000fa
:04024400240500008d
:020000040000fa
:040248002405000089
:020000040000fa
:04024c002405000085
:020000040000fa
:040250002405000081
:020000040000fa
:04025400240500007d
:020000040000fa
:040258002405000079
:020000040000fa
:04025c002405000075
:020000040000fa
:040260002405000071
:020000040000fa
:04026400240500006d
:020000040000fa
:040268002405000069
:020000040000fa
:04026c002405000065
:020000040000fa
:040270002405000061
:020000040000fa
:04027400240500005d
:020000040000fa
:040278002405000059
:020000040000fa
:04027c002405000055
:020000040000fa
:040280002405000051
:020000040000fa
:04028400240500004d
:020000040000fa
:040288002405000049
:020000040000fa
:04028c002405000045
:020000040000fa
:040290002405000041
:020000040000fa
:04029400240500003d
:020000040000fa
:040298002405000039
:020000040000fa
:04029c002405000035
:020000040000fa
:0402a0002405000031
:020000040000fa
:0402a400240500002d
:020000040000fa
:0402a8002405000029
:020000040000fa
:0402ac002405000025
:020000040000fa
:0402b0002405000021
:020000040000fa
:0402b400240500001d
:020000040000fa
:0402b8002405000019
:020000040000fa
:0402bc002405000015
:020000040000fa
:0402c0002405000011
:020000040000fa
:0402c400240500000d
:020000040000fa
:0402c8002405000009
:020000040000fa
:0402cc002405000005
:020000040000fa
:0402d0002405000001
:020000040000fa
:0402d40024050000fd
:020000040000fa
:0402d80024050000f9
:020000040000fa
:0402dc0024050000f5
:020000040000fa
:0402e00024050000f1
:020000040000fa
:0402e40024050000ed
:020000040000fa
:0402e80024050000e9
:020000040000fa
:0402ec0024050000e5
:020000040000fa
:0402f00024050000e1
:020000040000fa
:0402f40024050000dd
:020000040000fa
:0402f80024050000d9
:020000040000fa
:0402fc0024050000d5
:020000040000fa
:0403000024050000d0
:020000040000fa
:0403040024050000cc
:020000040000fa
:0403080024050000c8
:020000040000fa
:04030c0024050000c4
:020000040000fa
:0403100024050000c0
:020000040000fa
:100400004f3c21000eff22000e018800000000007a
:10041000000020000000e000020032000001200087
:100420002002880014000700890107000000e00096
:1004300003003a00e085210001002000020037009f
:100440000000200001002000810f70000100320038
:100450000f000700000020000000e0000200320052
:1004600000000200000000000c220200000000005a
:100470000040da000000fe00802020000000e000c4
:1004800002003200002020009001880000000600d9
:10049000a1028800800478000000eb001f003700f4
:1004a000e284440054a0b4009905ba00e2844400f8
:1004b00054a0b4009906ba00e284440054a0b400e9
:1004c0000006eb00476fde00fd07b200ae018800ba
:1004d000636ce10003003a000ad801000000eb0061
:1004e0000e003700606ce10008003a00004deb00a0
:1004f0000a05e800020039003420ec000af0a000f0
:100500008b05e900f9ff3e00040037006168e10057
:10051000010032000086eb000b00070019c7ba008b
:100520000e04e0001905ba0003003a000a00e000da
:10053000dbff3a0000000600fe07b200ae028800b2
:100540008a047800f5ff37000cd0a300e20f4d00bd
:100550001c003b0089027800354dba000a05e8000e
:10056000020039003420ec000af0a0008b05e900fd
:100570000f003200254dba000a05e80002003900dc
:100580003420ec000af0a0008b05e90008003200de
:100590000c00e0000600320015cdba000a05e800a4
:1005a000020039003420ec000af0a0008b05e900bd
:1005b0008984e80054a0b4000b00e000e2ff3a0098
:1005c000000006009902ba00055d78008b05e9007d
:1005d000f7ff3200c82ade00055d78008b05e900d0
:1005e000f3ff32000c00e000f1ff320019ddba0029
:1005f000eeff3700000000000000000000000000d7
:100600000000000000000000000000003600f800bc
:10061000809fbe00829fbe00849fbe00869fbe005a
:1006200000a8ab0002003200ff0e070000a8a900de
:100630004f03be004f02be004f01be004f00be0080
:100640003600f900004006003600f800809fbe002a
:10065000829fbe00849fbe00869fbe00f086800001
:100660000000e0000100320000000100f03b21002a
:100670001048e80011c0b300e03b210001487800b9
:100680000368a9004f03be004f02be004f01be0029
:100690004f00be003600f900004006003600f800aa
:1006a000809fbe00829fbe00849fbe00869fbe00ca
:1006b000c028a9000000eb00840f07004f03be0014
:1006c0004f02be004f01be004f00be003600f900d1
:1006d000004006003600f800809fbe00829fbe00ea
:1006e000849fbe00869fbe00560f0700c048a90029
:1006f00010002000750f07004f03be004f02be0020
:100700004f01be004f00be003600f9000040060059
:100710003600f800809fbe00829fbe00849fbe000e
:10072000869fbe00c068a90020002000670f070058
:100730004f03be004f02be004f01be004f00be007f
:100740003600f900004006003600f800809fbe0029
:10075000829fbe00849fbe00869fbe00c088a90005
:1007600030002000590f07004f03be004f02be00ab
:100770004f01be004f00be003600f90000400600e9
:100780003600f800809fbe00829fbe00849fbe009e
:10079000869fbe00c0a8a900400020004b0f0700a4
:1007a0004f03be004f02be004f01be004f00be000f
:1007b0003600f900004006003600f800809fbe00b9
:1007c000829fbe00849fbe00869fbe00c608a9000f
:1007d000700020003d0f07004f03be004f02be0017
:1007e0004f01be004f00be003600f9000040060079
:1007f0003600f800809fbe00829fbe00849fbe002e
:10080000869fbe00c508ab0003003200c508a900e2
:10081000c00020002d0f0700c408e20003003d00c7
:10082000c5e8a90080002000280f0700c4a8ab007d
:1008300003003200c4a8a90090002000230f070085
:10084000c488ab0003003200c488a900a0002000c7
:100850001e0f0700ffff37003600f800809fbe0024
:10086000829fbe00849fbe00869fbe00dd0e0700f3
:100870000088a9004f03be004f02be004f01be001a
:100880004f00be003600f900004006003600f800b8
:10089000809fbe00829fbe00849fbe00869fbe00d8
:1008a00004a8ab0002003200d40a070004a8a90083
:1008b0004f03be004f02be004f01be004f00be00fe
:1008c0003600f900004006003600f800809fbe00a8
:1008d000829fbe00849fbe00869fbe000028ab00a2
:1008e00002003200440e07000028a9004f03be009a
:1008f0004f02be004f01be004f00be003600f9009f
:10090000004006003600f800809fbe00829fbe00b7
:10091000849fbe00869fbe003200f8003400f800bd
:1009200010002000a00188000020200000d0fe0060
:1009300001a8ab0005003200308780000000e00015
:10094000010032000000010001a8a9003400f900f4
:100950003200f9004f03be004f02be004f01be003f
:100960004f00be003600f900004006003600f800d7
:10097000809fbe00829fbe00849fbe00869fbe00f7
:10098000408780000000e00001003200000001000c
:10099000303c21001048e80011c0b300203c210089
:1009a000014878000068a9004f03be004f02be0056
:1009b0004f01be004f00be003600f90000400600a7
:1009c0003600f800809fbe00829fbe00849fbe005c
:1009d000869fbe001e01e20003003500b450a9004e
:1009e000930e0700b830ef001421ef000368a90050
:1009f0002222ab00010032002222a9003011800027
:100a000000417800b6f0b700c0858000f1032000f7
:100a1000810f500005003c00a10e210080804000a5
:100a2000824878000000e800c08588000168a900bd
:100a30004f03be004f02be004f01be004f00be007c
:100a40003600f900004006000040da000000fe0019
:040a5000000005009d
:020000040000fa
:100a540000000000c1c0000081c10000400100008e
:100a640001c30000c00300008002000041c2000076
:100a740001c60000c00600008007000041c7000056
:100a840000050000c1c5000081c40000400400004e
:100a940001cc0000c00c0000800d000041cd00001e
:100aa400000f0000c1cf000081ce0000400e000006
:100ab400000a0000c1ca000081cb0000400b000006
:100ac40001c90000c00900008008000041c80000fe
:100ad40001d80000c01800008019000041d90000ae
:100ae400001b0000c1db000081da0000401a000096
:100af400001e0000c1de000081df0000401f000076
:100b040001dd0000c01d0000801c000041dc00006d
:100b140000140000c1d4000081d50000401500007d
:100b240001d70000c01700008016000041d6000065
:100b340001d20000c01200008013000041d3000065
:100b440000110000c1d1000081d00000401000005d
:100b540001f00000c03000008031000041f10000cd
:100b640000330000c1f3000081f2000040320000b5
:100b740000360000c1f6000081f700004037000095
:100b840001f50000c03500008034000041f400008d
:100b9400003c0000c1fc000081fd0000403d00005d
:100ba40001ff0000c03f0000803e000041fe000045
:100bb40001fa0000c03a0000803b000041fb000045
:100bc40000390000c1f9000081f80000403800003d
:100bd40000280000c1e8000081e90000402900006d
:100be40001eb0000c02b0000802a000041ea000055
:100bf40001ee0000c02e0000802f000041ef000035
:100c0400002d0000c1ed000081ec0000402c00002c
:100c140001e40000c02400008025000041e500003c
:100c240000270000c1e7000081e600004026000024
:100c340000220000c1e2000081e300004023000024
:100c440001e10000c02100008020000041e000001c
:100c540001a00000c06000008061000041a100000c
:100c640000630000c1a3000081a2000040620000f4
:100c740000660000c1a6000081a7000040670000d4
:100c840001a50000c06500008064000041a40000cc
:100c9400006c0000c1ac000081ad0000406d00009c
:100ca40001af0000c06f0000806e000041ae000084
:100cb40001aa0000c06a0000806b000041ab000084
:100cc40000690000c1a9000081a80000406800007c
:100cd40000780000c1b8000081b90000407900002c
:100ce40001bb0000c07b0000807a000041ba000014
:100cf40001be0000c07e0000807f000041bf0000f4
:100d0400007d0000c1bd000081bc0000407c0000eb
:100d140001b40000c07400008075000041b50000fb
:100d240000770000c1b7000081b6000040760000e3
:100d340000720000c1b2000081b3000040730000e3
:100d440001b10000c07100008070000041b00000db
:100d540000500000c190000081910000405100004b
:100d640001930000c0530000805200004192000033
:100d740001960000c0560000805700004197000013
:100d840000550000c195000081940000405400000b
:100d9400019c0000c05c0000805d0000419d0000db
:100da400005f0000c19f0000819e0000405e0000c3
:100db400005a0000c19a0000819b0000405b0000c3
:100dc40001990000c05900008058000041980000bb
:100dd40001880000c04800008049000041890000eb
:100de400004b0000c18b0000818a0000404a0000d3
:100df400004e0000c18e0000818f0000404f0000b3
:100e0400018d0000c04d0000804c0000418c0000aa
:100e140000440000c18400008185000040450000ba
:100e240001870000c04700008046000041860000a2
:100e340001820000c04200008043000041830000a2
:100e440000410000c181000081800000404000009a
:100e5400ff010000030200000500000004ff000081
:020000040000fa
:100e6400889fbe008a1f78008c9fbe00890d0700f2
:100e7400a000200000808800820d07000080200070
:100e84000110200060070700d0828800e1828800fa
:100e940000c02000011020005b070700f0828800da
:100ea4000183880050052000a10a2000b406070031
:100eb400ea2321006044b8000c0420000d00200047
:100ec400d0828000e18280000800400089804800d0
:100ed400d4060700002d780062044400e0844c002e
:100ee4008c0f54008d8f5c00f5ff3a002092800037
:100ef4004200de0061006000a083880048252100d4
:100f0400f082800001838000bf060700008cbe00d1
:100f1400040020000508200081816200040178009b
:100f2400e00f5100e08f590004003200020020005d
:100f340003f02f00021c700003947000f282800002
:100f44000383800064004100e0804900ae0607008e
:100f5400c0928800d192880000002100408188005e
:100f6400008020008081880000102000c08188005b
:100f740000f82f00b40ab6008007b300a05588001b
:100f840003532700b38288005830ef0000252c005b
:100f94004007b60000f0a7000000ea000000ea00e5
:100fa4004f00de004400dd00118480000140a100f8
:100fb40081007000118488004087a90041e7a900de
:100fc40040c7a90041c7a9004127a9004f06be0098
:0c0fd4004f0578004f04be00000006002e
:020000040000fa
:100fe000802aef000040200020558800a62aef004c
:100ff000a82aef00aa2aef00a5eaa8000000060030
:020000040000fa
:1010000058020000be0000000400000003000000c1
:1010100010270000e8030000204e000084030000b9
:10102000f0000000000000000000000000000000d0
:1010300000000000000000000000000000000000b0
:1010400000000000000000000000000000000000a0
:101050000000000000000000000000000000000090
:101060000000000000000000000000000000000080
:020000040000fa
:020000040000fa
:10200000c10507009084880081848000728480006c
:102010000100e800b4aa2a000402b800422ade0047
:10202000e622b90004005000820f500002003a007e
:102030007230a900100037000201e800b4aa2a009b
:102040000412b8004228de00e600b9000001510089
:10205000828f500002003a007230a800060037005c
:1020600090838000e1006000818040000010a100aa
:1020700000807000908388008e10f8009010f900a6
:10208000a07228009210b4001000fb007084880039
:10209000220cf8008610f900420cf8008810f900b4
:1020a000620cf8008a10f900e10f400002003a00cb
:1020b0008210a800b90037007330ab00b3003200c3
:1020c0009283800061016100e311b90000004100ca
:1020d000b2aa2a000201b8004219de00e611b900d6
:1020e00002005000e20f50003e00320005003e00aa
:1020f0000000e00009003200e10f50009c003a00af
:102100001f003700e40f5000680032004e00390015
:10211000e50f500096003a007d0037008710a900b7
:102120008730a9008790a90087b0a9008650a90030
:102130008670a8008690a90086b0a8008910a90022
:102140008930a9008990a80089b0a8008850a8000b
:102150008870a9008890a80088b0a9008b10a800fa
:102160008b30a8008b90a9008bb0a9008a50a900e1
:102170008a70a8008a90a9008ab0a8007c00370065
:102180008710a9008730a9008790a90087b0a9000f
:102190008650a9008670a8008690a90086b0a80085
:1021a0008910a8008930a8008990a90089b0a900e9
:1021b0008850a9008870a8008890a90088b0a8005d
:1021c0008b10a9008b30a9008b90a8008bb0a800c1
:1021d0008a50a8008a70a9008a90a8008ab0a90035
:1021e000630037008710a8008730a8008790a900f7
:1021f00087b0a9008650a9008670a8008690a90023
:1022000086b0a8008910a9008930a9008990a9008a
:1022100089b0a9008850a9008870a8008890a900fa
:1022200088b0a8008b10a9008b30a9008b90a80063
:102230008bb0a8008a50a8008a70a9008a90a800d4
:102240008ab0a9004a0037008710a9008730a9008a
:102250008790a80087b0a8008650a8008670a900c3
:102260008690a80086b0a9008910a9008930a9002d
:102270008990a90089b0a9008850a9008870a80099
:102280008890a90088b0a8008b10a8008b30a80007
:102290008b90a9008bb0a9008a50a9008a70a80071
:1022a0008a90a9008ab0a800310037008710a900e1
:1022b0008730a9008790a80087b0a8008650a800a2
:1022c0008670a9008690a80086b0a9008910a80091
:1022d0008930a8008990a90089b0a9008850a90078
:1022e0008870a8008890a90088b0a8008b10a90069
:1022f0008b30a9008b90a9008bb0a9008a50a9004f
:102300008a70a8008a90a9008ab0a8001800370037
:102310008710a8008730a8008790a90087b0a9007f
:102320008650a9008670a8008690a90086b0a800f3
:102330008910a9008930a9008990a80089b0a80057
:102340008850a8008870a9008890a80088b0a900cb
:102350008b10a9008b30a9008b90a9008bb0a9002d
:102360008a50a9008a70a8008a90a9008ab0a800a3
:102370008610f800220cf9008810f800420cf900d1
:102380008a10f800620cf90004003700007a2c0073
:102390001061880010628800106388000000060049
:020000040000fa
:1023a000708380000000e00008003a000010e200a6
:1023b00039003a00a000200090868800e03d20000f
:1023c000a0868800f80707003300370031868000b8
:1023d0000128a30018003200c650a90041242100a2
:1023e00091007800e28060002b003a00e50f500079
:1023f0000b00320003003c00e10f500026003a00c1
:1024000005003700e60f500007003200e70f5000cc
:1024100021003a00060037008d0407001e00370037
:102420008b0407001c003700890407001a003700de
:1024300087040700180037000138a3001600320097
:10244000c670a9004124210091007800e28060005c
:1024500011003a00e30f50000b003200e40f50006f
:1024600004003200e20f50000b003a00450607005e
:10247000090037000a30ec004206070010c0b30024
:1024800066f0b700040037000a30ec003d06070094
:1024900010c0b30066f0b70070838000e40f5000f6
:1024a0001e00320006003c00e20f50000a0032001d
:1024b00015003c00e10f500079003a003900370068
:1024c000e60f50004f0032001a003500e70f5000b1
:1024d00073003a00640037007310ab000200320052
:1024e0007e0507006f003700608280007010b50025
:1024f00051928000808f50006a003d008310a80038
:10250000d306070067003700309280000210e30016
:1025100064003600ce06070062003700409280005b
:102520000410e3005f0036000430ef006b05070085
:102530005c0037007310ab00070032007310a90075
:10254000401f200090868800a08688008350a80045
:102550009507070053003700618280008083800068
:1025600081005000002421001000ea00808f5000fc
:102570004c003d0040242100100078006200600003
:102580000200320010c0b30066f0b700800c2000db
:102590009086880000322000a0868800820707000d
:1025a000400037007310ab00010032007310a90027
:1025b00040242100100078006100600039003200e2
:1025c000b0828000c1828000e00f5000e08f580090
:1025d00003003200609280000a10e30031003900ed
:1025e000f0ff2f00f1002000f283800003848000c0
:1025f000800f5100818f59002a003600f80507002e
:1026000028003700618280008083800081005000b4
:10261000e02421001000ea00808f50000200350005
:102620007310ab001f0032007330ab0005003200a6
:102630007330a9007310ab001a00320070fe07005f
:1026400018003700f0ff2f00f1002000f283800017
:1026500003848000800f5100818f590011003600e3
:10266000330607000f0037007310ab000300320081
:102670007310a900c30507000a00370060828000bc
:102680007010b500070033004038200090868800a5
:1026900040062000a086880043070700010037009d
:0826a0007310a9000000060000
:020000040000fa
:1026a800008080000000e000020032000000e90025
:1026b80000808800f08180000000e0000200320005
:1026c8000000e900f08188004010ec0000828800da
:1026d800044eab0005003200d410e30007003e00b2
:1026e8004030ef00044ea90004003700d210e30088
:1026f80002003e004030ef00044ea8005a040700d4
:102708000c10ec00f03fb200608088002e003a0008
:1027180070838000e30f500002003a000230ec00a2
:1027280020003700e40f50000c003a00402421003c
:1027380010007800620060000600320030928000cd
:102748000410e300030036000430ef008b05070097
:10275800140037000430ec0012003700e10f50007d
:1027680010003a0040242100100078006200600048
:102778000b00320021808000309280000000400071
:10278800810f5000030031000430ef00ae03070052
:10279800040037008100e80021808800010037002c
:1027a8000430ef00b0828000c1828000e00f50004a
:1027b800e08f58000400320061015000e0815800a9
:1027c800b2828800c382880072b0ab000100320078
:1027d80072b0a90072d0ab000100320072d0a9001b
:1027e80072f0ab002200320072f0a90024a8a90000
:1027f800f083800001848000f080880001818800d7
:10280800f083800001848000ed06070024a8a8005a
:102818007330ab0015003200f08080000181800029
:10282800f2838000038480000000510081805900f9
:1028380002c42900820f5000e08f58000b003400ba
:10284800708280007010b50000f0a7000000ea0058
:10285800f70f500005003400800c20009086880097
:10286800a08688008330a8007310a80024a8a800b8
:10287800808380004a10e3002c003a009082800098
:10288800a182800033062000830f5000e08f58009b
:102898000a00360070838000e20f50000600320004
:1028a800e50f500004003200e60f5000020032002d
:1028b800e70f500001003a008250a8009082800083
:1028c800a182800042062000820f5000e08f58004d
:1028d8000d003a0053062000938288005430ef0020
:1028e800f083800001848000f080880001818800e6
:1028f800f0ff2f00f1ff2700f08388000184880093
:10290800af0607000c00370032062000820f500087
:10291800e08f580008003e0061014000e081480057
:1029280092828800a3828800030037005230ef00ab
:102938005430ef00809d88005283800061838000be
:10294800800621009b0307007010f8004a10f90068
:10295800a0928000b19280001081880021818800b7
:1029680011818000019488002281800012948800df
:08297800060307000000060041
:020000040000fa
:102980000000fe00a23b2100001978000109780038
:10299000000006000000fe000000eb008000eb00dd
:1029a000f8ff07002e27ef00000006000000fe00e1
:1029b0000000fe00801f7800811f7800821f7800d1
:1029c000a13b210012468000c3e8a9003100780035
:1029d00070398800110078007039880029e7a80054
:1029e000000000000000000029e7af00feff3700f4
:1029f00002f0a700c3e8a8004f017800cf007800dc
:102a00004f007800000006000000fe00a2028000d7
:102a1000a10288009080ba001000ba00a2028800cb
:102a2000000006000000fe00a2028000a102880053
:102a30001000ba00a2028800000006000000fe009c
:102a4000f23f20000001610008003a00320024003b
:102a5000423988005039880061398800da14020050
:102a6000000000001000200029a7af000000200097
:102a7000000006000000fe0029e7af00feff37005f
:102a80000000a700130037000010a7001100370056
:102a900061398800503988001000240040398800ce
:102aa000a0028000a10f2000a102880001002000e8
:102ab0008208bb008398bb008408bb008598bb00dc
:102ac000da14020000000000a002880010002000bc
:102ad00029a7af0000002000000006000000fe0053
:102ae00029e7af00feff37000000a7001400370001
:102af0000010a700120037006139880050398800a3
:102b0000a10280001000240040398800a00f20009e
:102b1000a0028800000020000208bb00f20f200085
:102b20000298bb000308bb000298bb00da14020045
:102b300000000000a10288001000200029a7af00bb
:102b400000002000000006000000fe0029e7af00a2
:102b5000feff3700f30720008081610009003a0082
:102b600050398800613988002000240040398800ed
:102b700082398800da1402000000000010002000f2
:102b800029a7af0000002000000006000000fe00a2
:102b900029e7af00feff3700f307200080816100c6
:102ba00015003a005039880061398800100024006f
:102bb00040398800a00f2000a002880000002000fb
:102bc00001042000f40f20003208bb000498bb0071
:102bd0003208bb000490bb00da14020000000000c1
:102be0002aa7ec002aa7ec002100b100f6ff3a006a
:102bf0001000200029a7af00000020000000060000
:102c0000f23f2000000061000000060002c02f001b
:102c100000006100f2ff2f0081006100000006004b
:020000040000fa
:102c2000e085800070858800a430ef000138210025
:102c300011487800ae10ec0070858800a430ec00dc
:102c4000c13821001104e0000b00320001c8b300bc
:102c50001238210012c84000ae10ec0070858800c8
:102c6000a430ec00c138210011487800ae30ec00ef
:102c7000a430ec004e0037001138210011487800d4
:102c8000728580000201e80072858800a430ec00a3
:102c900011407800e44f500019003200f04f50000e
:102ca0002c003200e34f50003e003a004338210030
:102cb000130078000000400061382100804878004f
:102cc00000497800718580008100e80071858800e6
:102cd000a430ec00c08680002238210012001000d1
:102ce00050858800000040000224210002004000be
:102cf00013017800b3040700708588002c003700aa
:102d000043382100130078000000400061382100a2
:102d10008048780000497800718580008100e800d3
:102d200071858800a430ec00b08680002238210034
:102d30001200100050858800000040000228210089
:102d400002004000130178009e040700708588008f
:102d5000170037003038210010497800ae10ec0021
:102d600070858800a430ec002138210011487800db
:102d7000ae10ec0070858800a430ec0051382100c2
:102d800011487800ae10ec0070858800a430ec008b
:102d90004138210011487800ae30ec00a430ec003e
:102da0000300370011c0b300c0382100014878008b
:102db000410a210091407800e0858000340407003a
:102dc0004085880070858000810a2100914078004c
:102dd00001487800ae10ec0070858800a430ec004b
:102de000910a21009140780001487800c038210004
:102df0001090a000a290ab0002003200208580005d
:082e00001505070000000600a3
:020000040000fa
:102e0800c03821000048eb00610a21009140780099
:102e1800608580001c040700509c88000000e000ca
:102e280052003a006085800001382100b0487800df
:102e380060858800b0407800123821000149780088
:102e480060858800e4cf500013003200f0cf5000b6
:102e580020003200e3cf500041003a003138210011
:102e6800b04878006085880021382100b048780093
:102e78006085880051382100b04878006085880056
:102e880041382100b048780060858800c0382100aa
:102e98001080a0003500370031382100b048780094
:102ea8006085880021382100b04878006085880056
:102eb80051382100b04878006085880041382100e9
:102ec800b048780060858800c03821001080a000d4
:102ed8002600370031382100b04878006085880026
:102ee8002238210030497800608588005138210057
:102ef800b04878006085880041382100b0487800e3
:102f08006085880061382100b048780060858800b5
:102f1800c18680009280100051858800050033002a
:102f2800229c80000282400003022000830f52008e
:102f38000400360021c0b300c038210001487800e1
:102f48000400370081804000032421008380400072
:102f58007c040700c03821001080a000030037005f
:102f680011c0b300c03821000148780000000600f5
:020000040000fa
:102f78000203f8003a10f9000603f8002a10f900d5
:102f88006002210064030700e002210062030700d9
:102f98006003210060030700e0818000f1df260064
:102fa800810f500001003e0082d0a800f17f26006a
:102fb800810f500001003e0082f0a800708380005d
:102fc800e30f500007003c00e20f500027003d00cf
:102fd8000000e00008003200e10f500021003a0034
:102fe80008003700e40f500019003200e70f5000c6
:102ff8001c003c001d0037002c10f8000810f900d8
:103008001a0037000000eb002a0307002c10f80014
:103018000810f9006650e200140032006670ef00f4
:103028004025210014002000050020003001420046
:10303800a0814a000288be00c4928000d592800018
:10304800f0828000018380005f02070007003700dc
:103058000000eb00170307002c10f8000810f90017
:10306800020037000000eb001203070040808000d8
:103078002c10b500308288002304070030828000bd
:103088004680de00709d8800e08180004600de00fa
:10309800b09d880071838000cc08dd00f0ff20001f
:1030a8008210b6000080700010848800c09d8800df
:0430b800000006000e
:020000040000fa
:1030bc00ba1300000400000082000000ffffff00b4
:1030cc00ff000000da100000020000008000000089
:1030dc00dc1000000200000080000000be130000a5
:1030ec000200000080000000de1000000200000062
:1030fc00800000008e130000200000008000000003
:10310c00e01000000200000082000000ffff000041
:10311c00c01300000200000080000000e21000005c
:10312c000200000080000000e4100000020000001b
:10313c0080000000e610000002000000800000008b
:10314c00c21300000200000080000000e810000024
:10315c0002000000800000006e1000003000000033
:10316c0080000000d210000004000000820000006b
:10317c000200580002000000001000006e00000069
:10318c0080000000401200004e0100008000000092
:10319c00d6100000040000008200000030754000d2
:1031ac009c0000009e100000140000008000000035
:1031bc00ea1000005601000080000000b210000070
:1031cc001400000080000000ae1300000c00000092
:1031dc0080000000c61000000c0000008000000001
:0431ec0000000000df
:020000040000fa
:1031f000022cef00007721002060880000302000c2
:103200003060880000802000506088001a2cef0099
:103210001e2cef000018200000618800006288006a
:1032200000638800837a2c00e2c120001032240061
:10323000d1bc2a0024c220000109780000097800ce
:10324000030a780024c420000109780000097800ee
:10325000030a780024c620000109780000097800dc
:10326000030a78001304220044c2200001097800f8
:1032700000097800030a780044c42000010978009e
:1032800000097800030a780044c62000010978008c
:1032900000097800030a7800262cef00462cef0086
:1032a000662cef00282cef00482cef00682cef0074
:1032b0002a2cef004a2cef006a2cef002c2cef0098
:1032c0004c2cef006c2cef00322cef00522cef0056
:1032d000722cef00342cef00542cef00742cef0014
:1032e000382cef00582cef00782cef003a2cef0030
:1032f0005a2cef007a2cef003c2cef005c2cef00f6
:103300007c2cef003e2cef005e2cef007e2cef00bb
:0c3310007000280000608800000006002b
:020000040000fa
:10331c001038210010407800e44f50003200320089
:10332c00f04f500031003a00f082800001838000a1
:10333c00b3fd07001083880021838800040020005f
:10334c00050820008181620004017800e00f510023
:10335c00e08f5900060032000200200003f02f001d
:10336c000200700083807000108388002183880025
:10337c00a2928000b3928000108380002183800091
:10338c00800f5100818f590006003200c4928000da
:10339c00d5928000f08280000183800089010700b3
:1033ac0012003700c086800070004000119c800025
:1033bc00808f500003003a00009380002082880028
:1033cc000a00370002242100d0828000e1828000b4
:1033dc001c020700209280004200de0061006000a9
:1033ec00a0838800010037008230ef000000060047
:020000040000fa
:1033fc0000fb0700d2838000e3838000b283880047
:10340c00c38388005401f8007a10f9005061ab00b6
:10341c0004003200a00a80005061ab00fdff3a00ae
:10342c00d08488005c01f8007c10f9005861ab0076
:10343c0004003200e00a80005861ab00fdff3a0046
:10344c00e084880072f0a8007230ab0002003a00f1
:10345c007030ec00010037007030ed00d08380003c
:10346c00e18380000201500083815800f2838800c0
:10347c000384880090838000c300de00e1c06000fc
:10348c000000d1006140600080cf500005003a0080
:10349c00f0762100800f5100e08f590001003e00b2
:1034ac008230a80090838000c200dd00e8806000bc
:1034bc000030a1000080700090838800000006009e
:020000040000fa
:1034cc00c00020002070880000012000c07088001f
:1034dc00e101200001708800f13f2000a1708800fc
:1034ec000c2eef00202eef00e10020005170880020
:1034fc0051002000f17088004100200031708800dc
:10350c001a2eef0070708800a0282000107188001f
:10351c00f20b2000103a80000001610060042000d2
:10352c0071052000237420008049780081497800bf
:10353c008249780024c2b300036b200084497800d0
:10354c00136b20008449780014c1b300e36a200097
:10355c0084497800e4c2b300636a2000844978008f
:10356c0004c2b300f36a200084497800123a800048
:10357c000260a00023742000804978008149780003
:08358c008249780000000600ee
:020000040000fa
:1035940000202000c1382100110060000900320021
:1035a400010078001090a1001038210041c0b30040
:1035b40090cf100003003a00d030ef0060002000ec
:1035c40070868800d010e2000f003a0072868000f6
:1035d400f0072000800f5100110036000a00370068
:1035e40082007800848f50000200360072868800c2
:1035f40005003700d02978000101e800850f50004c
:10360400f7ff3a0072868800d010ec0022032000f5
:10361400110009000280d80081868800000006009d
:10362400020041000328210080814100e03a21008a
:10363400900978000201e80072868800853b210029
:0c36440082007800f4072000e6ff370049
:020000040000fa
:10365000800c20009086880001322000a18688001e
:103660005230ef005430ef002100200071838800b9
:103670007310a90040838800803e2000608388008a
:10368000400120005083880080ff2f005821b600a1
:103690005021b6000821ef000621ef00c20a800089
:1036a000820060000100a000c10a88005001b6003d
:1036b0000000a000800a880080838000608288006b
:1036c00070828800208280000000e0000700320045
:1036d00081928000c488de000000ea006f00600074
:1036e0008088b900808288000200370080928000c4
:1036f0008082880060092000f08188007330a80073
:083700003ffa0700000006007b
:020000040000fa
:103708007410e2001800320012708000620161003b
:103718000201e9004f11de00218480000100a100b0
:103728008100710021848800b07080006100600011
:103738000000a200000040000110a100010070007c
:1037480020848800b1708000e48060008100e90076
:10375800cf08de00c208dd000020a1000080700054
:103768002084880011003700020ed500e1006000b7
:10377800208480000000a100008070002084880060
:10378800b1708000e1806000818040000010a100dd
:103798000080700020848800b1708000e4806000a0
:1037a8000020a10000807000208488002084800010
:0437b8000000060007
:020000040000fa
:1037bc000200e0000900340090017800818f510074
:1037cc0006003d000301410002087800828f500082
:1037dc000d003d00010878000b0037008041eb0024
:1037ec000200e0001d003d0010027800848f5000a4
:1037fc001a003d000401410002087800828f50003d
:10380c000100340001087800900078000100e0000d
:10381c0003003d008100ea007210a800010037008f
:10382c007210a9002060800002402000028140003c
:10383c00cf91de008000eb00809ab9000010b80038
:10384c00810042004509dd004b00de0000007100e4
:10385c00cb08de005060880013c0b3000340780032
:04386c000000060052
:020000040000fa
:10387000c850ec0067406000c8f0b700e14f50004e
:103880000600320003003900e24f500024003a00e5
:1038900022003700004ea80021003700ca70d40073
:1038a000107080004200de006100600051868000e0
:1038b0000100a1008100700051868800cad0bf00bd
:1038c000e14f400002003a00c610a8000300370094
:1038d0000004e00001003a00c610a9003086800014
:1038e00063006000e20f500002003a00c650a800da
:1038f00003003700e10f500001003a00c670a80035
:1039000030868000e1006000818040000010a1004e
:10391000008070003086880001003700004ea9004a
:04392000000006009d
:020000040000fa
:103924001000260000588800c000200010588800ad
:10393400062bef0000002100205888000a2bef001e
:10394400082bef000c2bef00710020007158880049
:103954000088a9002088a800102bef00122bef008c
:10396400162bef00a05888001a2bef00182bef003d
:103974001c2bef001e2bef0001c8a900202bef0029
:10398400222bef00262bef00205988002a2bef0072
:10399400282bef002c2bef002e2bef000308a9009f
:1039a400302bef00322bef00362bef00a0598800ac
:1039b4003a2bef00382bef003c2bef003e2bef00af
:0c39c4000488a90001eba8000000060028
:020000040000fa
:1039d0000400fa00889fbe008a9fbe008c1f7800fa
:1039e0000004be000205be0094bf9f00a5bf9f005b
:1039f00050052000a10a2000e2fb07000800be00dd
:103a00000ffc070000467800c10c21008c487800ac
:103a10001fba9700afba97000a01be000800be00a7
:103a200015fc07000c86fb00000666000c06ea0089
:103a30004f66de000c407800ccf0b700d6fb0700e4
:103a4000ccd0bf004f0678004f05be004f04be002b
:083a50000080fa0000000600ee
:020000040000fa
:103a580000002300203a88004827ef004e27ef0097
:103a680000042000303a88006027ef006227ef004a
:103a78006427ef006627ef006a27ef006c27ef0046
:103a88006e27ef0010002000a20920008107200007
:103a98003374200081497800824978008049780091
:103aa80072052000610420002374200081497800f9
:103ab80082497800804978004207ab00feff3a004f
:103ac80001022000123a800002806000fdff3200ef
:043ad80000000600e4
:020000040000fa
:103adc007310a900e081800001002400810f5000c8
:103aec00080036000000ea00212421001100b80073
:103afc004109dd004f00de0000007100cf08de0040
:103b0c000100370010928000218280000100e0004b
:103b1c00060032004400de008100ea00ef80600005
:103b2c008180b900608388000100370060838800c1
:103b3c00a0ff2f00508388005230ef005430ef006c
:103b4c0030002000708388000230ef000000060077
:020000040000fa
:103b5c0030c1b300c4e6b70000fc2f007206b600fb
:103b6c000000a0009033880080ff2f004608b600ac
:103b7c000000a00030428800f0ff28004408b60086
:103b8c0000c0a00020428800c0122100e0858800ff
:103b9c00b4d0a800c1122100218688000000eb00df
:103bac00cc000700200820004011880021e2a8006a
:103bbc002168a800402220006058880023a2a80099
:0c3bcc002342a8002062a80000000600b0
:020000040000fa
:103bd800f0f82f0032428000820060000105b30037
:103be8003142880002428000820060000160a0002b
:103bf8000142880092428000820060000160a000bb
:103c08009142880081ff2f0012428000828060006c
:103c18000100a000114288004208b6000060a00020
:103c280010428800f0ff2800624280008200600095
:103c380001c0a000614288004008b60000c0a00092
:083c48000042880000000600a4
:020000040000fa
:103c5000889fbe008a9fbe000004be0082057800d7
:103c600050052000a10a200046fb07000800be0006
:103c700073fb070000457800c00c21000a4878005b
:103c80000b0178000800be00c1fb07000a85fb009d
:103c9000000565000a05ea004f55de008a407800fd
:103ca000c00c2100014878003bfb0700ccd0bf00ce
:0c3cb0004f05be004f04be0000000600df
:020000040000fa
:103cbc00800078000100e00003003d008100ea0074
:103ccc007210a800010037007210a900206080005b
:103cdc00823e2000828f5000010034008200780068
:103cec000240200002814000cf91de008000eb00fa
:103cfc00809ab9000010b800810042004509dd002f
:103d0c004b00de0000007100cb08de005060880024
:043d1c00000006009d
:020000040000fa
:103d2000881f78001004e00005003a0011c0b300bd
:103d300001487800a0009000310098000f00370083
:103d40006602400094007800810178000001eb00d9
:103d50002003900001035300cfb3de001000900059
:103d60008000eb0080bcb9000030b8008100440046
:103d70000001410081814900030a78004f04780066
:043d80000000060039
:020000040000fa
:103d8400400620009086880000192000a086880044
:103d94005230ef005430ef00500020007083880050
:103da4007030ef004c30ef004e30ef007310a9007c
:103db400201c2000f08188007330a80080f32f00bd
:103dc4004083880080c12f0060838800a0ff2f00fb
:0c3dd4005083880089f8070000000600fa
:020000040000fa
:103de00000532700b08288005830ef000a30ef00ff
:103df0008083800060828800708288007210a80032
:103e0000201c2000f08188005230ef005430ef0079
:103e1000600020007083880080f32f0040838800ba
:103e200080c12f0060838800a0ff2f00508388008e
:0c3e30007330a80072f8070000000600c4
:020000040000fa
:103e3c00a3fd070005ff070064ff07000f01070043
:103e4c0099010700e7fc0700cc00070037010700c9
:103e5c004001070048010700690007005df40700f6
:103e6c001c010700acfe0700d200070091010700ff
:103e7c000d01070079010700000220005d01070019
:043e8c00000006002c
:020000040000fa
:103e90000081eb000104e0000f0032008002e80026
:103ea0008140e9008180fb0081824200f40f200004
:103eb000a3522800b080fb00810069004811de0099
:103ec0008480600081804000818041001101690090
:103ed000850f5000f7ff3a0002007800000006004e
:020000040000fa
:103ee000e10f50000900320005003900e20f5000d8
:103ef00009003200e30f50000c003a0009003700bf
:103f000021588800062bef0008003700a1588800d0
:103f1000162bef000500370021598800262bef00f3
:103f200002003700a1598800362bef000000060080
:020000040000fa
:103f30007310a9005230ef005430ef0070002000e1
:103f400070838800800c200040838800803e200021
:103f50006083880060002000508388007010f800a3
:103f60004e10f9007210a90060092000f08188004d
:0c3f70007330a80022f8070000000600d3
:020000040000fa
:103f7c00c0858000e30f50000d003400470107009e
:103f8c00a085800064006000118580000120a100e4
:103f9c008100700011858800a230a800a290a800b2
:103fac00a00e210060858800b810f800a610f9005a
:083fbc00b830ef000000060020
:020000040000fa
:103fc4000200e0000c003400820278000102780054
:103fd4008401780010439000865978009049780055
:103fe4000482e8000080e8008502e900f8ff3a0056
:103ff400020041008080400002004100a430b4006f
:08400400010078000000060035
:020000040000fa
:10400c004026280000198800002020001019880084
:10401c000020280020198800000022004019880088
:10402c002e23ef003023ef003223ef00100020008e
:10403c0030198800c07b21002301070021a8a800ab
:04404c00000006006a
:020000040000fa
:104050000230ef000032200090868800800c2000a3
:10406000a08688007310a9005230ef005430ef0092
:1040700040002000708388006830ef006c30ef0053
:104080006a30ef007330a900ddf70700000006007a
:020000040000fa
:10409000e10f50000800320005003900e20f500027
:1040a00007003200e30f500008003a000600370016
:1040b00001eba8000500370011eba8000300370052
:1040c00021eba8000100370031eba800000006003a
:020000040000fa
:1040d000e10f50000800320005003900e20f5000e7
:1040e00007003200e30f500008003a0006003700d6
:1040f00003eba8000500370013eba800030037000e
:1041000023eba8000100370033eba80000000600f5
:020000040000fa
:10411000308280004680de005010e3000a003d003f
:104120003e10e20008003a00400620009086880019
:10413000a08688007310a80070838000e20f5000f2
:0c41400001003a0065fe070000000600c8
:020000040000fa
:10414c000200e0000c0034008202780000027800cb
:10415c0084017800334378009640980093487800a7
:10416c000482e8008180e8008502e900f8ff3a004b
:0c417c00020141000200400000000600ab
:020000040000fa
:104188001421ef00006c2700d008880000002800e8
:10419800f0088800de10e20002003a00e0fb21008f
:1041a800ab0007000368a9002368a800e03b2100d2
:0841b8000048eb0000000600c6
:020000040000fa
:1041c0000021ef0010d82e00100888000000280001
:1041d00020088800e810e20002003a004035210083
:1041e000a50007000068a9002068a800203c210065
:0841f0000048eb00000006008e
:020000040000fa
:1041f80081f70700200a80004061ab00fdff3a000c
:10420800a084880072b0a8007230ab0002003a00a7
:104218007030ec00010037007030ed00000006003f
:020000040000fa
:1042280075f70700600a80004861ab00fdff3a009f
:10423800b084880072d0a8007230ab0002003a0047
:104248007030ec00010037007030ed00000006000f
:020000040000fa
:10425800b4f0ab0009003a00b4f0a80013c0b300f2
:10426800220c210003497800705888000000eb00f8
:1042780085ff07000000eb0093ff07000000060021
:020000040000fa
:1042880010402000400a880070002000500a880072
:1042980080007800400a800001006000d086880015
:0c42a80000a8a90020a8a8000000060043
:020000040000fa
:1042b40010402000800a8800d0102000900a880056
:1042c40071002000800a80000100600010878800cf
:0c42d40004a8a90024a8a800000006000f
:020000040000fa
:1042e00010402000000a880070002000100a88009a
:1042f00080007800000a80000100600020878800ac
:0c4300000028a9002028a80000000600ea
:020000040000fa
:10430c00a230ab0008003200a230a900a270a900b4
:10431c00bafa0700509c80000000e00002003a004e
:0c432c00fbfb07003bfa07000000060046
:020000040000fa
:104338000a21ef000080eb00700888000621ef00da
:10434800600888008001280080088800003c21005f
:084358000048eb000000060024
:020000040000fa
:1043600010402000c00a8800c0102000d00a880039
:1043700071002000c00a800001006000e086880013
:044380000000060033
:020000040000fa
:10438400802aef000009220020548800862aef00ca
:10439400882aef00800020005054880085eaa80095
:0443a400000006000f
:020000040000fa
:1043a80010002000708388006830ef006c30ef0048
:1043b8006a30ef007330a9000ff70700000006000d
:020000040000fa
:1043c8007230ab000200320060001000e08018007c
:0c43d800909d8800a19d88000000060058
:020000040000fa
:1043e400b4f0a900011020001211800002806000c6
:0c43f400fdff3200c270ef000000060068
:020000040000fa
:10440000210f2000220280008280600080807000e6
:084410002102880000000600f3
:020000040000fa
:1044180088fe070091f207000060fe00def7070043
:08442800b8ff0700fcff37009c
:020000040000fa
:10443000e03b21000048eb002368a8001fe1a80032
:044440000000060072
:020000040000fa
:10444400e038210080077800603a210000018800ec
:04445400000006005e
:020000040000fa
:104458002368a900f08688002368a80000000600e9
:020000040000fa
:10446800c3e8a800000000000000000000000600eb
:020000040000fa
:104478002068a900408788002068a800000006007e
:020000040000fa
:1044880000692f00d0088800b2fd07000000060070
:020000040000fa
:10449800cab0ef00c610a800c630a8000000060089
:020000040000fa
:0c44a8001fe1a9002368a9000000060025
:020000040000fa
:0c44b40000442800a0558800000006000d
:020000040000fa
:0c44c00000042c001054880000000600ce
:020000040000fa
:0844cc0000878800ffff3700a4
:020000040000fa
:0844d40030878800000006009b
:020000040000fa
:020000040001f9
:04570000ffffff00a8
:020000040000fa
:020000040001f9
:04572000ffff000087
:020000040000fa
:020000040001f9
:0457300078ff0000fe
:020000040000fa
:020000040001f9
:045738005bff000013
:020000040000fa
:020000040001f9
:04574000eaff00007c
:020000040000fa
:020000040001f9
:04574800ffff00005f
:020000040000fa
:020000040001f9
:04575000feff000058
:020000040000fa
:020000040001f9
:04575800000000004d
:020000040000fa
:020000040001f9
:045760000000000045
:020000040000fa
:020000040001f9
:04576800000000003d
:020000040000fa
:020000040001f9
:045770000000000035
:020000040000fa
:020000040001f9
:04577800feff000030
:020000040000fa
:020000040001f9
:04578000feff000028
:020000040000fa
:020000040001f9
:04578800ffff00001f
:00000001FF
