:020000040000fa
:080000000002040000000000f2
:020000040000fa
:040008004a030000a7
:020000040000fa
:04000c008403000069
:020000040000fa
:04001000d803000011
:020000040000fa
:04001400660300007f
:020000040000fa
:04001800a003000041
:020000040000fa
:04001c00bc03000021
:020000040000fa
:04002000f4030000e5
:020000040000fa
:040024001c050000b7
:020000040000fa
:040028001c050000b3
:020000040000fa
:04002c00600400006c
:020000040000fa
:040030001c050000ab
:020000040000fa
:04003400b204000012
:020000040000fa
:040038002804000098
:020000040000fa
:04003c0006030000b7
:020000040000fa
:040040001c0500009b
:020000040000fa
:040044001c05000097
:020000040000fa
:040048001c05000093
:020000040000fa
:04004c001c0500008f
:020000040000fa
:040050001c0500008b
:020000040000fa
:04005400d8040000cc
:020000040000fa
:040058001c05000083
:020000040000fa
:04005c007e0400001e
:020000040000fa
:040060001c0500007b
:020000040000fa
:040064001c05000077
:020000040000fa
:040068001c05000073
:020000040000fa
:04006c001c0500006f
:020000040000fa
:040070001c0500006b
:020000040000fa
:040074001c05000067
:020000040000fa
:040078001c05000063
:020000040000fa
:04007c001c0500005f
:020000040000fa
:040080001c0500005b
:020000040000fa
:040084001c05000057
:020000040000fa
:040088001c05000053
:020000040000fa
:04008c001c0500004f
:020000040000fa
:040090001c0500004b
:020000040000fa
:040094002403000041
:020000040000fa
:040098001c05000043
:020000040000fa
:04009c001c0500003f
:020000040000fa
:0400a0001c0500003b
:020000040000fa
:0400a4001c05000037
:020000040000fa
:0400a8001c05000033
:020000040000fa
:0400ac001c0500002f
:020000040000fa
:0400b0001c0500002b
:020000040000fa
:0400b4001c05000027
:020000040000fa
:0400b8001c05000023
:020000040000fa
:0400bc0042040000fa
:020000040000fa
:0400c0001c0500001b
:020000040000fa
:0400c4001c05000017
:020000040000fa
:0400c8001c05000013
:020000040000fa
:0400cc001c0500000f
:020000040000fa
:0400d0001c0500000b
:020000040000fa
:0400d4001c05000007
:020000040000fa
:0400d8001c05000003
:020000040000fa
:0400dc001c050000ff
:020000040000fa
:0400e0001c050000fb
:020000040000fa
:0400e4001c050000f7
:020000040000fa
:0400e8001c050000f3
:020000040000fa
:0400ec001c050000ef
:020000040000fa
:0400f0001c050000eb
:020000040000fa
:0400f4001c050000e7
:020000040000fa
:0400f8001c050000e3
:020000040000fa
:0400fc001c050000df
:020000040000fa
:040100001c050000da
:020000040000fa
:040104001c050000d6
:020000040000fa
:040108001c050000d2
:020000040000fa
:04010c001c050000ce
:020000040000fa
:040110001c050000ca
:020000040000fa
:040114001c050000c6
:020000040000fa
:040118001c050000c2
:020000040000fa
:04011c001c050000be
:020000040000fa
:040120001c050000ba
:020000040000fa
:040124001c050000b6
:020000040000fa
:040128001c050000b2
:020000040000fa
:04012c001c050000ae
:020000040000fa
:040130001c050000aa
:020000040000fa
:040134001c050000a6
:020000040000fa
:040138001c050000a2
:020000040000fa
:04013c001c0500009e
:020000040000fa
:040140001c0500009a
:020000040000fa
:040144001c05000096
:020000040000fa
:040148001c05000092
:020000040000fa
:04014c001c0500008e
:020000040000fa
:040150001c0500008a
:020000040000fa
:040154001c05000086
:020000040000fa
:040158001c05000082
:020000040000fa
:04015c001c0500007e
:020000040000fa
:040160001c0500007a
:020000040000fa
:040164001c05000076
:020000040000fa
:040168001c05000072
:020000040000fa
:04016c001c0500006e
:020000040000fa
:040170001c0500006a
:020000040000fa
:040174001c05000066
:020000040000fa
:040178001c05000062
:020000040000fa
:04017c001c0500005e
:020000040000fa
:040180001c0500005a
:020000040000fa
:040184001c05000056
:020000040000fa
:040188001c05000052
:020000040000fa
:04018c001c0500004e
:020000040000fa
:040190001c0500004a
:020000040000fa
:040194001c05000046
:020000040000fa
:040198001c05000042
:020000040000fa
:04019c001c0500003e
:020000040000fa
:0401a0001c0500003a
:020000040000fa
:0401a4001c05000036
:020000040000fa
:0401a8001c05000032
:020000040000fa
:0401ac001c0500002e
:020000040000fa
:0401b0001c0500002a
:020000040000fa
:0401b4001c05000026
:020000040000fa
:0401b8001c05000022
:020000040000fa
:0401bc001c0500001e
:020000040000fa
:0401c0001c0500001a
:020000040000fa
:0401c4001c05000016
:020000040000fa
:0401c8001c05000012
:020000040000fa
:0401cc001c0500000e
:020000040000fa
:0401d0001c0500000a
:020000040000fa
:0401d4001c05000006
:020000040000fa
:0401d8001c05000002
:020000040000fa
:0401dc001c050000fe
:020000040000fa
:0401e0001c050000fa
:020000040000fa
:0401e4001c050000f6
:020000040000fa
:0401e8001c050000f2
:020000040000fa
:0401ec001c050000ee
:020000040000fa
:0401f0001c050000ea
:020000040000fa
:0401f4001c050000e6
:020000040000fa
:0401f8001c050000e2
:020000040000fa
:0401fc001c050000de
:020000040000fa
:040200001c050000d9
:020000040000fa
:040204001c050000d5
:020000040000fa
:040208001c050000d1
:020000040000fa
:04020c001c050000cd
:020000040000fa
:040210001c050000c9
:020000040000fa
:040214001c050000c5
:020000040000fa
:040218001c050000c1
:020000040000fa
:04021c001c050000bd
:020000040000fa
:040220001c050000b9
:020000040000fa
:040224001c050000b5
:020000040000fa
:040228001c050000b1
:020000040000fa
:04022c001c050000ad
:020000040000fa
:040230001c050000a9
:020000040000fa
:040234001c050000a5
:020000040000fa
:040238001c050000a1
:020000040000fa
:04023c001c0500009d
:020000040000fa
:040240001c05000099
:020000040000fa
:040244001c05000095
:020000040000fa
:040248001c05000091
:020000040000fa
:04024c001c0500008d
:020000040000fa
:040250001c05000089
:020000040000fa
:040254001c05000085
:020000040000fa
:040258001c05000081
:020000040000fa
:04025c001c0500007d
:020000040000fa
:040260001c05000079
:020000040000fa
:040264001c05000075
:020000040000fa
:040268001c05000071
:020000040000fa
:04026c001c0500006d
:020000040000fa
:040270001c05000069
:020000040000fa
:040274001c05000065
:020000040000fa
:040278001c05000061
:020000040000fa
:04027c001c0500005d
:020000040000fa
:040280001c05000059
:020000040000fa
:040284001c05000055
:020000040000fa
:040288001c05000051
:020000040000fa
:04028c001c0500004d
:020000040000fa
:040290001c05000049
:020000040000fa
:040294001c05000045
:020000040000fa
:040298001c05000041
:020000040000fa
:04029c001c0500003d
:020000040000fa
:0402a0001c05000039
:020000040000fa
:0402a4001c05000035
:020000040000fa
:0402a8001c05000031
:020000040000fa
:0402ac001c0500002d
:020000040000fa
:0402b0001c05000029
:020000040000fa
:0402b4001c05000025
:020000040000fa
:0402b8001c05000021
:020000040000fa
:0402bc001c0500001d
:020000040000fa
:0402c0001c05000019
:020000040000fa
:0402c4001c05000015
:020000040000fa
:0402c8001c05000011
:020000040000fa
:0402cc001c0500000d
:020000040000fa
:0402d0001c05000009
:020000040000fa
:0402d4001c05000005
:020000040000fa
:0402d8001c05000001
:020000040000fa
:0402dc001c050000fd
:020000040000fa
:0402e0001c050000f9
:020000040000fa
:0402e4001c050000f5
:020000040000fa
:0402e8001c050000f1
:020000040000fa
:0402ec001c050000ed
:020000040000fa
:0402f0001c050000e9
:020000040000fa
:0402f4001c050000e5
:020000040000fa
:0402f8001c050000e1
:020000040000fa
:0402fc001c050000dd
:020000040000fa
:040300001c050000d8
:020000040000fa
:040304001c050000d4
:020000040000fa
:040308001c050000d0
:020000040000fa
:04030c001c050000cc
:020000040000fa
:040310001c050000c8
:020000040000fa
:100400002f3c21000eff21000e018800000000009b
:10041000000020000000e000020032000001200087
:100420002002880014000700850107000000e0009a
:1004300003003a00808d21000100200002003700f7
:100440000000200001002000810f70000100320038
:100450000f000700000020000000e0000200320052
:100460000000020000000000c421020000000000a3
:100470000040da000000fe00802020000000e000c4
:1004800002003200002020009001880000000600d9
:10049000a1028800800478000000eb001f003700f4
:1004a000e284440054a0b4009905ba00e2844400f8
:1004b00054a0b4009906ba00e284440054a0b400e9
:1004c0000006eb00476fde00fd07b200ae018800ba
:1004d000636ce10003003a000ad801000000eb0061
:1004e0000e003700606ce10008003a00004deb00a0
:1004f0000a05e800020039003420ec000af0a000f0
:100500008b05e900f9ff3e00040037006168e10057
:10051000010032000086eb000b00070019c7ba008b
:100520000e04e0001905ba0003003a000a00e000da
:10053000dbff3a0000000600fe07b200ae028800b2
:100540008a047800f5ff37000cd0a300e20f4d00bd
:100550001c003b0089027800354dba000a05e8000e
:10056000020039003420ec000af0a0008b05e900fd
:100570000f003200254dba000a05e80002003900dc
:100580003420ec000af0a0008b05e90008003200de
:100590000c00e0000600320015cdba000a05e800a4
:1005a000020039003420ec000af0a0008b05e900bd
:1005b0008984e80054a0b4000b00e000e2ff3a0098
:1005c000000006009902ba00055d78008b05e9007d
:1005d000f7ff3200c82ade00055d78008b05e900d0
:1005e000f3ff32000c00e000f1ff320019ddba0029
:1005f000eeff3700000000000000000000000000d7
:100600000000000000000000000000003600f800bc
:10061000809fbe00829fbe00849fbe00869fbe005a
:1006200000a8ab0002003200db0e070000a8a90002
:100630004f03be004f02be004f01be004f00be0080
:100640003600f900004006003600f800809fbe002a
:10065000829fbe00849fbe00869fbe00009d8000da
:100660000000e0000100320000000100a373ec0074
:1006700010c0b300a2f3b7000368a9004f03be0087
:100680004f02be004f01be004f00be003600f90011
:10069000004006003600f800809fbe00829fbe002a
:1006a000849fbe00869fbe00c028a9000000eb000a
:1006b000610f07004f03be004f02be004f01be0096
:1006c0004f00be003600f900004006003600f8007a
:1006d000809fbe00829fbe00849fbe00869fbe009a
:1006e0002f0f0700c048a90010002000520f07007c
:1006f0004f03be004f02be004f01be004f00be00c0
:100700003600f900004006003600f800809fbe0069
:10071000829fbe00849fbe00869fbe00c068a90065
:1007200020002000440f07004f03be004f02be0010
:100730004f01be004f00be003600f9000040060029
:100740003600f800809fbe00829fbe00849fbe00de
:10075000869fbe00c088a90030002000360f070029
:100760004f03be004f02be004f01be004f00be004f
:100770003600f900004006003600f800809fbe00f9
:10078000829fbe00849fbe00869fbe00c0a8a900b5
:1007900040002000280f07004f03be004f02be009c
:1007a0004f01be004f00be003600f90000400600b9
:1007b0003600f800809fbe00829fbe00849fbe006e
:1007c000869fbe00c608a900700020001a0f07000f
:1007d0004f03be004f02be004f01be004f00be00df
:1007e0003600f900004006003600f800809fbe0089
:1007f000829fbe00849fbe00869fbe00c508ab00de
:1008000003003200c508a900c00020000a0f07003d
:10081000c408e20003003d00c5e8a90080002000f4
:10082000050f0700c4a8ab0003003200c4a8a9004c
:1008300090002000000f0700c488ab0003003200c6
:10084000c488a900a0002000fb0e0700ffff3700ae
:100850003600f800809fbe00829fbe00849fbe00cd
:10086000869fbe00c10e07000088a9004f03be008e
:100870004f02be004f01be004f00be003600f9001f
:10088000004006003600f800809fbe00829fbe0038
:10089000849fbe00869fbe0004a8ab000200320009
:1008a000b70a070004a8a9004f03be004f02be000c
:1008b0004f01be004f00be003600f90000400600a8
:1008c0003600f800809fbe00829fbe00849fbe005d
:1008d000869fbe000028ab0002003200220e0700f7
:1008e0000028a9004f03be004f02be004f01be000a
:1008f0004f00be003600f900004006003600f80048
:10090000809fbe00829fbe00849fbe00869fbe0067
:100910003200f8003400f80010002000a001880028
:100920000020200000d0fe0001a8ab00050032002e
:10093000e09d80000000e0000100320000000100a6
:1009400001a8a9003400f9003200f9004f03be00ed
:100950004f02be004f01be004f00be003600f9003e
:10096000004006003600f800809fbe00829fbe0057
:10097000849fbe00869fbe00209d80000000e00096
:100980000100320000000100a773ec0010c0b300aa
:10099000a6f3b7000068a9004f03be004f02be00d7
:1009a0004f01be004f00be003600f90000400600b7
:1009b0003600f800809fbe00829fbe00849fbe006c
:1009c000869fbe001e01e200030035000250a90010
:1009d0007c0e07004630ef001421ef000368a900e9
:1009e0002222ab00010032002222a9003011800037
:1009f0000041780004f0b70030828000f10320004d
:100a0000810f500005003c00510021008080400013
:100a1000824878000000e800308288000168a90060
:100a20004f03be004f02be004f01be004f00be008c
:100a30003600f900004006000040da000000fe0029
:040a400000000500ad
:020000040000fa
:100a440000000000c1c0000081c10000400100009e
:100a540001c30000c00300008002000041c2000086
:100a640001c60000c00600008007000041c7000066
:100a740000050000c1c5000081c40000400400005e
:100a840001cc0000c00c0000800d000041cd00002e
:100a9400000f0000c1cf000081ce0000400e000016
:100aa400000a0000c1ca000081cb0000400b000016
:100ab40001c90000c00900008008000041c800000e
:100ac40001d80000c01800008019000041d90000be
:100ad400001b0000c1db000081da0000401a0000a6
:100ae400001e0000c1de000081df0000401f000086
:100af40001dd0000c01d0000801c000041dc00007e
:100b040000140000c1d4000081d50000401500008d
:100b140001d70000c01700008016000041d6000075
:100b240001d20000c01200008013000041d3000075
:100b340000110000c1d1000081d00000401000006d
:100b440001f00000c03000008031000041f10000dd
:100b540000330000c1f3000081f2000040320000c5
:100b640000360000c1f6000081f7000040370000a5
:100b740001f50000c03500008034000041f400009d
:100b8400003c0000c1fc000081fd0000403d00006d
:100b940001ff0000c03f0000803e000041fe000055
:100ba40001fa0000c03a0000803b000041fb000055
:100bb40000390000c1f9000081f80000403800004d
:100bc40000280000c1e8000081e90000402900007d
:100bd40001eb0000c02b0000802a000041ea000065
:100be40001ee0000c02e0000802f000041ef000045
:100bf400002d0000c1ed000081ec0000402c00003d
:100c040001e40000c02400008025000041e500004c
:100c140000270000c1e7000081e600004026000034
:100c240000220000c1e2000081e300004023000034
:100c340001e10000c02100008020000041e000002c
:100c440001a00000c06000008061000041a100001c
:100c540000630000c1a3000081a200004062000004
:100c640000660000c1a6000081a7000040670000e4
:100c740001a50000c06500008064000041a40000dc
:100c8400006c0000c1ac000081ad0000406d0000ac
:100c940001af0000c06f0000806e000041ae000094
:100ca40001aa0000c06a0000806b000041ab000094
:100cb40000690000c1a9000081a80000406800008c
:100cc40000780000c1b8000081b90000407900003c
:100cd40001bb0000c07b0000807a000041ba000024
:100ce40001be0000c07e0000807f000041bf000004
:100cf400007d0000c1bd000081bc0000407c0000fc
:100d040001b40000c07400008075000041b500000b
:100d140000770000c1b7000081b6000040760000f3
:100d240000720000c1b2000081b3000040730000f3
:100d340001b10000c07100008070000041b00000eb
:100d440000500000c190000081910000405100005b
:100d540001930000c0530000805200004192000043
:100d640001960000c0560000805700004197000023
:100d740000550000c195000081940000405400001b
:100d8400019c0000c05c0000805d0000419d0000eb
:100d9400005f0000c19f0000819e0000405e0000d3
:100da400005a0000c19a0000819b0000405b0000d3
:100db40001990000c05900008058000041980000cb
:100dc40001880000c04800008049000041890000fb
:100dd400004b0000c18b0000818a0000404a0000e3
:100de400004e0000c18e0000818f0000404f0000c3
:100df400018d0000c04d0000804c0000418c0000bb
:100e040000440000c18400008185000040450000ca
:100e140001870000c04700008046000041860000b2
:100e240001820000c04200008043000041830000b2
:100e340000410000c18100008180000040400000aa
:100e4400ff010000030200000500000004ff000091
:020000040000fa
:100e5400b872ef00e12b21009140780020968000c9
:100e6400e80b0700b09588000000e0005c003a0041
:100e74002096800030417800c12a21008248780001
:100e840020968800b0407800d32a21008149780058
:100e940020968800e4cf500016003200f0cf5000b6
:100ea40026003200e3cf50004b003a00b0407800f7
:100eb400f32a21008149780020968800b041780007
:100ec400e22a210003497800209688003041780006
:100ed400112b21008248780020968800b0407800c9
:100ee400032b21008149780020968800b912a800bc
:100ef4003b003700b0417800f22a21000349780012
:100f04002096880030417800e12a21008248780048
:100f140020968800b0407800132b21008149780086
:100f240020968800b0417800022b21000349780004
:100f340020968800b912a8002900370030417800b3
:100f4400f12a21008248780020968800b040780079
:100f5400e32a21008149780020968800b041780076
:100f6400122b210003497800209688003041780034
:100f7400012b21008248780020968800b040780038
:100f8400232b21008149780020968800719d8000e0
:100f9400729580008100510011968800050033008d
:100fa400829580000282400003022000830f5200d9
:100fb4000300360020c0b300b8f2b70004003700c5
:100fc4008180400083162100838040003c0c070090
:100fd400b912a8000200370010c0b300b8f2b7007d
:040fe4000000060003
:020000040000fa
:100fe800210f200022028000828060008080700033
:080ff800210288000000060040
:020000040000fa
:1010000058020000be0000000400000003000000c1
:1010100010270000e8030000204e000084030000b9
:10102000f0000000000000000000000000000000d0
:1010300000000000000000000000000000000000b0
:1010400000000000000000000000000000000000a0
:101050000000000000000000000000000000000090
:101060000000000000000000000000000000000080
:020000040000fa
:020000040000fa
:1020000073050700e09a8800d19a8000c29a800088
:102010000100e800b4aa2a000402b800422ade0047
:10202000e622b90004005000820f500002003a007e
:102030003c33a900100037000201e800b4aa2a00ce
:102040000412b8004228de00e600b9000001510089
:10205000828f500002003a003c33a800060037008f
:10206000e0998000e1006000818040000010a10044
:1020700000807000e09988005813f8005a13f900a6
:10208000207228005c13b4001000fb00c09a880086
:10209000220cf8005013f900420cf8005213f9001a
:1020a000620cf8005413f900e10f400002003a00fe
:1020b0004c13a800b90037003d33ab00b300320029
:1020c000e299800061016100e311b9000000410064
:1020d000b2aa2a000201b8004219de00e611b900d6
:1020e00002005000e20f50003e00320005003e00aa
:1020f0000000e00009003200e10f50009c003a00af
:102100001f003700e40f5000680032004e00390015
:10211000e50f500096003a007d0037005113a900ea
:102120005133a9005193a90051b3a9005053a900fc
:102130005073a8005093a90050b3a8005313a900ee
:102140005333a9005393a80053b3a8005253a800d7
:102150005273a9005293a80052b3a9005513a800c6
:102160005533a8005593a90055b3a9005453a900ad
:102170005473a8005493a90054b3a8007c003700fe
:102180005113a9005133a9005193a90051b3a900db
:102190005053a9005073a8005093a90050b3a80051
:1021a0005313a8005333a8005393a90053b3a900b5
:1021b0005253a9005273a8005293a90052b3a80029
:1021c0005513a9005533a9005593a80055b3a8008d
:1021d0005453a8005473a9005493a80054b3a90001
:1021e000630037005113a8005133a8005193a90090
:1021f00051b3a9005053a9005073a8005093a900ef
:1022000050b3a8005313a9005333a9005393a90056
:1022100053b3a9005253a9005273a8005293a900c6
:1022200052b3a8005513a9005533a9005593a8002f
:1022300055b3a8005453a8005473a9005493a800a0
:1022400054b3a9004a0037005113a9005133a90023
:102250005193a80051b3a8005053a8005073a9008f
:102260005093a80050b3a9005313a9005333a900f9
:102270005393a90053b3a9005253a9005273a80065
:102280005293a90052b3a8005513a8005533a800d3
:102290005593a90055b3a9005453a9005473a8003d
:1022a0005493a90054b3a800310037005113a9007a
:1022b0005133a9005193a80051b3a8005053a8006e
:1022c0005073a9005093a80050b3a9005313a8005d
:1022d0005333a8005393a90053b3a9005253a90044
:1022e0005273a8005293a90052b3a8005513a90035
:1022f0005533a9005593a90055b3a9005453a9001b
:102300005473a8005493a90054b3a80018003700d0
:102310005113a8005133a8005193a90051b3a9004b
:102320005053a9005073a8005093a90050b3a800bf
:102330005313a9005333a9005393a80053b3a80023
:102340005253a8005273a9005293a80052b3a90097
:102350005513a9005533a9005593a90055b3a900f9
:102360005453a9005473a8005493a90054b3a8006f
:102370005013f800220cf9005213f800420cf90037
:102380005413f800620cf90004003700007a2c00a6
:102390001061880010628800106388000000060049
:020000040000fa
:1023a000c09980000000e00008003a00ca12e20074
:1023b00035003a00a0002000409d8800e03d20004c
:1023c000509d8800da0707002f003700a19c80008d
:1023d0000128a300160032009453a9006c31ab0011
:1023e00029003a00e50f50000b00320003003c00ca
:1023f000e10f500024003a0005003700e60f5000be
:1024000007003200e70f50001f003a0006003700b7
:10241000410407001c0037003f0407001a00370082
:102420003d040700180037003b0407001600370082
:102430000138a300140032009473a9006c31ab0082
:1024400011003a00e30f50000b003200e40f50007f
:1024500004003200e20f50000b003a00270607008c
:1024600009003700d432ec002406070010c0b30086
:1024700030f3b70004003700d432ec001f06070029
:1024800010c0b30030f3b700c0998000e40f5000d3
:102490001d00320006003c00e20f50000a0032002e
:1024a00014003c00e10f500072003a003500370084
:1024b000e60f50004900320019003500e70f5000c8
:1024c0006c003a005d0037003d13ab0002003200a3
:1024d0006005070068003700b09880003a13b50027
:1024e0007211e30064003d004d13a800b60607001a
:1024f00061003700609680006e11e3005e003100dd
:10250000b10607005c003700709680007011e30090
:1025100059003100ce32ef004e050700560037005b
:102520003d13ab00070032003d13a900401f2000ff
:10253000409d8800509d88004d53a8007c070700ef
:102540004d003700b1988000d09980008100500084
:102550006811ee00808f500047003d006c31ab00e9
:102560000200320010c0b30030f3b700800c20002e
:10257000409d880000322000509d88006c070700b5
:102580003d0037003d13ab00010032003d13a900b0
:102590006c11ab0038003200009980001199800066
:1025a000e00f5000e08f580003003200a09680003a
:1025b0007411e30030003e00f0ff2f00f100200016
:1025c000429a8000539a8000800f5100818f5900f9
:1025d00029003600e005070027003700b198800089
:1025e000d0998000810050007611ee00808f50005d
:1025f000020035003d13ab001f0032003d33ab003d
:10260000050032003d33a9003d13ab001a00320033
:102610007bfe070018003700f0ff2f00f1002000bc
:10262000429a8000539a8000800f5100818f590098
:10263000110036001c0607000f0037003d13ab00e9
:10264000030032003d13a900ac0507000a00370063
:10265000b09880003a13b5000700330040382000de
:10266000409d880040062000509d880030070700ec
:0c267000010037003d13a9000000060027
:020000040000fa
:10267c00509680000000e000020032000000e900eb
:10268c0050968800409880000000e0000200320064
:10269c000000e900409888000a13ec00509888006c
:1026ac00044eab0005003200aa13e30007003e0005
:1026bc000a33ef00044ea90004003700a813e3000e
:1026cc0002003e000a33ef00044ea8001704070076
:1026dc00d612ec00f03fb200b09688002a003a0007
:1026ec00c0998000e30f500002003a00cc32ec009d
:1026fc001c003700e40f50000a003a006c31ab00ac
:10270c0006003200709680006e11e3000300310069
:10271c00ce32ef007605070012003700ce32ec0007
:10272c0010003700e10f50000e003a006c31ab0086
:10273c000b00320071968000708b8000000040000e
:10274c00810f500003003100ce32ef006f03070001
:10275c00040037008100e800719688000100370002
:10276c00ce32ef000099800011998000e00f5000ec
:10277c00e08f58000400320061015000e0815800e5
:10278c0002998800139988003cb3ab000100320019
:10279c003cb3a9003cd3ab00010032003cd3a900f0
:1027ac003cf3ab00220032003cf3a90024a8a900a2
:1027bc00409a8000519a8000409788005197880079
:1027cc00409a8000519a8000de06070024a8a800d9
:1027dc003d33ab00150032004097800051978000cc
:1027ec00429a8000539a8000000051008180590069
:1027fc0002c42900820f5000e08f58000b003400f7
:10280c00c09880003a13b50000f0a7000000ea0061
:10281c00f70f500005003400800c2000409d88000c
:10282c00509d88004d33a8003d13a80024a8a80093
:10283c00d09980001413e3002c003a00e09880003b
:10284c00f198800033062000830f5000e08f580071
:10285c000a003600c0998000e20f500006003200da
:10286c00e50f500004003200e60f50000200320069
:10287c00e70f500001003a004c53a800e09880008c
:10288c00f198800042062000820f5000e08f580023
:10289c000d003a0053062000e39888001e33ef0029
:1028ac00409a8000519a8000409788005197880088
:1028bc00f0ff2f00f1ff2700409a8800519a880002
:1028cc00a00607000c00370032062000820f5000d3
:1028dc00e08f580008003e0061014000e081480094
:1028ec00e2988800f3988800030037001c33ef004f
:1028fc001e33ef00509c8800a2998000b199800093
:10290c00203321005c0307003a13f8001413f9007c
:10291c00e08b8000f18b80006097880071978800b5
:10292c00ec12f800a811f900ee12f800aa11f90047
:08293c00ab03070000000600d8
:020000040000fa
:102944000000fe00e23b2100001978000109780034
:10295400000006000000fe000000eb008000eb0019
:10296400f8ff07002e27ef00000006000000fe001d
:102974000000fe00801f7800811f7800821f78000d
:10298400e13b210012468000c3e8a9003100780031
:1029940070398800110078007039880029e7a80090
:1029a400000000000000000029e7af00feff370030
:1029b40002f0a700c3e8a8004f017800cf00780018
:1029c4004f007800000006000000fe00a202800014
:1029d400a10288009080ba001000ba00a202880008
:1029e400000006000000fe00a2028000a102880090
:1029f4001000ba00a2028800000006000000fe00d9
:102a0400f23f20000001610008003a003200240077
:102a1400423988005039880061398800bc140200aa
:102a2400000000001000200029a7af0000002000d3
:102a3400000006000000fe0029e7af00feff37009b
:102a44000000a700130037000010a7001100370092
:102a5400613988005039880010002400403988000a
:102a6400a0028000a10f2000a10288000100200024
:102a74008208bb008398bb008408bb008598bb0018
:102a8400bc14020000000000a00288001000200016
:102a940029a7af0000002000000006000000fe008f
:102aa40029e7af00feff37000000a700140037003d
:102ab4000010a700120037006139880050398800df
:102ac400a10280001000240040398800a00f2000db
:102ad400a0028800000020000208bb00f20f2000c2
:102ae4000298bb000308bb000298bb00bc140200a0
:102af40000000000a10288001000200029a7af00f8
:102b040000002000000006000000fe0029e7af00de
:102b1400feff3700f30720008081610009003a00be
:102b24005039880061398800200024004039880029
:102b340082398800bc14020000000000100020004c
:102b440029a7af0000002000000006000000fe00de
:102b540029e7af00feff3700f30720008081610002
:102b640015003a00503988006139880010002400ab
:102b740040398800a00f2000a00288000000200037
:102b840001042000f40f20003208bb000498bb00ad
:102b94003208bb000490bb00bc140200000000001b
:102ba4002aa7ec002aa7ec002100b100f6ff3a00a6
:102bb4001000200029a7af0000002000000006003c
:102bc400f23f2000000061000000060002c02f0058
:102bd40000006100f2ff2f00810061000000060088
:020000040000fa
:102be4005082800030968800bc32ef00c12a210058
:102bf4009140780001487800c612ec0030968800b5
:102c0400bc32ec00b852e2000d00320001c8b3003f
:102c1400d22a21001241780001484100c612ec007a
:102c240030968800bc32ec00812b21009140780062
:102c340001487800c632ec00bc32ec004b0037008f
:102c4400d12a210091407800014878003196800013
:102c54008100e80031968800bc32ec00add2bf00a0
:102c6400e44f500016003200f04f500026003200ae
:102c7400e34f50003b003a00809580000000400084
:102c8400b2f2b70080487800319680008100e800f5
:102c940031968800bc32ec00709d8000ae12b50005
:102ca40010968800000040008216210002004000b7
:102cb40082958000a0040700309688002b0037001e
:102cc4008095800000004000b2f2b7008048780090
:102cd400319680008100e80031968800bc32ec0017
:102ce400609d8000ae12b500109688000000400080
:102cf400821a210002004000829580008e040700a1
:102d04003096880019003700afd2bf0080487800a1
:102d1400c612ec0030968800bc32ec00e12a210097
:102d24009140780001487800c612ec003096880083
:102d3400bc32ec00112b210091407800014878004e
:102d4400c612ec0030968800bc32ec00012b210046
:102d54009140780001487800c632ec00bc32ec00a7
:102d64000200370010c0b300b8f2b700c12b210035
:102d74009140780050828000220407000096880069
:102d840030968000012c21009140780001487800a1
:102d9400c612ec0030968800bc32ec00112c2100e5
:102da4009140780001487800b932a800ba92ab008b
:102db40002003200e09580000205070000000600d2
:020000040000fa
:102dc400889fbe008a1f78008c9fbe008c05070078
:102dd400a000200050968800850507000080200090
:102de4000110200079ff070020998800319988009c
:102df40000c020000110200074ff070040998800e3
:102e04005199880050052000a10a2000cdfe07003a
:102e14006a1621006044b8000c0420000d00200054
:102e24002099800031998000080040008980480082
:102e3400edfe0700002d780062044400e0844c009d
:102e44008c0f54008d8f5c00f5ff3a00608b80007e
:102e54004200de0061006000f0998800c81721007c
:102e64004099800051998000d8fe0700008cbe0074
:102e7400040020000508200081816200040178001c
:102e8400e00f5100e08f59000400320002002000de
:102e940003f02f00021c700003947000429980001c
:102ea4005399800064004100e0804900c7fe070098
:102eb400008c8800118c8800000021009097880005
:102ec40000802000d097880000102000109888000f
:102ed40000f82f00b40ab6008007b300a05588009c
:102ee40003532700039988002233ef0000252c00a8
:102ef4004007b60000f0a7000000ea000000ea0066
:102f04004f00de004400dd00619a80000140a10012
:102f140081007000619a88004087a90041e7a900f8
:102f240040c7a90041c7a9004127a9004f06be0018
:0c2f34004f0578004f04be0000000600ae
:020000040000fa
:102f40000203f8000413f9000603f800f412f90074
:102f5000002f210050030700802f21004e0307009f
:102f6000003021004c03070030988000f1df26007c
:102f7000810f500001003e004cd3a800f17f2600d5
:102f8000810f500001003e004cf3a800c099800062
:102f9000e30f500007003c00e20f500027003d0007
:102fa0000000e00008003200e10f500021003a006c
:102fb00008003700e40f500019003200e70f5000fe
:102fc0001c003c001d003700f612f800d212f90078
:102fd0001a0037000000eb0016030700f612f80095
:102fe000d212f9003053e200140032003073ef00c7
:102ff000c01721001400200005002000300142000d
:10300000a0814a000288be00048c8000158c8000dc
:1030100040998000519980004b020700070037005b
:103020000000eb0003030700f612f800d212f900cb
:10303000020037000000eb00fe02070090968000bf
:10304000f612b500809888000f0407008098800071
:103050004680de00409c8800309880004600de00fc
:10306000809c8800c1998000cc08dd00f0ff200022
:103070004c13b60000807000609a8800909c880015
:043080000000060046
:020000040000fa
:10308400022cef000077210020608800003020002f
:103094003060880000802000506088001a2cef0007
:1030a4001e2cef00001820000061880000628800d8
:1030b40000638800837a2c00e2c1200010322400cf
:1030c400d1bc2a0024c2200001097800000978003c
:1030d400030a780024c4200001097800000978005c
:1030e400030a780024c6200001097800000978004a
:1030f400030a78001304220044c220000109780066
:1031040000097800030a780044c42000010978000b
:1031140000097800030a780044c6200001097800f9
:1031240000097800030a7800262cef00462cef00f3
:10313400662cef00282cef00482cef00682cef00e1
:103144002a2cef004a2cef006a2cef002c2cef0005
:103154004c2cef006c2cef00322cef00522cef00c3
:10316400722cef00342cef00542cef00742cef0081
:10317400382cef00582cef00782cef003a2cef009d
:103184005a2cef007a2cef003c2cef005c2cef0063
:103194007c2cef003e2cef005e2cef007e2cef0029
:0c31a40070002800006088000000060099
:020000040000fa
:1031b000be1300000400000082000000ffffff00bb
:1031c000ff000000b01300000200000080000000bb
:1031d000b21300000200000080000000a0130000f5
:1031e00004000000800000006813000020000000c0
:1031f00080000000b4130000020000008200000004
:10320000ffff0000b6130000020000008000000075
:10321000b81300000200000080000000ba13000094
:103220000200000080000000bc130000020000004b
:1032300080000000a41300000400000080000000d3
:10324000381300003000000080000000a8130000c8
:10325000040000008200000002005800020000008c
:10326000ca1200006e00000080000000ac130000d5
:103270000400000082000000307540009c00000047
:1032800068110000620100008000000000100000d2
:103290006801000080000000881300001800000092
:0832a0008000000000000000a6
:020000040000fa
:1032a800add2bf00e44f500031003200f04f500063
:1032b80030003a004099800051998000c2fd070013
:1032c8006099880071998800040020000508200092
:1032d8008181620004017800e00f5100e08f5900fd
:1032e800060032000200200003f02f0002007000e8
:1032f800838070006099880071998800e28b800053
:10330800f38b80006099800071998000800f5100d4
:10331800818f590006003200048c8000158c8000d3
:1033280040998000519980008501070011003700fd
:10333800709d800070004000ae12e30003003a0068
:103348008811f8000e13f9000a00370082162100d0
:10335800209980003199800019020700608b800055
:103368004200de0061006000f0998800010037002b
:083378004c33ef0000000600d9
:020000040000fa
:103380001ffb0700229a8000339a8000029a88006f
:10339000139a88005401f8004413f9005061ab00ff
:1033a00004003200a00a80005061ab00fdff3a002b
:1033b000209b88005c01f8004613f9005861ab00bf
:1033c00004003200e00a80005861ab00fdff3a00c3
:1033d000309b88003cf3a8003c33ab0002003a006d
:1033e0003a33ec00010037003a33ed00209a8000b8
:1033f000319a80000201500083815800429a88006f
:10340000539a8800e0998000c300de00e1c06000ac
:103410000000d1006140600080cf500005003a00fc
:10342000f0762100800f5100e08f590001003e002e
:103430004c33a800e0998000c200dd00e880600005
:103440000030a10000807000e099880000000600b4
:020000040000fa
:10345000c00020002070880000012000c07088009b
:10346000e101200001708800f13f2000a170880078
:103470000c2eef00202eef00e1002000517088009c
:1034800051002000f1708800410020003170880058
:103490001a2eef0070708800a0282000107188009c
:1034a000f20b2000103a800000016100600420004f
:1034b000710520002374200080497800814978003c
:1034c00082497800e4c2b300636a2000844978002e
:1034d00004c2b300f36a20008449780024c2b30018
:1034e000036b200084497800136b20008449780026
:1034f00014c1b300e36a200084497800123a8000c6
:103500000260a0002374200080497800814978007f
:0835100082497800000006006a
:020000040000fa
:10351800800c2000409d880001322000519d8800c9
:103528001c33ef001e33ef0021002000c1998800f2
:103538003d13a90090998800803e2000b09988002a
:1035480040012000a099880080ff2f005821b60074
:103558005021b6000821ef000621ef00c20a8000c2
:10356800820060000100a000c10a88005001b60076
:103578000000a000800a8800d0998000b0988800d8
:10358800c0988800709880000000e00007003200b2
:10359800c18b8000c488de000000ea006f00600074
:1035a8008088b900d0988800020037007811f800a8
:1035b8001a13f90060092000409888003d33a800dc
:0835c8008dfa07000000060067
:020000040000fa
:1035d0003e13e200180032001270800062016100a8
:1035e0000201e9004f11de00719a80000100a10084
:1035f00081007100719a8800b070800061006000e5
:103600000000a200000040000110a10001007000b5
:10361000709a8800b1708000e48060008100e90049
:10362000cf08de00c208dd000020a100008070008d
:10363000709a880011003700020ed500e10060008a
:10364000709a80000000a10000807000709a8800cd
:10365000b1708000e1806000818040000010a10016
:1036600000807000709a8800b1708000e480600073
:103670000020a10000807000709a8800709a80007d
:043680000000060040
:020000040000fa
:103684000200e0000900340090017800818f5100ad
:1036940006003d000301410002087800828f5000bb
:1036a4000d003d00010878000b0037008041eb005d
:1036b4000200e0001d003d0010027800848f5000dd
:1036c4001a003d000401410002087800828f500076
:1036d4000100340001087800900078000100e00047
:1036e40003003d008100ea003c13a80001003700fc
:1036f4003c13a900206080000240200002814000a9
:10370400cf91de008000eb00809ab9000010b80071
:10371400810042004509dd004b00de00000071001d
:10372400cb08de005060880013c0b300034078006b
:04373400000006008b
:020000040000fa
:103738009653ec006740600096f3b700e14f5000e5
:103748000600320003003900e24f500024003a001e
:1037580022003700004ea800210037009873d400db
:10376800107080004200de0061006000c19c800093
:103778000100a10081007000c19c880098d3bf009f
:10378800e14f400002003a009413a80003003700fc
:103798000004e00001003a009413a900a09c8000f6
:1037a80063006000e20f500002003a009453a80042
:1037b80003003700e10f500001003a009473a8009d
:1037c800a09c8000e1006000818040000010a10002
:1037d80000807000a09c880001003700004ea900fe
:0437e80000000600d7
:020000040000fa
:1037ec00b932ab0007003200b932a900add2bf002c
:1037fc00e44f500003003a009e33ef0060002000bd
:10380c00e09c88009e13e2000f003a00e29c8000ce
:10381c00f0072000800f5100110036000a0037001d
:10382c0082007800848f500002003600e29c8800f1
:10383c0005003700d02978000101e800850f500001
:10384c00f7ff3a00e29c88009e13ec002203200054
:10385c00110009000280d800f19c880000000600cd
:10386c0002004100831a210080814100409c8000ad
:10387c00800978000201e800e29c88008038210071
:10388c002539210082007800f4072000e5ff37007d
:020000040000fa
:10389c001000260000588800c00020001058880036
:1038ac00062bef0000002100205888000a2bef00a7
:1038bc00082bef000c2bef007100200071588800d2
:1038cc000088a9002088a800102bef00122bef0015
:1038dc00162bef00a05888001a2bef00182bef00c6
:1038ec001c2bef001e2bef0001c8a900202bef00b2
:1038fc00222bef00262bef00205988002a2bef00fb
:10390c00282bef002c2bef002e2bef000308a90027
:10391c00302bef00322bef00362bef00a059880034
:10392c003a2bef00382bef003c2bef003e2bef0037
:0c393c000488a90001eba80000000600b0
:020000040000fa
:103948000400fa00889fbe008a9fbe008c1f780082
:103958000004be000205be0094bf9f00a5bf9f00e3
:1039680050052000a10a2000f5fb07000800be0052
:1039780022fc070000467800a13921008c48780015
:103988001fba9700afba97000a01be000800be0030
:1039980028fc07000c86fb00000666000c06ea00ff
:1039a8004f66de000c4078009af3b700e9fb070089
:1039b8009ad3bf004f0678004f05be004f04be00e3
:0839c8000080fa000000060077
:020000040000fa
:1039d00000002300203a88004827ef004e27ef0020
:1039e00000042000303a88006027ef006227ef00d3
:1039f0006427ef006627ef006a27ef006c27ef00cf
:103a00006e27ef0010002000a2092000810720008f
:103a10003374200081497800824978008049780019
:103a20007205200061042000237420008149780081
:103a300082497800804978004207ab00feff3a00d7
:103a400001022000123a800002806000fdff320077
:043a5000000006006c
:020000040000fa
:103a54003d13a9003098800001002400810f50001c
:103a6400080036000000ea00518b80000100b80015
:103a74004109dd004f00de0000007100cf08de00c8
:103a840001003700508b8000719880000100e00035
:103a9400060032004400de008100ea00ef8060008e
:103aa4008180b900b099880001003700b09988007e
:103ab400a0ff2f00a09988001c33ef001e33ef00f5
:103ac40030002000c0998800cc32ef0000000600ce
:020000040000fa
:103ad40030c1b300c4e6b70000fc2f007206b60084
:103ae4000000a0009033880080ff2f004608b60035
:103af4000000a00030428800f0ff28004408b6000f
:103b040000c0a000204288002005210050828800c7
:103b140002d0a80021052100318b88000000eb00b1
:103b2400cc000700200820004011880021e2a800f2
:103b34002168a800402220006058880023a2a80021
:0c3b44002342a8002062a8000000060038
:020000040000fa
:103b5000f0f82f0032428000820060000105b300bf
:103b60003142880002428000820060000160a000b3
:103b70000142880092428000820060000160a00043
:103b80009142880081ff2f001242800082806000f5
:103b90000100a000114288004208b6000060a000a9
:103ba00010428800f0ff280062428000820060001e
:103bb00001c0a000614288004008b60000c0a0001b
:083bc00000428800000006002d
:020000040000fa
:103bc800889fbe008a9fbe000004be008205780060
:103bd80050052000a10a200059fb07000800be007c
:103be80086fb070000457800a03921000a487800c4
:103bf8000b0178000800be00d4fb07000a85fb0013
:103c0800000565000a05ea004f55de008a40780085
:103c1800a0392100014878004efb07009ad3bf0065
:0c3c28004f05be004f04be000000060067
:020000040000fa
:103c3400800078000100e00003003d008100ea00fc
:103c44003c13a800010037003c13a9002060800049
:103c5400823e2000828f50000100340082007800f0
:103c64000240200002814000cf91de008000eb0082
:103c7400809ab9000010b800810042004509dd00b7
:103c84004b00de0000007100cb08de0050608800ad
:043c94000000060026
:020000040000fa
:103c9800881f78001004e00005003a0011c0b30046
:103ca80001487800a0009000310098000f0037000c
:103cb8006602400094007800810178000001eb0062
:103cc8002003900001035300cfb3de0010009000e2
:103cd8008000eb0080bcb9000030b80081004400cf
:103ce8000001410081814900030a78004f047800ef
:043cf80000000600c2
:020000040000fa
:103cfc0040062000409d880000192000509d88003f
:103d0c001c33ef001e33ef0050002000c0998800d8
:103d1c003a33ef001633ef001833ef003d13a900d0
:103d2c00201c2000409888003d33a80080f32f0011
:103d3c009099880080c12f00b0998800a0ff2f00b7
:0c3d4c00a0998800abf8070000000600fa
:020000040000fa
:103d580000532700009988002233ef00d432ef0087
:103d6800d0998000b0988800c09888003c13a800bb
:103d7800201c2000409888001c33ef001e33ef0001
:103d880060002000c099880080f32f009099880077
:103d980080c12f00b0998800a0ff2f00a09988004b
:0c3da8003d33a80094f80700000006005e
:020000040000fa
:103db400a6fd070005ff070064ff07000d010700cb
:103dc40096010700aefc0700cc000700460107007f
:103dd400330107003b010700690007004b0107009e
:103de4001a010700acfe0700d10007008e0107008e
:103df4000b010700760107000002200079f4070098
:043e040000000600b4
:020000040000fa
:103e08000081eb000104e0000f0032008002e800ae
:103e18008140e9008180fb0081824200f40f20008c
:103e280023522800b080fb00810069004811de00a1
:103e38008480600081804000818041001101690018
:103e4800850f5000f7ff3a000200780000000600d6
:020000040000fa
:103e5800e10f50000900320005003900e20f500060
:103e680009003200e30f50000c003a000900370047
:103e780021588800062bef0008003700a158880059
:103e8800162bef000500370021598800262bef007c
:103e980002003700a1598800362bef000000060009
:020000040000fa
:103ea8003d13a9001c33ef001e33ef007000200003
:103eb800c0998800800c200090998800803e2000de
:103ec800b099880060002000a09988003a13f80093
:103ed8001813f9003c13a9006009200040988800d5
:0c3ee8003d33a80044f80700000006006d
:020000040000fa
:103ef40030828000e30f50000d00340044010700bd
:103f04001080800064006000d19580000120a10031
:103f140081007000d1958800ba32a800ba92a80036
:103f240050002100209688004610f800be12f900c7
:083f34004630ef00000006001a
:020000040000fa
:103f3c000200e0000c0034008202780001027800dc
:103f4c0084017800104390008659780090497800dd
:103f5c000482e8000080e8008502e900f8ff3a00de
:103f6c00020041008080400002004100bc32b400dd
:083f7c000100780000000600be
:020000040000fa
:103f8400402628000019880000202000101988000d
:103f94000020280020198800000022004019880011
:103fa4002e23ef003023ef003223ef001000200017
:103fb40030198800007a21002001070021a8a800f8
:043fc40000000600f3
:020000040000fa
:103fc800cc32ef0000322000409d8800800c200099
:103fd800509d88003d13a9001c33ef001e33ef00ed
:103fe80040002000c09988003233ef003633ef00dc
:103ff8003433ef003d33a900fff707000000060047
:020000040000fa
:10400800e10f50000800320005003900e20f5000af
:1040180007003200e30f500008003a00060037009e
:1040280001eba8000500370011eba80003003700da
:1040380021eba8000100370031eba80000000600c2
:020000040000fa
:10404800e10f50000800320005003900e20f50006f
:1040580007003200e30f500008003a00060037005e
:1040680003eba8000500370013eba8000300370096
:1040780023eba8000100370033eba800000006007e
:020000040000fa
:10408800809880004680de001a13e3000a003d0095
:104098000813e20008003a0040062000409d88000e
:1040a800509d88003d13a800c0998000e20f500081
:0c40b80001003a0065fe07000000060051
:020000040000fa
:1040c4000200e0000c003400820278000002780054
:1040d4008401780033437800964098009348780030
:1040e4000482e8008180e8008502e900f8ff3a00d4
:0c40f40002014100020040000000060034
:020000040000fa
:104100001421ef00006c2700d00888000000280070
:10411000f0088800a013e20002003a00a0f7210096
:10412000a40007000368a9002368a800a273ef0099
:044130000000060085
:020000040000fa
:104134000021ef0010d82e0010088800000028008d
:1041440020088800a413e20002003a00e0332100b2
:10415400a30007000068a9002068a800a673ef0068
:044164000000060051
:020000040000fa
:10416800a5f70700200a80004061ab00fdff3a0078
:10417800f09a88003cb3a8003c33ab0002003a0038
:104188003a33ec00010037003a33ed000000060036
:020000040000fa
:1041980099f70700600a80004861ab00fdff3a000c
:1041a800009b88003cd3a8003c33ab0002003a00d7
:1041b8003a33ec00010037003a33ed000000060006
:020000040000fa
:1041c80002f0ab0009003a0002f0a80013c0b300e7
:1041d8000205210003497800705888000000eb00b0
:1041e80087ff07000000eb0095ff070000000600ae
:020000040000fa
:1041f80010402000400a880070002000500a880003
:1042080080007800400a800001006000809d8800de
:0c42180000a8a90020a8a80000000600d3
:020000040000fa
:1042240010402000800a8800d0102000900a8800e6
:1042340071002000800a800001006000c09d880099
:0c42440004a8a90024a8a800000006009f
:020000040000fa
:1042500010402000000a880070002000100a88002a
:1042600080007800000a800001006000d09d880076
:0c4270000028a9002028a800000006007b
:020000040000fa
:10427c00ba32ab0007003200ba32a900ba72a900f8
:10428c00f1f20700b612e20002003a0003fc07004c
:08429c0051fa070000000600c2
:020000040000fa
:1042a40010402000c00a8800c0102000d00a8800f6
:1042b40071002000c00a800001006000909d880009
:0442c40000000600f0
:020000040000fa
:1042c800802aef000009220020548800862aef0087
:1042d800882aef00800020005054880085eaa80052
:0442e80000000600cc
:020000040000fa
:1042ec000a21ef000080eb00700888000621ef0027
:1042fc00600888008001280080088800b673ef00f1
:04430c0000000600a7
:020000040000fa
:10431000802aef000040200020558800a62aef00e8
:10432000a82aef00aa2aef00a5eaa80000000600cc
:020000040000fa
:1043300010002000c09988003233ef003633ef00c0
:104340003433ef003d33a9002df7070000000600cd
:020000040000fa
:104350003c33ab000200320060001000e080180027
:0c436000609c8800719c88000000060032
:020000040000fa
:10436c0002f0a900011020001211800002806000f0
:0c437c00fdff32005070ef000000060052
:020000040000fa
:104388008afe07008dfa07000060fe0002f80700a9
:08439800b8ff0700fcff37002d
:020000040000fa
:1043a0008036210080077800003821000001880055
:0443b0000000060003
:020000040000fa
:1043b4002368a900009d88002368a8000000060067
:020000040000fa
:1043c400a273ef002368a8001fe1a8000000060004
:020000040000fa
:1043d400c3e8a80000000000000000000000060080
:020000040000fa
:1043e4002068a900209d88002068a800000006001d
:020000040000fa
:1043f40000692f00d0088800b5fd07000000060002
:020000040000fa
:1044040098b3ef009413a8009433a80000000600aa
:020000040000fa
:0c4414001fe1a9002368a90000000600b9
:020000040000fa
:0c44200000442800a055880000000600a1
:020000040000fa
:0c442c0000042c00105488000000060062
:020000040000fa
:08443800a09d8800ffff370082
:020000040000fa
:08444000e09d88000000060069
:020000040000fa
:04af0000ffffff0050
:020000040000fa
:04af2000ffff00002f
:020000040000fa
:04af300078ff0000a6
:020000040000fa
:04af38005bff0000bb
:020000040000fa
:04af4000eaff000024
:020000040000fa
:04af4800ffff000007
:020000040000fa
:04af5000feff000000
:020000040000fa
:04af580000000000f5
:020000040000fa
:04af600000000000ed
:020000040000fa
:04af680000000000e5
:020000040000fa
:04af700000000000dd
:020000040000fa
:04af7800feff0000d8
:020000040000fa
:04af8000feff0000d0
:020000040000fa
:04af8800ffff0000c7
:00000001FF
