:020000040000fa
:08000000ec22040000000000e6
:020000040000fa
:1000080004220000082200000c2200001022000038
:1000180014220000182200001c2200000022000008
:100028002022000024220000282200002c220000a8
:100038003022000034220000382200003c22000058
:100048004022000044220000482200004c22000008
:100058005022000054220000582200005c220000b8
:100068006022000064220000682200006c22000068
:100078007022000000220000002200000022000080
:1000880074220000782200007c22000080220000f8
:1000980084220000882200008c22000090220000a8
:1000a80094220000982200009c220000a022000058
:1000b800a4220000a8220000ac22000000220000b8
:1000c80000220000002200000022000000220000a0
:1000d8000022000000220000002200000022000090
:1000e8000022000000220000002200000022000080
:1000f8000022000000220000002200000022000070
:1001080000220000b02200000022000000220000af
:10011800002200000022000000220000002200004f
:1001280000220000b4220000b822000000220000d3
:100138000022000000220000bc2200000022000073
:10014800002200000022000000220000002200001f
:1001580000220000c022000000220000002200004f
:1001680000220000002200000022000000220000ff
:1001780000220000002200000022000000220000ef
:1001880000220000002200000022000000220000df
:100198000022000000220000c4220000c822000043
:1001a800cc220000002200000022000000220000f3
:1001b80000220000002200000022000000220000af
:1001c800002200000022000000220000002200009f
:1001d800002200000022000000220000002200008f
:1001e800002200000022000000220000002200007f
:1001f800002200000022000000220000002200006f
:10020800002200000022000000220000002200005e
:10021800002200000022000000220000002200004e
:10022800002200000022000000220000002200003e
:10023800002200000022000000220000002200002e
:10024800002200000022000000220000002200001e
:100258000022000000220000d0220000002200003e
:1002680000220000002200000022000000220000fe
:1002780000220000002200000022000000220000ee
:1002880000220000002200000022000000220000de
:1002980000220000002200000022000000220000ce
:1002a80000220000002200000022000000220000be
:1002b80000220000002200000022000000220000ae
:1002c800002200000022000000220000002200009e
:1002d80000220000d42200000022000000220000ba
:1002e800002200000022000000220000002200007e
:1002f8000022000000220000d8220000dc220000ba
:10030800e0220000e4220000e822000000220000b1
:10031800002200000022000000220000002200004d
:10032800002200000022000000220000002200003d
:10033800002200000022000000220000002200002d
:10034800002200000022000000220000002200001d
:10035800002200000022000000220000002200000d
:1003680000220000002200000022000000220000fd
:1003780000220000002200000022000000220000ed
:1003880000220000002200000022000000220000dd
:1003980000220000002200000022000000220000cd
:1003a80000220000002200000022000000220000bd
:1003b80000220000002200000022000000220000ad
:1003c800002200000022000000220000002200009d
:1003d800002200000022000000220000002200008d
:1003e800002200000022000000220000002200007d
:0803f8000022000000220000b9
:020000040000fa
:10400000ec2204000000000000000000020000009c
:104010000000000002000000020000000400000098
:0c40200000000000000000000000000094
:020000040000fa
:10402c003c0d0700d0848800c1848000b2848000dd
:10403c000100e800b4aa2a000402b800422ade00fb
:10404c00e622b90004005000820f500002003a0032
:10405c007c30a900100037000201e800b4aa2a0045
:10406c000412b8004228de00e600b900000151003d
:10407c00828f500002003a007c30a8000600370006
:10408c00e0838000e1006000818040000010a1000e
:10409c0000807000e08388009610f8009810f900fa
:1040ac0080822a009a10b4001000fb00b0848800b3
:1040bc00220cf8008e10f900420cf8009010f90058
:1040cc00620cf8009210f900e10f400002003a0077
:1040dc008a10a800b00037007d30ab00aa00320077
:1040ec00e20f50003e00320005003e000000e000f0
:1040fc0009003200e10f50009c003a001f0037000d
:10410c00e40f5000680032004e003900e50f5000fb
:10411c0096003a007d0037008f10a9008f30a9005f
:10412c008f90a9008fb0a9008e50a9008e70a800a6
:10413c008e90a9008eb0a8009110a9009130a90012
:10414c009190a80091b0a8009050a8009070a90080
:10415c009090a80090b0a9009310a8009330a800ec
:10416c009390a90093b0a9009250a9009270a80056
:10417c009290a90092b0a8007c0037008f10a90083
:10418c008f30a9008f90a9008fb0a9008e50a90084
:10419c008e70a8008e90a9008eb0a8009110a80077
:1041ac009130a8009190a90091b0a9009050a9005d
:1041bc009070a8009090a90090b0a8009310a9004e
:1041cc009330a9009390a80093b0a8009250a80037
:1041dc009270a9009290a80092b0a90063003700d9
:1041ec008f10a8008f30a8008f90a9008fb0a90065
:1041fc008e50a9008e70a8008e90a9008eb0a800d9
:10420c009110a9009130a9009190a90091b0a9003a
:10421c009050a9009070a8009090a90090b0a800b0
:10422c009310a9009330a9009390a80093b0a80014
:10423c009250a8009270a9009290a80092b0a90088
:10424c004a0037008f10a9008f30a9008f90a8006a
:10425c008fb0a8008e50a8008e70a9008e90a80078
:10426c008eb0a9009110a9009130a9009190a900dd
:10427c0091b0a9009050a9009070a8009090a9004e
:10428c0090b0a8009310a8009330a8009390a900b8
:10429c0093b0a9009250a9009270a8009290a90026
:1042ac0092b0a800310037008f10a9008f30a90000
:1042bc008f90a8008fb0a8008e50a8008e70a90017
:1042cc008e90a8008eb0a9009110a8009130a80083
:1042dc009190a90091b0a9009050a9009070a800ed
:1042ec009090a90090b0a8009310a9009330a90059
:1042fc009390a90093b0a9009250a9009270a800c5
:10430c009290a90092b0a800180037008f10a80056
:10431c008f30a8008f90a9008fb0a9008e50a900f3
:10432c008e70a8008e90a9008eb0a8009110a900e4
:10433c009130a9009190a80091b0a8009050a800cd
:10434c009070a9009090a80090b0a9009310a900bb
:10435c009330a9009390a90093b0a9009250a900a2
:10436c009270a8009290a90092b0a8008e10f8004c
:10437c00220cf9009010f800420cf9009210f80091
:10438c00620cf90004003700007a2c0010618800e0
:0c439c001062880010638800000006001a
:020000040000fa
:1043a8009d0b07004e0d07006e0d0700fa0e070063
:1043b800ce0f0700c00a0700db0e07002d0f07000d
:1043c800540f07005c0f0700370e07007e0f070029
:1043d800070f0700e20e0700c70f0700a80c070029
:1043e800f80e0700aa0f070000022000940f07002c
:0443f80000000600bb
:020000040000fa
:08440000222604000000000068
:020000040000fa
:084408003a240400000000004a
:020000040000fa
:08441000742404000000000008
:020000040000fa
:08441800c824040000000000ac
:020000040000fa
:08442000562404000000000016
:020000040000fa
:084428009024040000000000d4
:020000040000fa
:08443000ac24040000000000b0
:020000040000fa
:08443800e42404000000000070
:020000040000fa
:0844400000220400000000004e
:020000040000fa
:084448005025040000000000f3
:020000040000fa
:0844500000220400000000003e
:020000040000fa
:08445800a22504000000000091
:020000040000fa
:08446000182504000000000013
:020000040000fa
:08446800f22304000000000033
:020000040000fa
:0844700000220400000000001e
:020000040000fa
:08447800002204000000000016
:020000040000fa
:0844800000220400000000000e
:020000040000fa
:08448800002204000000000006
:020000040000fa
:084490000022040000000000fe
:020000040000fa
:08449800cc2504000000000027
:020000040000fa
:0844a0000022040000000000ee
:020000040000fa
:0844a8006e2504000000000075
:020000040000fa
:0844b0000022040000000000de
:020000040000fa
:0844b8000022040000000000d6
:020000040000fa
:0844c0000022040000000000ce
:020000040000fa
:0844c8000022040000000000c6
:020000040000fa
:0844d0000022040000000000be
:020000040000fa
:0844d8000022040000000000b6
:020000040000fa
:0844e0000022040000000000ae
:020000040000fa
:0844e8000022040000000000a6
:020000040000fa
:0844f00000220400000000009e
:020000040000fa
:0844f800002204000000000096
:020000040000fa
:0845000010240400000000007b
:020000040000fa
:08450800002204000000000085
:020000040000fa
:0845100000220400000000007d
:020000040000fa
:08451800002204000000000075
:020000040000fa
:0845200000220400000000006d
:020000040000fa
:08452800002204000000000065
:020000040000fa
:0845300000220400000000005d
:020000040000fa
:08453800002204000000000055
:020000040000fa
:0845400000220400000000004d
:020000040000fa
:08454800002204000000000045
:020000040000fa
:08455000322504000000000008
:020000040000fa
:08455800002204000000000035
:020000040000fa
:0845600000220400000000002d
:020000040000fa
:08456800002204000000000025
:020000040000fa
:0845700000220400000000001d
:020000040000fa
:08457800002204000000000015
:020000040000fa
:0845800000220400000000000d
:020000040000fa
:08458800002204000000000005
:020000040000fa
:084590000022040000000000fd
:020000040000fa
:084598000022040000000000f5
:020000040000fa
:0845a0000022040000000000ed
:020000040000fa
:0845a8000022040000000000e5
:020000040000fa
:0845b0000022040000000000dd
:020000040000fa
:0845b8000022040000000000d5
:020000040000fa
:0845c0000022040000000000cd
:020000040000fa
:0845c8000022040000000000c5
:020000040000fa
:0845d0000022040000000000bd
:020000040000fa
:1045d8000f8021000eff22000e018800000000005d
:1045e800000020000000e00002003200000120006e
:1045f8002002880014000700920107000000e00074
:1046080003003a00606c230001002000020037001c
:104618000000200001002000810f7000010032001e
:104628000f000700000020000000e0000200320038
:1046380000000200000000007a3e020000000000b6
:104648000040da000000fe00802020000000e000aa
:1046580002003200002020009001880000000600bf
:10466800a1028800800478000000eb001f003700da
:10467800e284440054a0b4009905ba00e2844400de
:1046880054a0b4009906ba00e284440054a0b400cf
:104698000006eb00476fde00fd07b200ae018800a0
:1046a800636ce10003003a000ad801000000eb0047
:1046b8000e003700606ce10008003a00004deb0086
:1046c8000a05e800020039003420ec000af0a000d6
:1046d8008b05e900f9ff3e00040037006168e1003e
:1046e800010032000086eb000b00070019c7ba0072
:1046f8000e04e0001905ba0003003a000a00e000c1
:10470800dbff3a0000000600fe07b200ae02880098
:104718008a047800f5ff37000cd0a300e20f4d00a3
:104728001c003b0089027800354dba000a05e800f4
:10473800020039003420ec000af0a0008b05e900e3
:104748000f003200254dba000a05e80002003900c2
:104758003420ec000af0a0008b05e90008003200c4
:104768000c00e0000600320015cdba000a05e8008a
:10477800020039003420ec000af0a0008b05e900a3
:104788008984e80054a0b4000b00e000e2ff3a007e
:10479800000006009902ba00055d78008b05e90063
:1047a800f7ff3200c82ade00055d78008b05e900b6
:1047b800f3ff32000c00e000f1ff320019ddba000f
:1047c800eeff3700000000000000000000000000bd
:1047d8000000000000000000000000003600f800a3
:1047e800809fbe00829fbe00849fbe00869fbe0041
:1047f80000a8ab0002003200320e070000a8a90092
:104808004f03be004f02be004f01be004f00be0066
:104818003600f900004006003600f800809fbe0010
:10482800829fbe00849fbe00869fbe0030878000a6
:104838000000e0000100320000000100703c21008f
:104848001048e80011c0b300603c2100014878001e
:104858000368a9004f03be004f02be004f01be000f
:104868004f00be003600f900004006003600f80090
:10487800809fbe00829fbe00849fbe00869fbe00b0
:10488800c028a9000000eb009e0e07004f03be00e1
:104898004f02be004f01be004f00be003600f900b7
:1048a800004006003600f800809fbe00829fbe00d0
:1048b800849fbe00869fbe006c0e0700c048a900fa
:1048c800100020008f0e07004f03be004f02be00ed
:1048d8004f01be004f00be003600f9000040060040
:1048e8003600f800809fbe00829fbe00849fbe00f5
:1048f800869fbe00c068a90020002000810e070026
:104908004f03be004f02be004f01be004f00be0065
:104918003600f900004006003600f800809fbe000f
:10492800829fbe00849fbe00869fbe00c088a900eb
:1049380030002000730e07004f03be004f02be0078
:104948004f01be004f00be003600f90000400600cf
:104958003600f800809fbe00829fbe00849fbe0084
:10496800869fbe00c0a8a90040002000650e070071
:104978004f03be004f02be004f01be004f00be00f5
:104988003600f900004006003600f800809fbe009f
:10499800829fbe00849fbe00869fbe00c608a900f5
:1049a80070002000570e07004f03be004f02be00e4
:1049b8004f01be004f00be003600f900004006005f
:1049c8003600f800809fbe00829fbe00849fbe0014
:1049d800869fbe00c508ab0003003200c508a900c9
:1049e800c0002000470e0700c408e20003003d0095
:1049f800c5e8a90080002000420e0700c4a8ab004b
:104a080003003200c4a8a900900020003d0e070052
:104a1800c488ab0003003200c488a900a0002000ad
:104a2800380e0700ffff37003600f800809fbe00f1
:104a3800829fbe00849fbe00869fbe00820d070035
:104a48000088a9004f03be004f02be004f01be0000
:104a58004f00be003600f900004006003600f8009e
:104a6800809fbe00829fbe00849fbe00869fbe00be
:104a780004a8ab0002003200190a070004a8a90024
:104a88004f03be004f02be004f01be004f00be00e4
:104a98003600f900004006003600f800809fbe008e
:104aa800829fbe00849fbe00869fbe000028ab0088
:104ab80002003200790d07000028a9004f03be004c
:104ac8004f02be004f01be004f00be003600f90085
:104ad800004006003600f800809fbe00829fbe009e
:104ae800849fbe00869fbe003200f8003400f800a4
:104af80010002000a00188000020200000d0fe0047
:104b080001a8ab0005003200708780000000e000bb
:104b1800010032000000010001a8a9003400f900da
:104b28003200f9004f03be004f02be004f01be0025
:104b38004f00be003600f900004006003600f800bd
:104b4800809fbe00829fbe00849fbe00869fbe00dd
:104b5800808780000000e0000100320000000100b2
:104b6800b03c21001048e80011c0b300a03c21006f
:104b7800014878000068a9004f03be004f02be003c
:104b88004f01be004f00be003600f900004006008d
:104b98003600f800809fbe00829fbe00849fbe0042
:104ba800869fbe001e01e20003003500bc50a9002c
:104bb800a90d0700c030ef001421ef000368a90019
:104bc800e20b21001241780001868000038020005a
:104bd800f4032000250f2100080037000168a90010
:104be8003011800000417800848f500003003c00a1
:104bf80001804200024878008100e80006408000f9
:104c080006806100f5ff3a0082417800e00b210040
:104c180003487800018688002222ab000100320098
:104c28002222a9004f03be004f02be004f01be0062
:104c38004f00be003600f900004006000040da00d0
:084c48000000fe000000050061
:020000040000fa
:104c500000000000c1c0000081c100004001000050
:104c600001c30000c00300008002000041c2000038
:104c700001c60000c00600008007000041c7000018
:104c800000050000c1c5000081c400004004000010
:104c900001cc0000c00c0000800d000041cd0000e0
:104ca000000f0000c1cf000081ce0000400e0000c8
:104cb000000a0000c1ca000081cb0000400b0000c8
:104cc00001c90000c00900008008000041c80000c0
:104cd00001d80000c01800008019000041d9000070
:104ce000001b0000c1db000081da0000401a000058
:104cf000001e0000c1de000081df0000401f000038
:104d000001dd0000c01d0000801c000041dc00002f
:104d100000140000c1d4000081d50000401500003f
:104d200001d70000c01700008016000041d6000027
:104d300001d20000c01200008013000041d3000027
:104d400000110000c1d1000081d00000401000001f
:104d500001f00000c03000008031000041f100008f
:104d600000330000c1f3000081f200004032000077
:104d700000360000c1f6000081f700004037000057
:104d800001f50000c03500008034000041f400004f
:104d9000003c0000c1fc000081fd0000403d00001f
:104da00001ff0000c03f0000803e000041fe000007
:104db00001fa0000c03a0000803b000041fb000007
:104dc00000390000c1f9000081f8000040380000ff
:104dd00000280000c1e8000081e90000402900002f
:104de00001eb0000c02b0000802a000041ea000017
:104df00001ee0000c02e0000802f000041ef0000f7
:104e0000002d0000c1ed000081ec0000402c0000ee
:104e100001e40000c02400008025000041e50000fe
:104e200000270000c1e7000081e6000040260000e6
:104e300000220000c1e2000081e3000040230000e6
:104e400001e10000c02100008020000041e00000de
:104e500001a00000c06000008061000041a10000ce
:104e600000630000c1a3000081a2000040620000b6
:104e700000660000c1a6000081a700004067000096
:104e800001a50000c06500008064000041a400008e
:104e9000006c0000c1ac000081ad0000406d00005e
:104ea00001af0000c06f0000806e000041ae000046
:104eb00001aa0000c06a0000806b000041ab000046
:104ec00000690000c1a9000081a80000406800003e
:104ed00000780000c1b8000081b9000040790000ee
:104ee00001bb0000c07b0000807a000041ba0000d6
:104ef00001be0000c07e0000807f000041bf0000b6
:104f0000007d0000c1bd000081bc0000407c0000ad
:104f100001b40000c07400008075000041b50000bd
:104f200000770000c1b7000081b6000040760000a5
:104f300000720000c1b2000081b3000040730000a5
:104f400001b10000c07100008070000041b000009d
:104f500000500000c190000081910000405100000d
:104f600001930000c05300008052000041920000f5
:104f700001960000c05600008057000041970000d5
:104f800000550000c19500008194000040540000cd
:104f9000019c0000c05c0000805d0000419d00009d
:104fa000005f0000c19f0000819e0000405e000085
:104fb000005a0000c19a0000819b0000405b000085
:104fc00001990000c059000080580000419800007d
:104fd00001880000c04800008049000041890000ad
:104fe000004b0000c18b0000818a0000404a000095
:104ff000004e0000c18e0000818f0000404f000075
:10500000018d0000c04d0000804c0000418c00006c
:1050100000440000c184000081850000404500007c
:1050200001870000c0470000804600004186000064
:1050300001820000c0420000804300004183000064
:1050400000410000c181000081800000404000005c
:10505000ff010000030200000500000004ff000043
:020000040000fa
:10506000008080000000e000020032000000e90043
:1050700000808800308280000000e00002003200e2
:105080000000e900308288004810ec00408288006f
:10509000044eab0005003200dc10e30007003e00c8
:1050a0004830ef00044ea90004003700da10e30096
:1050b00002003e004830ef00044ea800c630ec006d
:1050c000440907006080800080007800f103b2008e
:1050d00003003a0013c0b300d20621000349780050
:1050e0000000e800f03fb2006080880025003a0030
:1050f000c0838000e30f500002003a000230ec0051
:1051000020003700e40f50000c003a00c0242100ba
:10511000100078006200600006003200709280008b
:105120000410e300030036000430ef007d0a07009e
:10513000140037000430ec0012003700e10f50007b
:1051400010003a00c02421001000780062006000c6
:105150000b0032002180800070928000000040002f
:10516000810f5000030031000430ef007109070087
:10517000040037008100e80021808800010037002a
:105180000430ef003084800041848000f2a72100c9
:1051900063002000820f5000838f580004003e00ff
:1051a0002028a80020a8a80024a8a8000c003700e8
:1051b000027c220093002000820f5000838f580051
:1051c000070036002028a90020a8a90024a8a900cb
:1051d00096fb0700e30b0700eb0b070072080700c4
:1051e0007cb0ab00010032007cb0a9007cd0ab00e9
:1051f000010032007cd0a9007cf0ab00220032001c
:105200007cf0a90024a8a90030848000418480009b
:10521000f080880001818800308480004184800013
:10522000020c070024a8a8007d30ab001500320056
:10523000f0808000018180003284800043848000ff
:10524000000051008180590002c42900820f5000e3
:10525000e08f58000b003400c08280007a10b50047
:1052600000f0a7000000ea00f70f5000050034002e
:10527000800c2000d0868800e08688008b30a80053
:105280007d10a80024a8a800d08380005410e3005b
:1052900028003a00e0828000f1828000330620007e
:1052a000830f5000e08f580006003600c083800056
:1052b000e20f500002003200e50f500001003a00fa
:1052c0008a50a800e0828000f1828000420620001f
:1052d000820f5000e08f58000d003a005306200066
:1052e000e38288005e30ef003084800041848000db
:1052f000f080880001818800f0ff2f00f1ff270077
:105300003084880041848800c80b07000c003700f7
:1053100032062000820f5000e08f580008003e0047
:1053200061014000e0814800e2828800f382880049
:10533000030037005c30ef005e30ef00c09d880056
:105340008283800091838000708380001c010700ad
:10535000708388001d0907007a10f8005410f900c6
:10536000d0928000e1928000108188002181880025
:10537000118180004194880022818000529488002d
:085380003808070000000600d8
:020000040000fa
:105388000000fe00223c2100001978000109780085
:10539800000006000000fe000000eb008000eb00ab
:1053a800f8ff07002e27ef00000006000000fe00af
:1053b8000000fe00801f7800811f7800821f78009f
:1053c800213c210012468000c3e8a9003100780082
:1053d80070398800110078007039880029e7a80022
:1053e800000000000000000029e7af00feff3700c2
:1053f80002f0a700c3e8a8004f017800cf007800aa
:105408004f007800000006000000fe00a2028000a5
:10541800a10288009080ba001000ba00a202880099
:10542800000006000000fe00a2028000a102880021
:105438001000ba00a2028800000006000000fe006a
:10544800f23f20000001610008003a003200240009
:10545800423988005039880061398800de29020005
:10546800000000001000200029a7af000000200065
:10547800000006000000fe0029e7af00feff37002d
:105488000000a700130037000010a7001100370024
:10549800613988005039880010002400403988009c
:1054a800a0028000a10f2000a102880001002000b6
:1054b8008208bb008398bb008408bb008598bb00aa
:1054c800de29020000000000a00288001000200071
:1054d80029a7af0000002000000006000000fe0021
:1054e80029e7af00feff37000000a70014003700cf
:1054f8000010a70012003700613988005039880071
:10550800a10280001000240040398800a00f20006c
:10551800a0028800000020000208bb00f20f200053
:105528000298bb000308bb000298bb00de290200fa
:1055380000000000a10288001000200029a7af0089
:1055480000002000000006000000fe0029e7af0070
:10555800feff3700f30720008081610009003a0050
:1055680050398800613988002000240040398800bb
:1055780082398800de2902000000000010002000a7
:1055880029a7af0000002000000006000000fe0070
:1055980029e7af00feff3700f30720008081610094
:1055a80015003a005039880061398800100024003d
:1055b80040398800a00f2000a002880000002000c9
:1055c80001042000f40f20003208bb000498bb003f
:1055d8003208bb000490bb00de2902000000000076
:1055e8002aa7ec002aa7ec002100b100f6ff3a0038
:1055f8001000200029a7af000000200000000600ce
:10560800f23f2000000061000000060002c02f00e9
:1056180000006100f2ff2f00810061000000060019
:020000040000fa
:10562800889fbe008a1f78008c9fbe00280b070049
:10563800a0002000008088001d0b070000c0220089
:1056480001102000f1ff0700008388001183880003
:105658000000230001102000ecff070020838800d1
:105668003183880050052000a10a200045ff07006b
:105678006a2421006044b8000c0420000d002000ba
:105688000083800011838000080040008980480062
:1056980065ff0700002d780062044400e0844c0098
:1056a8008c0f54008d8f5c00f5ff3a0060928000eb
:1056b8004201de00610161004a11dd00e1838000e2
:1056c80001a0a100810071004300de0061006000bc
:1056d8004b00dd0001b0a10081007000e18388006b
:1056e800a8252100208380003183800047ff070020
:1056f800008cbe00040020000508200081816200a3
:1057080004017800e00f5100e08f590004003200d6
:105718000200200003f02f00021c700003947000a8
:1057280000002100408188000080200080818800de
:1057380000102000c08188000082880000f82f0037
:10574800b40ab6008007b300a055880000252c00d5
:105758004007b60000f0a7000000ea000000ea00d9
:105768004f00de004400dd00518480000140a100ac
:1057780081007000518488004087a90041e7a90092
:1057880040c7a90041c7a9004127a900f0ff2f0081
:1057980030848800f0ff2700408488002028a90072
:1057a80020a8a90024a8a9004f06be004f0578002c
:0857b8004f04be0000000600d2
:020000040000fa
:1057c00002f0a7000201ea00808f500005003400bb
:1057d00000004100810f50000800340001007800f3
:1057e00006003700808f500004003d00020050008a
:1057f000810f500001003d0001007800000006000c
:020000040000fa
:1058000021040000be0000000000000003000000b2
:105810001027000058070000204e000084030000fd
:10582000f000000000000000000000000000000088
:105830000000000000000000000000000000000068
:105840000000000000000000000000000000000058
:105850000000000000000000000000000000000048
:105860000000000000000000000000000000000038
:020000040000fa
:020000040000fa
:10680000c08380000000e00008003a000010e200b1
:106810002f003a00a0002000d0868800e03d200034
:10682000e086880072060700290037007186800024
:106830000128a3000e003200ce50a900c12421007f
:1068400091007800e280600021003a00e10f5000e2
:1068500003003200e50f50001d003a00020037002f
:10686000b40307001a003700b2030700180037000e
:106870000138a30016003200ce70a900c124210007
:1068800091007800e280600011003a00e30f5000b0
:106890000b003200e40f500004003200e20f500001
:1068a0000b003a009f040700090037000a30ec0093
:1068b0009c04070010c0b3006cf0b7000400370060
:1068c0000a30ec009704070010c0b3006cf0b7006a
:1068d000c0838000e30f50001700320005003c0029
:1068e000e10f500040003200e20f50004f003a002c
:1068f00005003700e40f500019003200e50f50008a
:106900004a003a001c0037007d10ab000200320044
:106910000905070046003700b08280007a10b500f4
:1069200091928000808f500041003d008b10a800a4
:10693000110507003e003700709280000210e3004e
:10694000020036000c050700390037006d50e200e8
:10695000370032006d70ef00e605070034003700a5
:10696000809280000410e300310036000430ef0014
:10697000f10407002e0037007d10ab000700320045
:106980007d10a900401f2000d0868800e086880086
:106990008b50a8001606070025003700b182800042
:1069a000d083800081005000802421001000ea0084
:1069b000808f50001e003d00c02421001000780090
:1069c000620060000200320010c0b3006cf0b7003b
:1069d000800c2000d086880000322000e0868800ed
:1069e00003060700120037007d10ab0001003200e3
:1069f0007d10a9006c50e2000d0032006c70ef00b9
:106a0000a0252100140020000500200030014200d4
:106a1000a0814a000288be006022b8002083800066
:106a2000318380008e030700010037007d10a9002c
:046a3000000006005c
:020000040000fa
:106a340020868000b0858800ac30ef0081382100ca
:106a440011487800b610ec00b0858800ac30ec003a
:106a5400413921001104e0000b00320001c8b300e9
:106a64009238210012c84000b610ec00b0858800ae
:106a7400ac30ec004139210011487800b630ec000c
:106a8400ac30ec004e0037009138210011487800fa
:106a9400b28580000201e800b2858800ac30ec00c9
:106aa40011407800e44f500019003200f04f5000bc
:106ab4002c003200e34f50003e003a00c33821005e
:106ac4001300780000004000e1382100804878007d
:106ad40000497800b18580008100e800b185880014
:106ae400ac30ec0000878000a238210012001000b6
:106af40090858800000040008224210002004000ac
:106b04001301780057040700b08588002c00370073
:106b1400c33821001300780000004000e138210050
:106b24008048780000497800b18580008100e80041
:106b3400b1858800ac30ec00f0868000a2382100da
:106b44001200100090858800000040008228210077
:106b5400020040001301780042040700b085880059
:106b640017003700b038210010497800b610ec0047
:106b7400b0858800ac30ec00a138210011487800c1
:106b8400b610ec00b0858800ac30ec00d1382100a0
:106b940011487800b610ec00b0858800ac30ec00e9
:106ba400c138210011487800b630ec00ac30ec005c
:106bb4000300370011c0b3004039210001487800b8
:106bc400c10a21009140780020868000eb03070071
:106bd40080858800b0858000010b210091407800f9
:106be40001487800b610ec00b0858800ac30ec00a9
:106bf400110b2100914078000148780040392100b0
:106c04001090a000aa90ab000200320060858000c2
:086c1400650507000000060001
:020000040000fa
:106c1c00403921000048eb00e10a21009140780046
:106c2c00a0858000d3030700909c88000000e00042
:106c3c0052003a00a085800081382100b0487800cd
:106c4c00a0858800b0407800923821000149780076
:106c5c00a0858800e4cf500013003200f0cf500024
:106c6c0020003200e3cf500041003a00b13821003f
:106c7c00b0487800a0858800a1382100b048780081
:106c8c00a0858800d1382100b0487800a085880004
:106c9c00c1382100b0487800a08588004039210017
:106cac001080a00035003700b1382100b0487800c2
:106cbc00a0858800a1382100b0487800a085880004
:106ccc00d1382100b0487800a0858800c138210057
:106cdc00b0487800a0858800403921001080a000c1
:106cec0026003700b1382100b0487800a085880014
:106cfc00a238210030497800a0858800d1382100c5
:106d0c00b0487800a0858800c1382100b0487800d0
:106d1c00a0858800e1382100b0487800a085880063
:106d2c000187800092801000918588000500330057
:106d3c00629c80000282400003022000830f5200fc
:106d4c000400360021c0b30040392100014878000e
:106d5c0004003700818040008324210083804000a0
:106d6c0061040700403921001080a00003003700a7
:106d7c0011c0b30040392100014878000000060022
:020000040000fa
:106d8c00c21300000400000082000000ffffff009f
:106d9c00ff000000e2100000020000008000000074
:106dac00e41000000200000080000000c613000088
:106dbc000200000080000000e6100000020000004d
:106dcc0080000000961300002000000080000000ee
:106ddc00e81000000200000082000000ffff00002d
:106dec00c81300000200000080000000ea10000040
:106dfc000200000080000000ec1000000200000007
:106e0c0080000000ee100000020000008000000076
:106e1c00ca1300000200000080000000f010000007
:106e2c000200000080000000781000002e0000001e
:106e3c0080000000da100000040000008200000056
:106e4c000200580002000000001000007800000052
:106e5c0080000000481200004e010000800000007d
:106e6c00de100000040000008200000030754000bd
:106e7c009c000000a6100000140000008000000020
:106e8c00f21000005601000080000000ba10000053
:106e9c001400000080000000b61300000c0000007d
:106eac0080000000ce1000000c00000080000000ec
:046ebc0000000000d2
:020000040000fa
:106ec000022cef00007721002060880000302000b5
:106ed0003060880000802000506088001a2cef008d
:106ee0001e2cef000018200000618800006288005e
:106ef00000638800837a2c00e2c120001032240055
:106f0000d1bc2a0024c220000109780000097800c1
:106f1000030a780024c420000109780000097800e1
:106f2000030a780024c620000109780000097800cf
:106f3000030a78001304220044c2200001097800eb
:106f400000097800030a780044c420000109780091
:106f500000097800030a780044c62000010978007f
:106f600000097800030a7800262cef00462cef0079
:106f7000662cef00282cef00482cef00682cef0067
:106f80002a2cef004a2cef006a2cef002c2cef008b
:106f90004c2cef006c2cef00322cef00522cef0049
:106fa000722cef00342cef00542cef00742cef0007
:106fb000382cef00582cef00782cef003a2cef0023
:106fc0005a2cef007a2cef003c2cef005c2cef00e9
:106fd0007c2cef003e2cef005e2cef007e2cef00af
:0c6fe0007000280000608800000006001f
:020000040000fa
:106fec000203f8003a10f9000003f8003210f9001f
:106ffc000603f8002a10f9000603f8004210f90005
:10700c0060022100ab020700e0022100a902070088
:10701c0060032100a7020700e0032100a50207007e
:10702c00e0818000f1df2600810f500001003e005e
:10703c008ad0a800f17f2600810f500001003e008d
:10704c008af0a800c0838000e30f500007003c00ca
:10705c00e20f500015003d000000e0000800320077
:10706c00e10f50000f003a0008003700e40f500009
:10707c0009003200e50f50000a003a000b003700ff
:10708c004410f8000810f900080037004410f8000c
:10709c000810f900050037004410f8000810f9003a
:1070ac00020037000000eb00c501070042808000a1
:1070bc00608180008200500071828800020078009c
:1070cc004410b5008082880078030700708280002d
:1070dc004680de00b09d8800e08180004600de0026
:1070ec00f09d8800c1838000cc08dd00f0ff2000fb
:1070fc008a10b6000080700050848800009e8800c2
:04710c000000060079
:020000040000fa
:107110009038210010407800e44f50003e003200cb
:10712000f04f50003d003a00208380003183800002
:10713000b8f80700408388005183880004002000cd
:10714000050820008181620004017800e00f5100f1
:10715000e08f5900060032000200200003f02f00eb
:107160000200700083807000408388005183880093
:10717000d2928000e392800040838000518380009f
:10718000800f5100818f5900050032006022b80045
:107190002083800031838000b10107001f00370089
:1071a0000087800070004000519c8000808f50005c
:1071b00003003a0040938000608288001700370087
:1071c000e025210090007800f1bf88000008eb0066
:1071d0008224210000838000118380001d020700ab
:1071e000609280004201de00610161004a11dd0011
:1071f000e183800001a0a100810071004300de0056
:10720000610060004b00dd0001b0a1008100700052
:10721000e1838800010037008a30ef00000006009b
:020000040000fa
:10722000c00020002070880000012000c07088008d
:10723000e101200001708800f13f2000a17088006a
:107240000c2eef00202eef00e1002000517088008e
:1072500051002000f170880041002000317088004a
:107260001a2eef0070708800a0282000107188008e
:10727000f20b2000103a8000000161006004200041
:10728000710520002374200080497800814978002e
:107290008249780014c1b300e36a20008449780071
:1072a000e4c2b300636a20008449780004c2b300da
:1072b000f36a20008449780024c2b300036b2000e5
:1072c00084497800136b200084497800123a8000ca
:1072d0000260a00023742000804978008149780072
:0872e00082497800000006005d
:020000040000fa
:1072e80050f307005061ab002c003200108480007e
:1072f80021848000f083880001848800a00a80002f
:107308005061ab00fdff3a0010848800e00a80005d
:107318005861ab00fdff3a00208488007cf0a8008b
:107328003e0307007db0ab0015003200f0838000fb
:1073380001848000128480002384800000015100b1
:10734800818159003284880043848800e08380006a
:10735800c300de00e1c060000000d10061406000b1
:1073680080cf500007003a00f1762100810f5100cc
:10737800e08f590003003e008a30a8000100370062
:107388007db0a800e0838000c200dd00e8806000d6
:107398000030a10000807000e08388000000060033
:020000040000fa
:1073a8005061ab002c0032001084800021848000e2
:1073b800f083880001848800a00a80005061ab0037
:1073c800fdff3a0010848800e00a80005861ab0095
:1073d800fdff3a00208488007cf0a8000f03070016
:1073e8007db0ab0015003200f0838000018480007e
:1073f800128480002384800000015100818159009b
:107408003284880043848800e0838000c300de0063
:10741800e1c060000000d1006140600080cf5000f2
:1074280007003a00f1762100810f5100e08f5900e2
:1074380003003e008a30a800010037007db0a80094
:10744800e0838000c200dd00e88060000030a10019
:0c74580000807000e08388000000060047
:020000040000fa
:107464000020200041392100110060000900320091
:10747400010078001090a1009038210041c0b300b1
:1074840090cf100003003a00d830ef0060002000d5
:10749400b0868800d810e2000f003a00b28680005f
:1074a400f0072000800f5100110036000a00370059
:1074b40082007800848f500002003600b286880073
:1074c40005003700d02978000101e800850f50003d
:1074d400f7ff3a00b2868800d810ec00220320009f
:1074e400110009000280d800c1868800000006004f
:1074f400020041008328210080814100603b21007b
:10750400900978000201e800b2868800053c210059
:0c75140082007800f4072000e6ff37003a
:020000040000fa
:107520007d50ab00180032001270800062016100d3
:107530000201e9004f11de00618480000100a1001a
:107540008100710061848800b0708000610060007b
:107550000000a200000040000110a1000100700026
:1075600060848800b1708000e48060008100e900e0
:10757000cf08de00c208dd000020a10000807000fe
:107580006084880011003700020ed500e100600021
:10759000608480000000a10000807000608488008a
:1075a000b1708000e1806000818040000010a10087
:1075b0000080700060848800b1708000e48060000a
:1075c0000020a1000080700060848800608480003a
:0475d00000000600b1
:020000040000fa
:1075d400d050ec0067406000d0f0b700e14f50009d
:1075e4000600320003003900e24f500024003a0044
:1075f40022003700004ea80021003700d270d400ca
:10760400107080004200de006100600091868000fe
:107614000100a1008100700091868800d2d0bf00d3
:10762400e14f400002003a00ce10a80003003700ea
:107634000004e00001003a00ce10a900708680002a
:1076440063006000e20f500002003a00ce50a80030
:1076540003003700e10f500001003a00ce70a8008b
:1076640070868000e1006000818040000010a1006d
:10767400008070007086880001003700004ea90069
:0476840000000600fc
:020000040000fa
:107688001000260000588800c0002000105888000c
:10769800062bef0000002100205888000a2bef007d
:1076a800082bef000c2bef007100200071588800a8
:1076b8000088a9002088a800102bef00122bef00eb
:1076c800162bef00a05888001a2bef00182bef009c
:1076d8001c2bef001e2bef0001c8a900202bef0088
:1076e800222bef00262bef00205988002a2bef00d1
:1076f800282bef002c2bef002e2bef000308a900fe
:10770800302bef00322bef00362bef00a05988000a
:107718003a2bef00382bef003c2bef003e2bef000d
:0c7728000488a90001eba8000000060086
:020000040000fa
:10773400800c2000d086880001322000e186880079
:107744005c30ef005e30ef0021002000c183880030
:107754007d10a90070838800803e200090838800fb
:10776400400120008083880080ff2f005821b6004c
:107774005021b6000821ef000621ef00c20a800064
:10778400820060000100a000c10a88005001b60018
:107794000000a000800a8800d0838000b0828800a6
:1077a400c082880061828000c09280009702070036
:1077b400d082880060092000308288007d30a800d3
:0877c40019f2070000000600a5
:020000040000fa
:1077cc000000e00003003a00040cd5005060880073
:1077dc001f0037004f01de00e1838000cb08de0084
:1077ec00e1806000810f510002003a007c10a9007a
:1077fc00010037007c10a8008000780080c12f00a9
:10780c00808f500001003d008000780022608000d5
:10781c00803e2000808f50000100340080007800f2
:10782c000040200000804000cf80de008001eb0093
:10783c00828ab9000200b800810042004509dd00cf
:10784c004b00de0000007100cb08de0050608800a9
:04785c000000060022
:020000040000fa
:107860000400fa00889fbe008a9fbe008c1f78002b
:107870000004be000205be0094bf9f00a5bf9f008c
:1078800050052000a10a2000c0f607000800be0035
:10789000edf6070000467800410d21008c48780085
:1078a0001fba9700afba97000a01be000800be00d9
:1078b000f3f607000c86fb00000666000c06ea00e3
:1078c0004f66de000c407800d4f0b700b4f6070035
:1078d000d4d0bf004f0678004f05be004f04be0055
:0878e0000080fa000000060020
:020000040000fa
:1078e80000002300203a88004827ef004e27ef00c9
:1078f80000042000303a88006027ef006227ef007c
:107908006427ef006627ef006a27ef006c27ef0077
:107918006e27ef0010002000a20920008107200038
:1079280033742000814978008249780080497800c2
:10793800720520006104200023742000814978002a
:1079480082497800804978004207ab00feff3a0080
:1079580001022000123a800002806000fdff320020
:047968000000060015
:020000040000fa
:10796c00f0f82f0032428000820060000105b30065
:10797c003142880002428000820060000160a00059
:10798c000142880092428000820060000160a000e9
:10799c00914288004208b6000060a00010428800a6
:1079ac0080ff2f004208b6000000a00010428800a3
:1079bc00f0ff2800624280008200600001c0a0003d
:1079cc00614288004008b60000c0a0000042880058
:0479dc0000000600a1
:020000040000fa
:1079e00030c1b300c4e6b70000fc2f007206b60039
:1079f0000000a0009033880080ff2f004608b600ea
:107a00003000b30030428800f0ff28004408b60080
:107a100000d0a0002042880040132100208688006a
:107a2000bcd0a80041132100618688000000eb0053
:107a300067000700200820004011880021e2a8000c
:107a40002168a80040222000605888002062a80019
:047a5000000006002c
:020000040000fa
:107a5400889fbe008a9fbe000004be008205780095
:107a640050052000a10a200047f607000800be00c8
:107a740074f6070000457800400d21000a4878009c
:107a84000b0178000800be00c2f607000a85fb005f
:107a9400000565000a05ea004f55de008a407800bb
:107aa400400d2100014878003cf60700d4d0bf0007
:0c7ab4004f05be004f04be00000006009d
:020000040000fa
:107ac000881f78001004e00005003a0011c0b300e0
:107ad00001487800a0009000310098000f003700a6
:107ae0006602400094007800810178000001eb00fc
:107af0002003900001035300cfb3de00100090007c
:107b00008000eb0080bcb9000030b8008100440068
:107b10000001410081814900030a78004f04780088
:047b2000000006005b
:020000040000fa
:107b240040062000d086880000192000e0868800e6
:107b34005c30ef005e30ef0050002000c08388000e
:107b44007a30ef005630ef005830ef007d10a90076
:107b5400201c2000308288007d30a80080f32f0094
:107b64007083880080c12f0090838800a0ff2f00bd
:0c7b7400808388002cf107000000060050
:020000040000fa
:107b80000081eb000104e0000f0032008002e800f9
:107b90008140e9008180fb0081824200f40f2000d7
:107ba00083622a00b080fb00810069004811de007a
:107bb0008480600081804000818041001101690063
:107bc000850f5000f7ff3a00020078000000060021
:020000040000fa
:107bd000e10f50000900320005003900e20f5000ab
:107be00009003200e30f50000c003a000900370092
:107bf00021588800062bef0008003700a1588800a4
:107c0000162bef000500370021598800262bef00c6
:107c100002003700a1598800362bef000000060053
:020000040000fa
:107c200000868000e30f50000d003400ae01070015
:107c3000e085800064006000518580000120a10083
:107c40008100700051858800aa30a800aa90a80081
:107c5000200f2100a0858800c010f800ae10f900a8
:087c6000c030ef000000060037
:020000040000fa
:107c68000200e0000c003400820278000102780073
:107c78008401780010439000865978009049780074
:107c88000482e8000080e8008502e900f8ff3a0075
:107c9800020041008080400002004100ac30b40086
:087ca800010078000000060055
:020000040000fa
:107cb00040262800001988000020200010198800a4
:107cc00000202800201988000000220040198800a8
:107cd0002e23ef003023ef003223ef0010002000ae
:107ce00030198800607f23008a01070021a8a800be
:047cf000000006008a
:020000040000fa
:107cf400881f7800abf107004af60700000328004c
:107d0400000988001ca1ef00585a2a000060fe00f8
:107d1400bafa070027000700f0bf8000880f500060
:107d2400faff3a00020eab00f8ff3a000000fe0032
:047d3400f6ff37001f
:020000040000fa
:107d38007d10a90061828000509280003201070006
:107d4800a0838800908388006000200080838800da
:107d58005c30ef005e30ef0030002000c083880008
:107d68000230ef007d30a800aef0070000000600ea
:020000040000fa
:107d78000230ef0000322000d0868800800c2000fe
:107d8800e08688007d10a9005c30ef005e30ef00cf
:107d980040002000c08388006e30ef007230ef0092
:107da8007030ef007d30a9009ef00700000006004b
:020000040000fa
:107db800aa30ab0009003200aa30a900aa70a900b5
:107dc80094fb0700909c80000000e00007003a0048
:107dd800cdfc070015fb07000400370000712200e6
:107de800c610e30001003600350107000000060058
:020000040000fa
:107df800e10f50000800320005003900e20f500082
:107e080007003200e30f500008003a000600370070
:107e180001eba8000500370011eba80003003700ac
:107e280021eba8000100370031eba8000000060094
:020000040000fa
:107e3800e10f50000800320005003900e20f500041
:107e480007003200e30f500008003a000600370030
:107e580001eba9000500370011eba900030037006a
:107e680021eba9000100370031eba9000000060052
:020000040000fa
:107e7800e10f50000800320005003900e20f500001
:107e880007003200e30f500008003a0006003700f0
:107e980003eba8000500370013eba8000300370028
:107ea80023eba8000100370033eba8000000060010
:020000040000fa
:107eb800708280004680de005a10e3000a003d0010
:107ec8004610e20008003a0040062000d0868800ec
:107ed800e08688007d10a800c0838000e20f500073
:0c7ee80001003a0092ff070000000600b5
:020000040000fa
:107ef4000200e0000c0034008202780000027800e6
:107f040084017800334378009640980093487800c1
:107f14000482e8008180e8008502e900f8ff3a0065
:0c7f2400020141000200400000000600c5
:020000040000fa
:107f30001421ef00006c2700d00888000000280002
:107f4000f0088800e610e20002003a0000e1230099
:107f5000cd0007000368a9002368a800603c210049
:087f60000048eb0000000600e0
:020000040000fa
:107f68000021ef0010d82e0010088800000028001b
:107f780020088800f010e20002003a000083220086
:107f8800c70007000068a9002068a800a03c2100dd
:087f98000048eb0000000600a8
:020000040000fa
:107fa00010402000400a880070002000500a88001d
:107fb00080007800400a800001006000108788007f
:0c7fc00000a8a90020a8a80000000600ee
:020000040000fa
:107fcc0010402000800a8800d0102000900a880001
:107fdc0071002000800a800001006000508788003a
:0c7fec0004a8a90024a8a80000000600ba
:020000040000fa
:107ff80010402000000a880070002000100a880045
:1080080080007800000a8000010060006087880016
:0c8018000028a9002028a8000000060095
:020000040000fa
:10802400e0838000cb00de00e18060000000d1002e
:1080340061006000808f500002003a007a30ec004a
:0c804400010037007a30ed00000006005b
:020000040000fa
:10805000bcf0a90001102000121180000280600015
:10806000fdff32002342a9000000eb0072ff070071
:0c807000c630ef00020ea9000000060060
:020000040000fa
:10807c000a21ef000080eb00700888000621ef0059
:10808c00600888008001280080088800803c21005e
:08809c000048eb0000000600a3
:020000040000fa
:1080a400e1ef07004061ab0006003200200a8000c7
:1080b4004061ab00fdff3a00e08488007cb0a8007a
:0880c400d7ff070000000600d1
:020000040000fa
:1080cc00d7ef07004861ab0006003200600a800061
:1080dc004861ab00fdff3a00f08488007cd0a8001a
:0880ec00cdff070000000600b3
:020000040000fa
:1080f400808280004680de00210320008180b90058
:108104004680de007410b500b08388000080d10082
:088114007230b4000000060007
:020000040000fa
:10811c0010402000c00a8800c0102000d00a88003f
:10812c0071002000c00a80000100600020878800d8
:04813c000000060039
:020000040000fa
:10814000802aef000009220020548800862aef00d0
:10815000882aef00800020005054880085eaa8009b
:048160000000060015
:020000040000fa
:108164004061ab0006003200200a80004061ab0091
:10817400fdff3a00e08488007cb0a800a8ff070057
:0481840000000600f1
:020000040000fa
:108188004861ab0006003200600a80004861ab001d
:10819800fdff3a00f08488007cd0a8009fff07000c
:0481a80000000600cd
:020000040000fa
:1081ac00bcf0a800020ea800705888000000eb007c
:1081bc000eff07002342a8000000eb002bff070076
:0481cc0000000600a9
:020000040000fa
:1081d000802aef000040200020558800a62aef00ea
:1081e000a82aef00aa2aef00a5eaa80000000600ce
:020000040000fa
:1081f00010002000c08388006e30ef007230ef0066
:108200007030ef007d30a90088ef07000000060005
:020000040000fa
:108210000100e000040032008100ea00ef8060000d
:0c8220004400de008088b9000000060069
:020000040000fa
:10822c007c30ab000200320060001000e0801800cf
:0c823c00d09d8800e19d88000000060035
:020000040000fa
:10824800210f200022028000828060008080700060
:0882580021028800000006006d
:020000040000fa
:10826000603c21000048eb002368a8001fe1a80043
:048270000000060004
:020000040000fa
:108274006039210080077800e03a2100000188007d
:0482840000000600f0
:020000040000fa
:108288002368a900308788002368a800000006003a
:020000040000fa
:10829800c3e8a8000000000000000000000006007d
:020000040000fa
:1082a8002068a900808788002068a80000000600d0
:020000040000fa
:1082b80000692f00d0088800c7fd070000000600ed
:020000040000fa
:1082c80021e2a90060ff0700c3fd070000000600c7
:020000040000fa
:1082d800d2b0ef00ce10a800ce30a80000000600f3
:020000040000fa
:0c82e8001fe1a9002368a90000000600a7
:020000040000fa
:0c82f40000442800a0558800000006008f
:020000040000fa
:0c83000000042c0010548800000006004f
:020000040000fa
:08830c0040878800ffff3700e5
:020000040000fa
:088314007087880000000600dc
:020000040000fa
:020000040001f9
:04570000ffffff00a8
:020000040000fa
:020000040001f9
:04572000ffff000087
:020000040000fa
:020000040001f9
:0457300078ff0000fe
:020000040000fa
:020000040001f9
:045738005bff000013
:020000040000fa
:020000040001f9
:04574000eaff00007c
:020000040000fa
:020000040001f9
:04574800ffff00005f
:020000040000fa
:020000040001f9
:04575000feff000058
:020000040000fa
:020000040001f9
:04575800000000004d
:020000040000fa
:020000040001f9
:045760000000000045
:020000040000fa
:020000040001f9
:04576800000000003d
:020000040000fa
:020000040001f9
:045770000000000035
:020000040000fa
:020000040001f9
:04577800feff000030
:020000040000fa
:020000040001f9
:04578000feff000028
:020000040000fa
:020000040001f9
:04578800ffff00001f
:00000001FF
